{
  "contractName": "cTornado",
  "abi": [
    {
      "inputs": [
        {
          "internalType": "contract IERC20",
          "name": "_comp",
          "type": "address"
        },
        {
          "internalType": "contract IVerifier",
          "name": "_verifier",
          "type": "address"
        },
        {
          "internalType": "contract IHasher",
          "name": "_hasher",
          "type": "address"
        },
        {
          "internalType": "uint256",
          "name": "_denomination",
          "type": "uint256"
        },
        {
          "internalType": "uint32",
          "name": "_merkleTreeHeight",
          "type": "uint32"
        },
        {
          "internalType": "contract IERC20",
          "name": "_token",
          "type": "address"
        }
      ],
      "stateMutability": "nonpayable",
      "type": "constructor"
    },
    {
      "inputs": [],
      "name": "ReentrancyGuardReentrantCall",
      "type": "error"
    },
    {
      "anonymous": false,
      "inputs": [
        {
          "indexed": true,
          "internalType": "bytes32",
          "name": "commitment",
          "type": "bytes32"
        },
        {
          "indexed": false,
          "internalType": "uint32",
          "name": "leafIndex",
          "type": "uint32"
        },
        {
          "indexed": false,
          "internalType": "uint256",
          "name": "timestamp",
          "type": "uint256"
        }
      ],
      "name": "Deposit",
      "type": "event"
    },
    {
      "anonymous": false,
      "inputs": [
        {
          "indexed": false,
          "internalType": "address",
          "name": "to",
          "type": "address"
        },
        {
          "indexed": false,
          "internalType": "bytes32",
          "name": "nullifierHash",
          "type": "bytes32"
        },
        {
          "indexed": true,
          "internalType": "address",
          "name": "relayer",
          "type": "address"
        },
        {
          "indexed": false,
          "internalType": "uint256",
          "name": "fee",
          "type": "uint256"
        }
      ],
      "name": "Withdrawal",
      "type": "event"
    },
    {
      "inputs": [],
      "name": "FIELD_SIZE",
      "outputs": [
        {
          "internalType": "uint256",
          "name": "",
          "type": "uint256"
        }
      ],
      "stateMutability": "view",
      "type": "function"
    },
    {
      "inputs": [],
      "name": "ROOT_HISTORY_SIZE",
      "outputs": [
        {
          "internalType": "uint32",
          "name": "",
          "type": "uint32"
        }
      ],
      "stateMutability": "view",
      "type": "function"
    },
    {
      "inputs": [],
      "name": "ZERO_VALUE",
      "outputs": [
        {
          "internalType": "uint256",
          "name": "",
          "type": "uint256"
        }
      ],
      "stateMutability": "view",
      "type": "function"
    },
    {
      "inputs": [
        {
          "internalType": "bytes32",
          "name": "",
          "type": "bytes32"
        }
      ],
      "name": "commitments",
      "outputs": [
        {
          "internalType": "bool",
          "name": "",
          "type": "bool"
        }
      ],
      "stateMutability": "view",
      "type": "function"
    },
    {
      "inputs": [],
      "name": "comp",
      "outputs": [
        {
          "internalType": "contract IERC20",
          "name": "",
          "type": "address"
        }
      ],
      "stateMutability": "view",
      "type": "function"
    },
    {
      "inputs": [],
      "name": "currentRootIndex",
      "outputs": [
        {
          "internalType": "uint32",
          "name": "",
          "type": "uint32"
        }
      ],
      "stateMutability": "view",
      "type": "function"
    },
    {
      "inputs": [],
      "name": "denomination",
      "outputs": [
        {
          "internalType": "uint256",
          "name": "",
          "type": "uint256"
        }
      ],
      "stateMutability": "view",
      "type": "function"
    },
    {
      "inputs": [
        {
          "internalType": "bytes32",
          "name": "_commitment",
          "type": "bytes32"
        }
      ],
      "name": "deposit",
      "outputs": [],
      "stateMutability": "payable",
      "type": "function"
    },
    {
      "inputs": [
        {
          "internalType": "uint256",
          "name": "",
          "type": "uint256"
        }
      ],
      "name": "filledSubtrees",
      "outputs": [
        {
          "internalType": "bytes32",
          "name": "",
          "type": "bytes32"
        }
      ],
      "stateMutability": "view",
      "type": "function"
    },
    {
      "inputs": [],
      "name": "getLastRoot",
      "outputs": [
        {
          "internalType": "bytes32",
          "name": "",
          "type": "bytes32"
        }
      ],
      "stateMutability": "view",
      "type": "function"
    },
    {
      "inputs": [],
      "name": "governance",
      "outputs": [
        {
          "internalType": "address",
          "name": "",
          "type": "address"
        }
      ],
      "stateMutability": "view",
      "type": "function"
    },
    {
      "inputs": [
        {
          "internalType": "contract IHasher",
          "name": "_hasher",
          "type": "address"
        },
        {
          "internalType": "bytes32",
          "name": "_left",
          "type": "bytes32"
        },
        {
          "internalType": "bytes32",
          "name": "_right",
          "type": "bytes32"
        }
      ],
      "name": "hashLeftRight",
      "outputs": [
        {
          "internalType": "bytes32",
          "name": "",
          "type": "bytes32"
        }
      ],
      "stateMutability": "pure",
      "type": "function"
    },
    {
      "inputs": [],
      "name": "hasher",
      "outputs": [
        {
          "internalType": "contract IHasher",
          "name": "",
          "type": "address"
        }
      ],
      "stateMutability": "view",
      "type": "function"
    },
    {
      "inputs": [
        {
          "internalType": "bytes32",
          "name": "_root",
          "type": "bytes32"
        }
      ],
      "name": "isKnownRoot",
      "outputs": [
        {
          "internalType": "bool",
          "name": "",
          "type": "bool"
        }
      ],
      "stateMutability": "view",
      "type": "function"
    },
    {
      "inputs": [
        {
          "internalType": "bytes32",
          "name": "_nullifierHash",
          "type": "bytes32"
        }
      ],
      "name": "isSpent",
      "outputs": [
        {
          "internalType": "bool",
          "name": "",
          "type": "bool"
        }
      ],
      "stateMutability": "view",
      "type": "function"
    },
    {
      "inputs": [
        {
          "internalType": "bytes32[]",
          "name": "_nullifierHashes",
          "type": "bytes32[]"
        }
      ],
      "name": "isSpentArray",
      "outputs": [
        {
          "internalType": "bool[]",
          "name": "spent",
          "type": "bool[]"
        }
      ],
      "stateMutability": "view",
      "type": "function"
    },
    {
      "inputs": [],
      "name": "levels",
      "outputs": [
        {
          "internalType": "uint32",
          "name": "",
          "type": "uint32"
        }
      ],
      "stateMutability": "view",
      "type": "function"
    },
    {
      "inputs": [],
      "name": "nextIndex",
      "outputs": [
        {
          "internalType": "uint32",
          "name": "",
          "type": "uint32"
        }
      ],
      "stateMutability": "view",
      "type": "function"
    },
    {
      "inputs": [
        {
          "internalType": "bytes32",
          "name": "",
          "type": "bytes32"
        }
      ],
      "name": "nullifierHashes",
      "outputs": [
        {
          "internalType": "bool",
          "name": "",
          "type": "bool"
        }
      ],
      "stateMutability": "view",
      "type": "function"
    },
    {
      "inputs": [
        {
          "internalType": "uint256",
          "name": "",
          "type": "uint256"
        }
      ],
      "name": "roots",
      "outputs": [
        {
          "internalType": "bytes32",
          "name": "",
          "type": "bytes32"
        }
      ],
      "stateMutability": "view",
      "type": "function"
    },
    {
      "inputs": [],
      "name": "token",
      "outputs": [
        {
          "internalType": "contract IERC20",
          "name": "",
          "type": "address"
        }
      ],
      "stateMutability": "view",
      "type": "function"
    },
    {
      "inputs": [],
      "name": "verifier",
      "outputs": [
        {
          "internalType": "contract IVerifier",
          "name": "",
          "type": "address"
        }
      ],
      "stateMutability": "view",
      "type": "function"
    },
    {
      "inputs": [
        {
          "internalType": "bytes",
          "name": "_proof",
          "type": "bytes"
        },
        {
          "internalType": "bytes32",
          "name": "_root",
          "type": "bytes32"
        },
        {
          "internalType": "bytes32",
          "name": "_nullifierHash",
          "type": "bytes32"
        },
        {
          "internalType": "address payable",
          "name": "_recipient",
          "type": "address"
        },
        {
          "internalType": "address payable",
          "name": "_relayer",
          "type": "address"
        },
        {
          "internalType": "uint256",
          "name": "_fee",
          "type": "uint256"
        },
        {
          "internalType": "uint256",
          "name": "_refund",
          "type": "uint256"
        }
      ],
      "name": "withdraw",
      "outputs": [],
      "stateMutability": "payable",
      "type": "function"
    },
    {
      "inputs": [
        {
          "internalType": "uint256",
          "name": "i",
          "type": "uint256"
        }
      ],
      "name": "zeros",
      "outputs": [
        {
          "internalType": "bytes32",
          "name": "",
          "type": "bytes32"
        }
      ],
      "stateMutability": "pure",
      "type": "function"
    },
    {
      "inputs": [],
      "name": "claimComp",
      "outputs": [],
      "stateMutability": "nonpayable",
      "type": "function"
    }
  ],
  "bytecode": "0x6101006040526000600360006101000a81548163ffffffff021916908363ffffffff1602179055506000600360046101000a81548163ffffffff021916908363ffffffff160217905550735efda50f22d34f262c29268506c5fa42cb56a1ce73ffffffffffffffffffffffffffffffffffffffff1660c09073ffffffffffffffffffffffffffffffffffffffff168152503480156200009d57600080fd5b50604051620043be380380620043be8339818101604052810190620000c3919062000c45565b848484848484848484808360008263ffffffff16116200011a576040517f08c379a0000000000000000000000000000000000000000000000000000000008152600401620001119062000d68565b60405180910390fd5b60208263ffffffff161062000166576040517f08c379a00000000000000000000000000000000000000000000000000000000081526004016200015d9062000dda565b60405180910390fd5b816000806101000a81548163ffffffff021916908363ffffffff1602179055508073ffffffffffffffffffffffffffffffffffffffff1660808173ffffffffffffffffffffffffffffffffffffffff168152505060005b8263ffffffff168163ffffffff1610156200021c57620001e98163ffffffff16620003e060201b60201c565b600160008363ffffffff168152602001908152602001600020819055508080620002139062000e2b565b915050620001bd565b506200024260018362000230919062000e5c565b63ffffffff16620003e060201b60201c565b60026000808152602001908152602001600020819055505050600160048190555060008211620002a9576040517f08c379a0000000000000000000000000000000000000000000000000000000008152600401620002a09062000f11565b60405180910390fd5b8373ffffffffffffffffffffffffffffffffffffffff1660a08173ffffffffffffffffffffffffffffffffffffffff1681525050816005819055505050505080600860006101000a81548173ffffffffffffffffffffffffffffffffffffffff021916908373ffffffffffffffffffffffffffffffffffffffff1602179055505050505050600073ffffffffffffffffffffffffffffffffffffffff168673ffffffffffffffffffffffffffffffffffffffff1603620003a0576040517f08c379a0000000000000000000000000000000000000000000000000000000008152600401620003979062000f83565b60405180910390fd5b8573ffffffffffffffffffffffffffffffffffffffff1660e08173ffffffffffffffffffffffffffffffffffffffff168152505050505050505062001017565b600080820362000416577f2fe54c60d3acabf3343a35b6eba15db4821b340f76e741e2249685ed4899af6c60001b905062000abc565b600182036200044b577f256a6135777eee2fd26f54b8b7037a25439d5235caee224154186d2b8a52e31d60001b905062000abc565b6002820362000480577f1151949895e82ab19924de92c40a3d6f7bcb60d92b00504b8199613683f0c20060001b905062000abc565b60038203620004b5577f20121ee811489ff8d61f09fb89e313f14959a0f28bb428a20dba6b0b068b3bdb60001b905062000abc565b60048203620004ea577f0a89ca6ffa14cc462cfedb842c30ed221a50a3d6bf022a6a57dc82ab24c157c960001b905062000abc565b600582036200051f577f24ca05c2b5cd42e890d6be94c68d0689f4f21c9cec9c0f13fe41d566dfb5495960001b905062000abc565b6006820362000554577f1ccb97c932565a92c60156bdba2d08f3bf1377464e025cee765679e604a7315c60001b905062000abc565b6007820362000589577f19156fbd7d1a8bf5cba8909367de1b624534ebab4f0f79e003bccdd1b182bdb460001b905062000abc565b60088203620005be577f261af8c1f0912e465744641409f622d466c3920ac6e5ff37e36604cb11dfff8060001b905062000abc565b60098203620005f2577e58459724ff6ca5a1652fcbc3e82b93895cf08e975b19beab3f54c217d1c00760001b905062000abc565b600a820362000627577f1f04ef20dee48d39984d8eabe768a70eafa6310ad20849d4573c3c40c2ad1e3060001b905062000abc565b600b82036200065c577f1bea3dec5dab51567ce7e200a30f7ba6d4276aeaa53e2686f962a46c66d511e560001b905062000abc565b600c820362000691577f0ee0f941e2da4b9e31c3ca97a40d8fa9ce68d97c084177071b3cb46cd3372f0f60001b905062000abc565b600d8203620006c6577f1ca9503e8935884501bbaf20be14eb4c46b89772c97b96e3b2ebf3a36a948bbd60001b905062000abc565b600e8203620006fb577f133a80e30697cd55d8f7d4b0965b7be24057ba5dc3da898ee2187232446cb10860001b905062000abc565b600f820362000730577f13e6d8fc88839ed76e182c2a779af5b2c0da9dd18c90427a644f7e148a6253b660001b905062000abc565b6010820362000765577f1eb16b057a477f4bc8f572ea6bee39561098f78f15bfb3699dcbb7bd8db6185460001b905062000abc565b601182036200079a577f0da2cb16a1ceaabf1c16b838f7a9e3f2a3a3088d9e0a6debaa748114620696ea60001b905062000abc565b60128203620007cf577f24a3b3d822420b14b5d8cb6c28a574f01e98ea9e940551d2ebd75cee12649f9d60001b905062000abc565b6013820362000804577f198622acbd783d1b0d9064105b1fc8e4d8889de95c4c519b3f635809fe6afc0560001b905062000abc565b6014820362000839577f29d7ed391256ccc3ea596c86e933b89ff339d25ea8ddced975ae2fe30b5296d460001b905062000abc565b601582036200086e577f19be59f2f0413ce78c0c3703a3a5451b1d7f39629fa33abd11548a76065b296760001b905062000abc565b60168203620008a3577f1ff3f61797e538b70e619310d33f2a063e7eb59104e112e95738da1254dc345360001b905062000abc565b60178203620008d8577f10c16ae9959cf8358980d9dd9616e48228737310a10e2b6b731c1a548f036c4860001b905062000abc565b601882036200090d577f0ba433a63174a90ac20992e75e3095496812b652685b5e1a2eae0b1bf4e8fcd160001b905062000abc565b6019820362000942577f019ddb9df2bc98d987d0dfeca9d2b643deafab8f7036562e627c3667266a044c60001b905062000abc565b601a820362000977577f2d3c88b23175c5a5565db928414c66d1912b11acf974b2e644caaac04739ce9960001b905062000abc565b601b8203620009ac577f2eab55f6ae4e66e32c5189eed5c470840863445760f5ed7e7b69b2a62600f35460001b905062000abc565b601c8203620009e0577e2df37a2642621802383cf952bf4dd1f32e05433beeb1fd41031fb7eace979d60001b905062000abc565b601d820362000a15577f104aeb41435db66c3e62feccc1d6f5d98d0a0ed75d1374db457cf462e3a1f42760001b905062000abc565b601e820362000a4a577f1f3c6fd858e9a7d4b0d1f38e256a09d81d5a5e3c963987e2d4b814cfab7c6ebb60001b905062000abc565b601f820362000a7f577f2c7a07d20dff79d01fecedc1134284a8d08436606c93693b67e333f671bf69cc60001b905062000abc565b6040517f08c379a000000000000000000000000000000000000000000000000000000000815260040162000ab39062000ff5565b60405180910390fd5b919050565b600080fd5b600073ffffffffffffffffffffffffffffffffffffffff82169050919050565b600062000af38262000ac6565b9050919050565b600062000b078262000ae6565b9050919050565b62000b198162000afa565b811462000b2557600080fd5b50565b60008151905062000b398162000b0e565b92915050565b600062000b4c8262000ae6565b9050919050565b62000b5e8162000b3f565b811462000b6a57600080fd5b50565b60008151905062000b7e8162000b53565b92915050565b600062000b918262000ae6565b9050919050565b62000ba38162000b84565b811462000baf57600080fd5b50565b60008151905062000bc38162000b98565b92915050565b6000819050919050565b62000bde8162000bc9565b811462000bea57600080fd5b50565b60008151905062000bfe8162000bd3565b92915050565b600063ffffffff82169050919050565b62000c1f8162000c04565b811462000c2b57600080fd5b50565b60008151905062000c3f8162000c14565b92915050565b60008060008060008060c0878903121562000c655762000c6462000ac1565b5b600062000c7589828a0162000b28565b965050602062000c8889828a0162000b6d565b955050604062000c9b89828a0162000bb2565b945050606062000cae89828a0162000bed565b935050608062000cc189828a0162000c2e565b92505060a062000cd489828a0162000b28565b9150509295509295509295565b600082825260208201905092915050565b7f5f6c6576656c732073686f756c642062652067726561746572207468616e207a60008201527f65726f0000000000000000000000000000000000000000000000000000000000602082015250565b600062000d5060238362000ce1565b915062000d5d8262000cf2565b604082019050919050565b6000602082019050818103600083015262000d838162000d41565b9050919050565b7f5f6c6576656c732073686f756c64206265206c657373207468616e2033320000600082015250565b600062000dc2601e8362000ce1565b915062000dcf8262000d8a565b602082019050919050565b6000602082019050818103600083015262000df58162000db3565b9050919050565b7f4e487b7100000000000000000000000000000000000000000000000000000000600052601160045260246000fd5b600062000e388262000c04565b915063ffffffff820362000e515762000e5062000dfc565b5b600182019050919050565b600062000e698262000c04565b915062000e768362000c04565b9250828203905063ffffffff81111562000e955762000e9462000dfc565b5b92915050565b7f64656e6f6d696e6174696f6e2073686f756c642062652067726561746572207460008201527f68616e2030000000000000000000000000000000000000000000000000000000602082015250565b600062000ef960258362000ce1565b915062000f068262000e9b565b604082019050919050565b6000602082019050818103600083015262000f2c8162000eea565b9050919050565b7f496e76616c696420434f4d5020746f6b656e2061646472657373000000000000600082015250565b600062000f6b601a8362000ce1565b915062000f788262000f33565b602082019050919050565b6000602082019050818103600083015262000f9e8162000f5c565b9050919050565b7f496e646578206f7574206f6620626f756e647300000000000000000000000000600082015250565b600062000fdd60138362000ce1565b915062000fea8262000fa5565b602082019050919050565b60006020820190508181036000830152620010108162000fce565b9050919050565b60805160a05160c05160e05161334a62001074600039600081816106100152818161065401526106b10152600081816106900152610b0b0152600081816108fa0152610aaf01526000818161171e0152611acd015261334a6000f3fe6080604052600436106101665760003560e01c806390eeb02b116100d1578063e5285dcc1161008a578063ed33639f11610064578063ed33639f14610550578063f178e47c1461057b578063fc0c546a146105b8578063fc7e9c6f146105e357610166565b8063e5285dcc146104ab578063e8295588146104e8578063ec7329591461052557610166565b806390eeb02b146103945780639fa12d0b146103bf578063b214faa5146103fc578063ba70f75714610418578063c2b40ae414610443578063cd87a3b41461048057610166565b80634ecf518b116101235780634ecf518b1461025c5780635aa6e675146102875780636d9833e3146102b2578063839df945146102ef5780638bca6d161461032c5780638ea3099e1461035757610166565b8063109d0af81461016b57806317cc915c146101965780631bd85bdb146101d357806321a0adb6146101ea5780632b7ac3f314610206578063414a37ba14610231575b600080fd5b34801561017757600080fd5b5061018061060e565b60405161018d9190611ef8565b60405180910390f35b3480156101a257600080fd5b506101bd60048036038101906101b89190611f53565b610632565b6040516101ca9190611f9b565b60405180910390f35b3480156101df57600080fd5b506101e8610652565b005b61020460048036038101906101ff919061208f565b6107ac565b005b34801561021257600080fd5b5061021b610aad565b6040516102289190612172565b60405180910390f35b34801561023d57600080fd5b50610246610ad1565b604051610253919061219c565b60405180910390f35b34801561026857600080fd5b50610271610af5565b60405161027e91906121d6565b60405180910390f35b34801561029357600080fd5b5061029c610b09565b6040516102a99190612212565b60405180910390f35b3480156102be57600080fd5b506102d960048036038101906102d49190611f53565b610b2d565b6040516102e69190611f9b565b60405180910390f35b3480156102fb57600080fd5b5061031660048036038101906103119190611f53565b610bca565b6040516103239190611f9b565b60405180910390f35b34801561033857600080fd5b50610341610bea565b60405161034e919061219c565b60405180910390f35b34801561036357600080fd5b5061037e6004803603810190610379919061226b565b610bf0565b60405161038b91906122cd565b60405180910390f35b3480156103a057600080fd5b506103a9610e12565b6040516103b691906121d6565b60405180910390f35b3480156103cb57600080fd5b506103e660048036038101906103e1919061233e565b610e28565b6040516103f39190612449565b60405180910390f35b61041660048036038101906104119190611f53565b610eef565b005b34801561042457600080fd5b5061042d610fdf565b60405161043a91906122cd565b60405180910390f35b34801561044f57600080fd5b5061046a6004803603810190610465919061246b565b611012565b60405161047791906122cd565b60405180910390f35b34801561048c57600080fd5b5061049561102a565b6040516104a291906121d6565b60405180910390f35b3480156104b757600080fd5b506104d260048036038101906104cd9190611f53565b61102f565b6040516104df9190611f9b565b60405180910390f35b3480156104f457600080fd5b5061050f600480360381019061050a919061246b565b611059565b60405161051c91906122cd565b60405180910390f35b34801561053157600080fd5b5061053a6116f8565b604051610547919061219c565b60405180910390f35b34801561055c57600080fd5b5061056561171c565b60405161057291906124b9565b60405180910390f35b34801561058757600080fd5b506105a2600480360381019061059d919061246b565b611740565b6040516105af91906122cd565b60405180910390f35b3480156105c457600080fd5b506105cd611758565b6040516105da9190611ef8565b60405180910390f35b3480156105ef57600080fd5b506105f861177e565b60405161060591906121d6565b60405180910390f35b7f000000000000000000000000000000000000000000000000000000000000000081565b60066020528060005260406000206000915054906101000a900460ff1681565b7f000000000000000000000000000000000000000000000000000000000000000073ffffffffffffffffffffffffffffffffffffffff1663a9059cbb7f00000000000000000000000000000000000000000000000000000000000000007f000000000000000000000000000000000000000000000000000000000000000073ffffffffffffffffffffffffffffffffffffffff166370a08231306040518263ffffffff1660e01b81526004016107089190612212565b602060405180830381865afa158015610725573d6000803e3d6000fd5b505050506040513d601f19601f8201168201806040525081019061074991906124e9565b6040518363ffffffff1660e01b8152600401610766929190612516565b6020604051808303816000875af1158015610785573d6000803e3d6000fd5b505050506040513d601f19601f820116820180604052508101906107a9919061256b565b50565b6107b4611794565b6005548211156107f9576040517f08c379a00000000000000000000000000000000000000000000000000000000081526004016107f0906125f5565b60405180910390fd5b6006600086815260200190815260200160002060009054906101000a900460ff161561085a576040517f08c379a000000000000000000000000000000000000000000000000000000000815260040161085190612661565b60405180910390fd5b61086386610b2d565b6108a2576040517f08c379a0000000000000000000000000000000000000000000000000000000008152600401610899906126cd565b60405180910390fd5b6000846040516020016108b59190612735565b6040516020818303038152906040528051906020012090506000846040516020016108e09190612735565b6040516020818303038152906040528051906020012090507f000000000000000000000000000000000000000000000000000000000000000073ffffffffffffffffffffffffffffffffffffffff1663695ef6f98b8b6040518060c001604052808d60001c81526020018c60001c81526020018760001c81526020018660001c8152602001898152602001888152506040518463ffffffff1660e01b815260040161098d93929190612859565b6020604051808303816000875af11580156109ac573d6000803e3d6000fd5b505050506040513d601f19601f820116820180604052508101906109d0919061256b565b610a0f576040517f08c379a0000000000000000000000000000000000000000000000000000000008152600401610a06906128d7565b60405180910390fd5b60016006600089815260200190815260200160002060006101000a81548160ff021916908315150217905550610a47868686866117da565b8473ffffffffffffffffffffffffffffffffffffffff167fe9e508bad6d4c3227e881ca19068f099da81b5164dd6d62b2eaf1e8bc6c34931878987604051610a9193929190612918565b60405180910390a25050610aa3611997565b5050505050505050565b7f000000000000000000000000000000000000000000000000000000000000000081565b7f30644e72e131a029b85045b68181585d2833e84879b9709143e1f593f000000181565b60008054906101000a900463ffffffff1681565b7f000000000000000000000000000000000000000000000000000000000000000081565b60008060001b8203610b425760009050610bc5565b6000600360009054906101000a900463ffffffff16905060008190505b600260008263ffffffff168152602001908152602001600020548403610b8a57600192505050610bc5565b60008163ffffffff1603610b9d57601e90505b8080610ba89061297e565b9150508163ffffffff168163ffffffff1603610b5f576000925050505b919050565b60076020528060005260406000206000915054906101000a900460ff1681565b60055481565b60007f30644e72e131a029b85045b68181585d2833e84879b9709143e1f593f00000018360001c10610c57576040517f08c379a0000000000000000000000000000000000000000000000000000000008152600401610c4e906129f3565b60405180910390fd5b7f30644e72e131a029b85045b68181585d2833e84879b9709143e1f593f00000018260001c10610cbc576040517f08c379a0000000000000000000000000000000000000000000000000000000008152600401610cb390612a85565b60405180910390fd5b60008360001c905060008573ffffffffffffffffffffffffffffffffffffffff1663f47d33b583836040518363ffffffff1660e01b8152600401610d01929190612aa5565b6040805180830381865afa158015610d1d573d6000803e3d6000fd5b505050506040513d601f19601f82011682018060405250810190610d419190612ace565b80925081935050507f30644e72e131a029b85045b68181585d2833e84879b9709143e1f593f000000180610d7857610d77612b0e565b5b8460001c830891508573ffffffffffffffffffffffffffffffffffffffff1663f47d33b583836040518363ffffffff1660e01b8152600401610dbb929190612aa5565b6040805180830381865afa158015610dd7573d6000803e3d6000fd5b505050506040513d601f19601f82011682018060405250810190610dfb9190612ace565b80925081935050508160001b925050509392505050565b600360009054906101000a900463ffffffff1681565b60608282905067ffffffffffffffff811115610e4757610e46612b3d565b5b604051908082528060200260200182016040528015610e755781602001602082028036833780820191505090505b50905060005b83839050811015610ee857610ea8848483818110610e9c57610e9b612b6c565b5b9050602002013561102f565b15610ed5576001828281518110610ec257610ec1612b6c565b5b6020026020010190151590811515815250505b8080610ee090612b9b565b915050610e7b565b5092915050565b610ef7611794565b6007600082815260200190815260200160002060009054906101000a900460ff1615610f58576040517f08c379a0000000000000000000000000000000000000000000000000000000008152600401610f4f90612c55565b60405180910390fd5b6000610f63826119a1565b905060016007600084815260200190815260200160002060006101000a81548160ff021916908315150217905550610f99611bc1565b817fa945e51eec50ab98c161376f0db4cf2aeba3ec92755fe2fcd388bdbbb80ff1968242604051610fcb929190612c75565b60405180910390a250610fdc611997565b50565b600060026000600360009054906101000a900463ffffffff1663ffffffff16815260200190815260200160002054905090565b60026020528060005260406000206000915090505481565b601e81565b60006006600083815260200190815260200160002060009054906101000a900460ff169050919050565b600080820361108d577f2fe54c60d3acabf3343a35b6eba15db4821b340f76e741e2249685ed4899af6c60001b90506116f3565b600182036110c0577f256a6135777eee2fd26f54b8b7037a25439d5235caee224154186d2b8a52e31d60001b90506116f3565b600282036110f3577f1151949895e82ab19924de92c40a3d6f7bcb60d92b00504b8199613683f0c20060001b90506116f3565b60038203611126577f20121ee811489ff8d61f09fb89e313f14959a0f28bb428a20dba6b0b068b3bdb60001b90506116f3565b60048203611159577f0a89ca6ffa14cc462cfedb842c30ed221a50a3d6bf022a6a57dc82ab24c157c960001b90506116f3565b6005820361118c577f24ca05c2b5cd42e890d6be94c68d0689f4f21c9cec9c0f13fe41d566dfb5495960001b90506116f3565b600682036111bf577f1ccb97c932565a92c60156bdba2d08f3bf1377464e025cee765679e604a7315c60001b90506116f3565b600782036111f2577f19156fbd7d1a8bf5cba8909367de1b624534ebab4f0f79e003bccdd1b182bdb460001b90506116f3565b60088203611225577f261af8c1f0912e465744641409f622d466c3920ac6e5ff37e36604cb11dfff8060001b90506116f3565b60098203611257577e58459724ff6ca5a1652fcbc3e82b93895cf08e975b19beab3f54c217d1c00760001b90506116f3565b600a820361128a577f1f04ef20dee48d39984d8eabe768a70eafa6310ad20849d4573c3c40c2ad1e3060001b90506116f3565b600b82036112bd577f1bea3dec5dab51567ce7e200a30f7ba6d4276aeaa53e2686f962a46c66d511e560001b90506116f3565b600c82036112f0577f0ee0f941e2da4b9e31c3ca97a40d8fa9ce68d97c084177071b3cb46cd3372f0f60001b90506116f3565b600d8203611323577f1ca9503e8935884501bbaf20be14eb4c46b89772c97b96e3b2ebf3a36a948bbd60001b90506116f3565b600e8203611356577f133a80e30697cd55d8f7d4b0965b7be24057ba5dc3da898ee2187232446cb10860001b90506116f3565b600f8203611389577f13e6d8fc88839ed76e182c2a779af5b2c0da9dd18c90427a644f7e148a6253b660001b90506116f3565b601082036113bc577f1eb16b057a477f4bc8f572ea6bee39561098f78f15bfb3699dcbb7bd8db6185460001b90506116f3565b601182036113ef577f0da2cb16a1ceaabf1c16b838f7a9e3f2a3a3088d9e0a6debaa748114620696ea60001b90506116f3565b60128203611422577f24a3b3d822420b14b5d8cb6c28a574f01e98ea9e940551d2ebd75cee12649f9d60001b90506116f3565b60138203611455577f198622acbd783d1b0d9064105b1fc8e4d8889de95c4c519b3f635809fe6afc0560001b90506116f3565b60148203611488577f29d7ed391256ccc3ea596c86e933b89ff339d25ea8ddced975ae2fe30b5296d460001b90506116f3565b601582036114bb577f19be59f2f0413ce78c0c3703a3a5451b1d7f39629fa33abd11548a76065b296760001b90506116f3565b601682036114ee577f1ff3f61797e538b70e619310d33f2a063e7eb59104e112e95738da1254dc345360001b90506116f3565b60178203611521577f10c16ae9959cf8358980d9dd9616e48228737310a10e2b6b731c1a548f036c4860001b90506116f3565b60188203611554577f0ba433a63174a90ac20992e75e3095496812b652685b5e1a2eae0b1bf4e8fcd160001b90506116f3565b60198203611587577f019ddb9df2bc98d987d0dfeca9d2b643deafab8f7036562e627c3667266a044c60001b90506116f3565b601a82036115ba577f2d3c88b23175c5a5565db928414c66d1912b11acf974b2e644caaac04739ce9960001b90506116f3565b601b82036115ed577f2eab55f6ae4e66e32c5189eed5c470840863445760f5ed7e7b69b2a62600f35460001b90506116f3565b601c820361161f577e2df37a2642621802383cf952bf4dd1f32e05433beeb1fd41031fb7eace979d60001b90506116f3565b601d8203611652577f104aeb41435db66c3e62feccc1d6f5d98d0a0ed75d1374db457cf462e3a1f42760001b90506116f3565b601e8203611685577f1f3c6fd858e9a7d4b0d1f38e256a09d81d5a5e3c963987e2d4b814cfab7c6ebb60001b90506116f3565b601f82036116b8577f2c7a07d20dff79d01fecedc1134284a8d08436606c93693b67e333f671bf69cc60001b90506116f3565b6040517f08c379a00000000000000000000000000000000000000000000000000000000081526004016116ea90612cea565b60405180910390fd5b919050565b7f2fe54c60d3acabf3343a35b6eba15db4821b340f76e741e2249685ed4899af6c81565b7f000000000000000000000000000000000000000000000000000000000000000081565b60016020528060005260406000206000915090505481565b600860009054906101000a900473ffffffffffffffffffffffffffffffffffffffff1681565b600360049054906101000a900463ffffffff1681565b6002600454036117d0576040517f3ee5aeb500000000000000000000000000000000000000000000000000000000815260040160405180910390fd5b6002600481905550565b80341461181c576040517f08c379a000000000000000000000000000000000000000000000000000000000815260040161181390612d7c565b60405180910390fd5b611876848360055461182e9190612d9c565b600860009054906101000a900473ffffffffffffffffffffffffffffffffffffffff1673ffffffffffffffffffffffffffffffffffffffff16611c579092919063ffffffff16565b60008211156118cd576118cc8383600860009054906101000a900473ffffffffffffffffffffffffffffffffffffffff1673ffffffffffffffffffffffffffffffffffffffff16611c579092919063ffffffff16565b5b60008111156119915760008473ffffffffffffffffffffffffffffffffffffffff16826040516118fc90612e01565b60006040518083038185875af1925050503d8060008114611939576040519150601f19603f3d011682016040523d82523d6000602084013e61193e565b606091505b505090508061198f578373ffffffffffffffffffffffffffffffffffffffff166108fc839081150290604051600060405180830381858888f1935050505015801561198d573d6000803e3d6000fd5b505b505b50505050565b6001600481905550565b600080600360049054906101000a900463ffffffff16905060008054906101000a900463ffffffff1660026119d69190612f49565b63ffffffff168163ffffffff1603611a23576040517f08c379a0000000000000000000000000000000000000000000000000000000008152600401611a1a90612fea565b60405180910390fd5b6000819050600084905060008060005b60008054906101000a900463ffffffff1663ffffffff168163ffffffff161015611b17576000600286611a66919061300a565b63ffffffff1603611aa857839250611a838163ffffffff16611059565b915083600160008363ffffffff16815260200190815260200160002081905550611ac8565b600160008263ffffffff1681526020019081526020016000205492508391505b611af37f00000000000000000000000000000000000000000000000000000000000000008484610bf0565b9350600285611b02919061303b565b94508080611b0f9061306c565b915050611a33565b506000601e6001600360009054906101000a900463ffffffff16611b3b9190613098565b611b45919061300a565b905080600360006101000a81548163ffffffff021916908363ffffffff16021790555083600260008363ffffffff16815260200190815260200160002081905550600186611b939190613098565b600360046101000a81548163ffffffff021916908363ffffffff160217905550859650505050505050919050565b60003414611c04576040517f08c379a0000000000000000000000000000000000000000000000000000000008152600401611bfb90613142565b60405180910390fd5b611c553330600554600860009054906101000a900473ffffffffffffffffffffffffffffffffffffffff1673ffffffffffffffffffffffffffffffffffffffff16611cdd909392919063ffffffff16565b565b611cd88363a9059cbb60e01b8484604051602401611c76929190612516565b604051602081830303815290604052907bffffffffffffffffffffffffffffffffffffffffffffffffffffffff19166020820180517bffffffffffffffffffffffffffffffffffffffffffffffffffffffff8381831617835250505050611d66565b505050565b611d60846323b872dd60e01b858585604051602401611cfe93929190613162565b604051602081830303815290604052907bffffffffffffffffffffffffffffffffffffffffffffffffffffffff19166020820180517bffffffffffffffffffffffffffffffffffffffffffffffffffffffff8381831617835250505050611d66565b50505050565b6000808373ffffffffffffffffffffffffffffffffffffffff1683604051611d8e91906131ff565b6000604051808303816000865af19150503d8060008114611dcb576040519150601f19603f3d011682016040523d82523d6000602084013e611dd0565b606091505b509150915081611e15576040517f08c379a0000000000000000000000000000000000000000000000000000000008152600401611e0c90613262565b60405180910390fd5b600081511115611e735780806020019051810190611e33919061256b565b611e72576040517f08c379a0000000000000000000000000000000000000000000000000000000008152600401611e69906132f4565b60405180910390fd5b5b50505050565b600073ffffffffffffffffffffffffffffffffffffffff82169050919050565b6000819050919050565b6000611ebe611eb9611eb484611e79565b611e99565b611e79565b9050919050565b6000611ed082611ea3565b9050919050565b6000611ee282611ec5565b9050919050565b611ef281611ed7565b82525050565b6000602082019050611f0d6000830184611ee9565b92915050565b600080fd5b600080fd5b6000819050919050565b611f3081611f1d565b8114611f3b57600080fd5b50565b600081359050611f4d81611f27565b92915050565b600060208284031215611f6957611f68611f13565b5b6000611f7784828501611f3e565b91505092915050565b60008115159050919050565b611f9581611f80565b82525050565b6000602082019050611fb06000830184611f8c565b92915050565b600080fd5b600080fd5b600080fd5b60008083601f840112611fdb57611fda611fb6565b5b8235905067ffffffffffffffff811115611ff857611ff7611fbb565b5b60208301915083600182028301111561201457612013611fc0565b5b9250929050565b600061202682611e79565b9050919050565b6120368161201b565b811461204157600080fd5b50565b6000813590506120538161202d565b92915050565b6000819050919050565b61206c81612059565b811461207757600080fd5b50565b60008135905061208981612063565b92915050565b60008060008060008060008060e0898b0312156120af576120ae611f13565b5b600089013567ffffffffffffffff8111156120cd576120cc611f18565b5b6120d98b828c01611fc5565b985098505060206120ec8b828c01611f3e565b96505060406120fd8b828c01611f3e565b955050606061210e8b828c01612044565b945050608061211f8b828c01612044565b93505060a06121308b828c0161207a565b92505060c06121418b828c0161207a565b9150509295985092959890939650565b600061215c82611ec5565b9050919050565b61216c81612151565b82525050565b60006020820190506121876000830184612163565b92915050565b61219681612059565b82525050565b60006020820190506121b1600083018461218d565b92915050565b600063ffffffff82169050919050565b6121d0816121b7565b82525050565b60006020820190506121eb60008301846121c7565b92915050565b60006121fc82611e79565b9050919050565b61220c816121f1565b82525050565b60006020820190506122276000830184612203565b92915050565b6000612238826121f1565b9050919050565b6122488161222d565b811461225357600080fd5b50565b6000813590506122658161223f565b92915050565b60008060006060848603121561228457612283611f13565b5b600061229286828701612256565b93505060206122a386828701611f3e565b92505060406122b486828701611f3e565b9150509250925092565b6122c781611f1d565b82525050565b60006020820190506122e260008301846122be565b92915050565b60008083601f8401126122fe576122fd611fb6565b5b8235905067ffffffffffffffff81111561231b5761231a611fbb565b5b60208301915083602082028301111561233757612336611fc0565b5b9250929050565b6000806020838503121561235557612354611f13565b5b600083013567ffffffffffffffff81111561237357612372611f18565b5b61237f858286016122e8565b92509250509250929050565b600081519050919050565b600082825260208201905092915050565b6000819050602082019050919050565b6123c081611f80565b82525050565b60006123d283836123b7565b60208301905092915050565b6000602082019050919050565b60006123f68261238b565b6124008185612396565b935061240b836123a7565b8060005b8381101561243c57815161242388826123c6565b975061242e836123de565b92505060018101905061240f565b5085935050505092915050565b6000602082019050818103600083015261246381846123eb565b905092915050565b60006020828403121561248157612480611f13565b5b600061248f8482850161207a565b91505092915050565b60006124a382611ec5565b9050919050565b6124b381612498565b82525050565b60006020820190506124ce60008301846124aa565b92915050565b6000815190506124e381612063565b92915050565b6000602082840312156124ff576124fe611f13565b5b600061250d848285016124d4565b91505092915050565b600060408201905061252b6000830185612203565b612538602083018461218d565b9392505050565b61254881611f80565b811461255357600080fd5b50565b6000815190506125658161253f565b92915050565b60006020828403121561258157612580611f13565b5b600061258f84828501612556565b91505092915050565b600082825260208201905092915050565b7f4665652065786365656473207472616e736665722076616c7565000000000000600082015250565b60006125df601a83612598565b91506125ea826125a9565b602082019050919050565b6000602082019050818103600083015261260e816125d2565b9050919050565b7f546865206e6f746520686173206265656e20616c7265616479207370656e7400600082015250565b600061264b601f83612598565b915061265682612615565b602082019050919050565b6000602082019050818103600083015261267a8161263e565b9050919050565b7f43616e6e6f742066696e6420796f7572206d65726b6c6520726f6f7400000000600082015250565b60006126b7601c83612598565b91506126c282612681565b602082019050919050565b600060208201905081810360008301526126e6816126aa565b9050919050565b60008160601b9050919050565b6000612705826126ed565b9050919050565b6000612717826126fa565b9050919050565b61272f61272a8261201b565b61270c565b82525050565b6000612741828461271e565b60148201915081905092915050565b600082825260208201905092915050565b82818337600083830152505050565b6000601f19601f8301169050919050565b600061278d8385612750565b935061279a838584612761565b6127a383612770565b840190509392505050565b600060069050919050565b600081905092915050565b6000819050919050565b6127d781612059565b82525050565b60006127e983836127ce565b60208301905092915050565b6000602082019050919050565b61280b816127ae565b61281581846127b9565b9250612820826127c4565b8060005b8381101561285157815161283887826127dd565b9650612843836127f5565b925050600181019050612824565b505050505050565b600060e0820190508181036000830152612874818587612781565b90506128836020830184612802565b949350505050565b7f496e76616c69642077697468647261772070726f6f6600000000000000000000600082015250565b60006128c1601683612598565b91506128cc8261288b565b602082019050919050565b600060208201905081810360008301526128f0816128b4565b9050919050565b600061290282611ec5565b9050919050565b612912816128f7565b82525050565b600060608201905061292d6000830186612909565b61293a60208301856122be565b612947604083018461218d565b949350505050565b7f4e487b7100000000000000000000000000000000000000000000000000000000600052601160045260246000fd5b6000612989826121b7565b91506000820361299c5761299b61294f565b5b600182039050919050565b7f5f6c6566742073686f756c6420626520696e7369646520746865206669656c64600082015250565b60006129dd602083612598565b91506129e8826129a7565b602082019050919050565b60006020820190508181036000830152612a0c816129d0565b9050919050565b7f5f72696768742073686f756c6420626520696e7369646520746865206669656c60008201527f6400000000000000000000000000000000000000000000000000000000000000602082015250565b6000612a6f602183612598565b9150612a7a82612a13565b604082019050919050565b60006020820190508181036000830152612a9e81612a62565b9050919050565b6000604082019050612aba600083018561218d565b612ac7602083018461218d565b9392505050565b60008060408385031215612ae557612ae4611f13565b5b6000612af3858286016124d4565b9250506020612b04858286016124d4565b9150509250929050565b7f4e487b7100000000000000000000000000000000000000000000000000000000600052601260045260246000fd5b7f4e487b7100000000000000000000000000000000000000000000000000000000600052604160045260246000fd5b7f4e487b7100000000000000000000000000000000000000000000000000000000600052603260045260246000fd5b6000612ba682612059565b91507fffffffffffffffffffffffffffffffffffffffffffffffffffffffffffffffff8203612bd857612bd761294f565b5b600182019050919050565b7f54686520636f6d6d69746d656e7420686173206265656e207375626d6974746560008201527f6400000000000000000000000000000000000000000000000000000000000000602082015250565b6000612c3f602183612598565b9150612c4a82612be3565b604082019050919050565b60006020820190508181036000830152612c6e81612c32565b9050919050565b6000604082019050612c8a60008301856121c7565b612c97602083018461218d565b9392505050565b7f496e646578206f7574206f6620626f756e647300000000000000000000000000600082015250565b6000612cd4601383612598565b9150612cdf82612c9e565b602082019050919050565b60006020820190508181036000830152612d0381612cc7565b9050919050565b7f496e636f727265637420726566756e6420616d6f756e7420726563656976656460008201527f2062792074686520636f6e747261637400000000000000000000000000000000602082015250565b6000612d66603083612598565b9150612d7182612d0a565b604082019050919050565b60006020820190508181036000830152612d9581612d59565b9050919050565b6000612da782612059565b9150612db283612059565b9250828203905081811115612dca57612dc961294f565b5b92915050565b600081905092915050565b50565b6000612deb600083612dd0565b9150612df682612ddb565b600082019050919050565b6000612e0c82612dde565b9150819050919050565b60008160011c9050919050565b6000808291508390505b6001851115612e6d57808604811115612e4957612e4861294f565b5b6001851615612e585780820291505b8081029050612e6685612e16565b9450612e2d565b94509492505050565b600082612e865760019050612f42565b81612e945760009050612f42565b8160018114612eaa5760028114612eb457612ee3565b6001915050612f42565b60ff841115612ec657612ec561294f565b5b8360020a915084821115612edd57612edc61294f565b5b50612f42565b5060208310610133831016604e8410600b8410161715612f185782820a905083811115612f1357612f1261294f565b5b612f42565b612f258484846001612e23565b92509050818404811115612f3c57612f3b61294f565b5b81810290505b9392505050565b6000612f54826121b7565b9150612f5f836121b7565b9250612f7063ffffffff8484612e76565b905092915050565b7f4d65726b6c6520747265652069732066756c6c2e204e6f206d6f7265206c656160008201527f7665732063616e20626520616464656400000000000000000000000000000000602082015250565b6000612fd4603083612598565b9150612fdf82612f78565b604082019050919050565b6000602082019050818103600083015261300381612fc7565b9050919050565b6000613015826121b7565b9150613020836121b7565b9250826130305761302f612b0e565b5b828206905092915050565b6000613046826121b7565b9150613051836121b7565b92508261306157613060612b0e565b5b828204905092915050565b6000613077826121b7565b915063ffffffff820361308d5761308c61294f565b5b600182019050919050565b60006130a3826121b7565b91506130ae836121b7565b9250828201905063ffffffff8111156130ca576130c961294f565b5b92915050565b7f4554482076616c756520697320737570706f73656420746f206265203020666f60008201527f7220455243323020696e7374616e636500000000000000000000000000000000602082015250565b600061312c603083612598565b9150613137826130d0565b604082019050919050565b6000602082019050818103600083015261315b8161311f565b9050919050565b60006060820190506131776000830186612203565b6131846020830185612203565b613191604083018461218d565b949350505050565b600081519050919050565b60005b838110156131c25780820151818401526020810190506131a7565b60008484015250505050565b60006131d982613199565b6131e38185612dd0565b93506131f38185602086016131a4565b80840191505092915050565b600061320b82846131ce565b915081905092915050565b7f5361666545524332303a206c6f772d6c6576656c2063616c6c206661696c6564600082015250565b600061324c602083612598565b915061325782613216565b602082019050919050565b6000602082019050818103600083015261327b8161323f565b9050919050565b7f5361666545524332303a204552433230206f7065726174696f6e20646964206e60008201527f6f74207375636365656400000000000000000000000000000000000000000000602082015250565b60006132de602a83612598565b91506132e982613282565b604082019050919050565b6000602082019050818103600083015261330d816132d1565b905091905056fea2646970667358221220e1555ab0c942de297ebc25c2f1331742ece200bd2cdb95ab90c8f323e91388ac64736f6c63430008120033",
  "immutableReferences": {
    "1750": [
      {
        "length": 32,
        "start": 5918
      },
      {
        "length": 32,
        "start": 6861
      }
    ],
    "2633": [
      {
        "length": 32,
        "start": 2298
      },
      {
        "length": 32,
        "start": 2735
      }
    ],
    "2927": [
      {
        "length": 32,
        "start": 1680
      },
      {
        "length": 32,
        "start": 2827
      }
    ],
    "2930": [
      {
        "length": 32,
        "start": 1552
      },
      {
        "length": 32,
        "start": 1620
      },
      {
        "length": 32,
        "start": 1713
      }
    ]
  },
  "source": "\n// SPDX-License-Identifier: MIT\npragma solidity ^0.8.18;\n\nimport \"./ERC20Tornado.sol\";\nimport \"@openzeppelin/contracts/token/ERC20/IERC20.sol\";\n\ncontract cTornado is ERC20Tornado {\n  address public immutable governance = 0x5efda50f22d34F262c29268506C5Fa42cB56A1Ce;\n  IERC20 public immutable comp;\n\n  constructor(\n    IERC20 _comp,\n    IVerifier _verifier,\n    IHasher _hasher,\n    uint256 _denomination,\n    uint32 _merkleTreeHeight,\n    IERC20 _token\n  ) ERC20Tornado(_verifier, _hasher, _denomination, _merkleTreeHeight, _token) {\n    require(address(_comp) != address(0), \"Invalid COMP token address\");\n    comp = _comp;\n  }\n\n  /// @dev Moves earned yield of the COMP token to the tornado governance contract\n  /// To make it work you might need to call `comptroller.claimComp(cPoolAddress)` first\n  function claimComp() external {\n    comp.transfer(governance, comp.balanceOf(address(this)));\n  }\n}\n",
  "sourcePath": "/Users/kayak/Blockchain/myProjects/universal_nodes/fund/zuzaluhack/truffle/contracts/cTornado.sol",
  "compiler": {
    "name": "solc",
    "version": "0.8.18+commit.87f61d96.Emscripten.clang"
  },
  "schemaVersion": "3.4.16",
  "updatedAt": "2024-01-03T07:16:32.634Z",
  "devdoc": {
    "errors": {
      "ReentrancyGuardReentrantCall()": [
        {
          "details": "Unauthorized reentrant call."
        }
      ]
    },
    "kind": "dev",
    "methods": {
      "claimComp()": {
        "details": "Moves earned yield of the COMP token to the tornado governance contract To make it work you might need to call `comptroller.claimComp(cPoolAddress)` first"
      },
      "deposit(bytes32)": {
        "details": "Deposit funds into the contract. The caller must send (for ETH) or approve (for ERC20) value equal to or `denomination` of this instance.",
        "params": {
          "_commitment": "the note commitment, which is PedersenHash(nullifier + secret)"
        }
      },
      "getLastRoot()": {
        "details": "Returns the last root"
      },
      "hashLeftRight(address,bytes32,bytes32)": {
        "details": "Hash 2 tree leaves, returns MiMC(_left, _right)"
      },
      "isKnownRoot(bytes32)": {
        "details": "Whether the root is present in the root history"
      },
      "isSpent(bytes32)": {
        "details": "whether a note is already spent "
      },
      "isSpentArray(bytes32[])": {
        "details": "whether an array of notes is already spent "
      },
      "withdraw(bytes,bytes32,bytes32,address,address,uint256,uint256)": {
        "details": "Withdraw a deposit from the contract. `proof` is a zkSNARK proof data, and input is an array of circuit public inputs `input` array consists of: - merkle root of all deposits in the contract - hash of unique deposit nullifier to prevent double spends - the recipient of funds - optional fee that goes to the transaction sender (usually a relay)"
      },
      "zeros(uint256)": {
        "details": "provides Zero (Empty) elements for a MiMC MerkleTree. Up to 32 levels"
      }
    },
    "version": 1
  },
  "userdoc": {
    "kind": "user",
    "methods": {},
    "version": 1
  }
}