{
  "contractName": "ERC20Tornado",
  "abi": [
    {
      "inputs": [
        {
          "internalType": "contract IVerifier",
          "name": "_verifier",
          "type": "address"
        },
        {
          "internalType": "contract IHasher",
          "name": "_hasher",
          "type": "address"
        },
        {
          "internalType": "uint256",
          "name": "_denomination",
          "type": "uint256"
        },
        {
          "internalType": "uint32",
          "name": "_merkleTreeHeight",
          "type": "uint32"
        },
        {
          "internalType": "contract IERC20",
          "name": "_token",
          "type": "address"
        }
      ],
      "stateMutability": "nonpayable",
      "type": "constructor"
    },
    {
      "inputs": [],
      "name": "ReentrancyGuardReentrantCall",
      "type": "error"
    },
    {
      "anonymous": false,
      "inputs": [
        {
          "indexed": true,
          "internalType": "bytes32",
          "name": "commitment",
          "type": "bytes32"
        },
        {
          "indexed": false,
          "internalType": "uint32",
          "name": "leafIndex",
          "type": "uint32"
        },
        {
          "indexed": false,
          "internalType": "uint256",
          "name": "timestamp",
          "type": "uint256"
        }
      ],
      "name": "Deposit",
      "type": "event"
    },
    {
      "anonymous": false,
      "inputs": [
        {
          "indexed": false,
          "internalType": "address",
          "name": "to",
          "type": "address"
        },
        {
          "indexed": false,
          "internalType": "bytes32",
          "name": "nullifierHash",
          "type": "bytes32"
        },
        {
          "indexed": true,
          "internalType": "address",
          "name": "relayer",
          "type": "address"
        },
        {
          "indexed": false,
          "internalType": "uint256",
          "name": "fee",
          "type": "uint256"
        }
      ],
      "name": "Withdrawal",
      "type": "event"
    },
    {
      "inputs": [],
      "name": "FIELD_SIZE",
      "outputs": [
        {
          "internalType": "uint256",
          "name": "",
          "type": "uint256"
        }
      ],
      "stateMutability": "view",
      "type": "function",
      "constant": true
    },
    {
      "inputs": [],
      "name": "ROOT_HISTORY_SIZE",
      "outputs": [
        {
          "internalType": "uint32",
          "name": "",
          "type": "uint32"
        }
      ],
      "stateMutability": "view",
      "type": "function",
      "constant": true
    },
    {
      "inputs": [],
      "name": "ZERO_VALUE",
      "outputs": [
        {
          "internalType": "uint256",
          "name": "",
          "type": "uint256"
        }
      ],
      "stateMutability": "view",
      "type": "function",
      "constant": true
    },
    {
      "inputs": [
        {
          "internalType": "bytes32",
          "name": "",
          "type": "bytes32"
        }
      ],
      "name": "commitments",
      "outputs": [
        {
          "internalType": "bool",
          "name": "",
          "type": "bool"
        }
      ],
      "stateMutability": "view",
      "type": "function",
      "constant": true
    },
    {
      "inputs": [],
      "name": "currentRootIndex",
      "outputs": [
        {
          "internalType": "uint32",
          "name": "",
          "type": "uint32"
        }
      ],
      "stateMutability": "view",
      "type": "function",
      "constant": true
    },
    {
      "inputs": [],
      "name": "denomination",
      "outputs": [
        {
          "internalType": "uint256",
          "name": "",
          "type": "uint256"
        }
      ],
      "stateMutability": "view",
      "type": "function",
      "constant": true
    },
    {
      "inputs": [
        {
          "internalType": "bytes32",
          "name": "_commitment",
          "type": "bytes32"
        }
      ],
      "name": "deposit",
      "outputs": [],
      "stateMutability": "payable",
      "type": "function",
      "payable": true
    },
    {
      "inputs": [
        {
          "internalType": "uint256",
          "name": "",
          "type": "uint256"
        }
      ],
      "name": "filledSubtrees",
      "outputs": [
        {
          "internalType": "bytes32",
          "name": "",
          "type": "bytes32"
        }
      ],
      "stateMutability": "view",
      "type": "function",
      "constant": true
    },
    {
      "inputs": [],
      "name": "getLastRoot",
      "outputs": [
        {
          "internalType": "bytes32",
          "name": "",
          "type": "bytes32"
        }
      ],
      "stateMutability": "view",
      "type": "function",
      "constant": true
    },
    {
      "inputs": [
        {
          "internalType": "contract IHasher",
          "name": "_hasher",
          "type": "address"
        },
        {
          "internalType": "bytes32",
          "name": "_left",
          "type": "bytes32"
        },
        {
          "internalType": "bytes32",
          "name": "_right",
          "type": "bytes32"
        }
      ],
      "name": "hashLeftRight",
      "outputs": [
        {
          "internalType": "bytes32",
          "name": "",
          "type": "bytes32"
        }
      ],
      "stateMutability": "pure",
      "type": "function",
      "constant": true
    },
    {
      "inputs": [],
      "name": "hasher",
      "outputs": [
        {
          "internalType": "contract IHasher",
          "name": "",
          "type": "address"
        }
      ],
      "stateMutability": "view",
      "type": "function",
      "constant": true
    },
    {
      "inputs": [
        {
          "internalType": "bytes32",
          "name": "_root",
          "type": "bytes32"
        }
      ],
      "name": "isKnownRoot",
      "outputs": [
        {
          "internalType": "bool",
          "name": "",
          "type": "bool"
        }
      ],
      "stateMutability": "view",
      "type": "function",
      "constant": true
    },
    {
      "inputs": [
        {
          "internalType": "bytes32",
          "name": "_nullifierHash",
          "type": "bytes32"
        }
      ],
      "name": "isSpent",
      "outputs": [
        {
          "internalType": "bool",
          "name": "",
          "type": "bool"
        }
      ],
      "stateMutability": "view",
      "type": "function",
      "constant": true
    },
    {
      "inputs": [
        {
          "internalType": "bytes32[]",
          "name": "_nullifierHashes",
          "type": "bytes32[]"
        }
      ],
      "name": "isSpentArray",
      "outputs": [
        {
          "internalType": "bool[]",
          "name": "spent",
          "type": "bool[]"
        }
      ],
      "stateMutability": "view",
      "type": "function",
      "constant": true
    },
    {
      "inputs": [],
      "name": "levels",
      "outputs": [
        {
          "internalType": "uint32",
          "name": "",
          "type": "uint32"
        }
      ],
      "stateMutability": "view",
      "type": "function",
      "constant": true
    },
    {
      "inputs": [],
      "name": "nextIndex",
      "outputs": [
        {
          "internalType": "uint32",
          "name": "",
          "type": "uint32"
        }
      ],
      "stateMutability": "view",
      "type": "function",
      "constant": true
    },
    {
      "inputs": [
        {
          "internalType": "bytes32",
          "name": "",
          "type": "bytes32"
        }
      ],
      "name": "nullifierHashes",
      "outputs": [
        {
          "internalType": "bool",
          "name": "",
          "type": "bool"
        }
      ],
      "stateMutability": "view",
      "type": "function",
      "constant": true
    },
    {
      "inputs": [
        {
          "internalType": "uint256",
          "name": "",
          "type": "uint256"
        }
      ],
      "name": "roots",
      "outputs": [
        {
          "internalType": "bytes32",
          "name": "",
          "type": "bytes32"
        }
      ],
      "stateMutability": "view",
      "type": "function",
      "constant": true
    },
    {
      "inputs": [],
      "name": "token",
      "outputs": [
        {
          "internalType": "contract IERC20",
          "name": "",
          "type": "address"
        }
      ],
      "stateMutability": "view",
      "type": "function",
      "constant": true
    },
    {
      "inputs": [],
      "name": "verifier",
      "outputs": [
        {
          "internalType": "contract IVerifier",
          "name": "",
          "type": "address"
        }
      ],
      "stateMutability": "view",
      "type": "function",
      "constant": true
    },
    {
      "inputs": [
        {
          "internalType": "bytes",
          "name": "_proof",
          "type": "bytes"
        },
        {
          "internalType": "bytes32",
          "name": "_root",
          "type": "bytes32"
        },
        {
          "internalType": "bytes32",
          "name": "_nullifierHash",
          "type": "bytes32"
        },
        {
          "internalType": "address payable",
          "name": "_recipient",
          "type": "address"
        },
        {
          "internalType": "address payable",
          "name": "_relayer",
          "type": "address"
        },
        {
          "internalType": "uint256",
          "name": "_fee",
          "type": "uint256"
        },
        {
          "internalType": "uint256",
          "name": "_refund",
          "type": "uint256"
        }
      ],
      "name": "withdraw",
      "outputs": [],
      "stateMutability": "payable",
      "type": "function",
      "payable": true
    },
    {
      "inputs": [
        {
          "internalType": "uint256",
          "name": "i",
          "type": "uint256"
        }
      ],
      "name": "zeros",
      "outputs": [
        {
          "internalType": "bytes32",
          "name": "",
          "type": "bytes32"
        }
      ],
      "stateMutability": "pure",
      "type": "function",
      "constant": true
    }
  ],
  "bytecode": "0x60c06040526000600360006101000a81548163ffffffff021916908363ffffffff1602179055506000600360046101000a81548163ffffffff021916908363ffffffff1602179055503480156200005557600080fd5b5060405162003f8e38038062003f8e83398181016040528101906200007b919062000b4c565b84848484808360008263ffffffff1611620000cd576040517f08c379a0000000000000000000000000000000000000000000000000000000008152600401620000c49062000c5b565b60405180910390fd5b60208263ffffffff161062000119576040517f08c379a0000000000000000000000000000000000000000000000000000000008152600401620001109062000ccd565b60405180910390fd5b816000806101000a81548163ffffffff021916908363ffffffff1602179055508073ffffffffffffffffffffffffffffffffffffffff1660808173ffffffffffffffffffffffffffffffffffffffff168152505060005b8263ffffffff168163ffffffff161015620001cf576200019c8163ffffffff16620002e760201b60201c565b600160008363ffffffff168152602001908152602001600020819055508080620001c69062000d1e565b91505062000170565b50620001f5600183620001e3919062000d4f565b63ffffffff16620002e760201b60201c565b600260008081526020019081526020016000208190555050506001600481905550600082116200025c576040517f08c379a0000000000000000000000000000000000000000000000000000000008152600401620002539062000e04565b60405180910390fd5b8373ffffffffffffffffffffffffffffffffffffffff1660a08173ffffffffffffffffffffffffffffffffffffffff1681525050816005819055505050505080600860006101000a81548173ffffffffffffffffffffffffffffffffffffffff021916908373ffffffffffffffffffffffffffffffffffffffff160217905550505050505062000e98565b60008082036200031d577f2fe54c60d3acabf3343a35b6eba15db4821b340f76e741e2249685ed4899af6c60001b9050620009c3565b6001820362000352577f256a6135777eee2fd26f54b8b7037a25439d5235caee224154186d2b8a52e31d60001b9050620009c3565b6002820362000387577f1151949895e82ab19924de92c40a3d6f7bcb60d92b00504b8199613683f0c20060001b9050620009c3565b60038203620003bc577f20121ee811489ff8d61f09fb89e313f14959a0f28bb428a20dba6b0b068b3bdb60001b9050620009c3565b60048203620003f1577f0a89ca6ffa14cc462cfedb842c30ed221a50a3d6bf022a6a57dc82ab24c157c960001b9050620009c3565b6005820362000426577f24ca05c2b5cd42e890d6be94c68d0689f4f21c9cec9c0f13fe41d566dfb5495960001b9050620009c3565b600682036200045b577f1ccb97c932565a92c60156bdba2d08f3bf1377464e025cee765679e604a7315c60001b9050620009c3565b6007820362000490577f19156fbd7d1a8bf5cba8909367de1b624534ebab4f0f79e003bccdd1b182bdb460001b9050620009c3565b60088203620004c5577f261af8c1f0912e465744641409f622d466c3920ac6e5ff37e36604cb11dfff8060001b9050620009c3565b60098203620004f9577e58459724ff6ca5a1652fcbc3e82b93895cf08e975b19beab3f54c217d1c00760001b9050620009c3565b600a82036200052e577f1f04ef20dee48d39984d8eabe768a70eafa6310ad20849d4573c3c40c2ad1e3060001b9050620009c3565b600b820362000563577f1bea3dec5dab51567ce7e200a30f7ba6d4276aeaa53e2686f962a46c66d511e560001b9050620009c3565b600c820362000598577f0ee0f941e2da4b9e31c3ca97a40d8fa9ce68d97c084177071b3cb46cd3372f0f60001b9050620009c3565b600d8203620005cd577f1ca9503e8935884501bbaf20be14eb4c46b89772c97b96e3b2ebf3a36a948bbd60001b9050620009c3565b600e820362000602577f133a80e30697cd55d8f7d4b0965b7be24057ba5dc3da898ee2187232446cb10860001b9050620009c3565b600f820362000637577f13e6d8fc88839ed76e182c2a779af5b2c0da9dd18c90427a644f7e148a6253b660001b9050620009c3565b601082036200066c577f1eb16b057a477f4bc8f572ea6bee39561098f78f15bfb3699dcbb7bd8db6185460001b9050620009c3565b60118203620006a1577f0da2cb16a1ceaabf1c16b838f7a9e3f2a3a3088d9e0a6debaa748114620696ea60001b9050620009c3565b60128203620006d6577f24a3b3d822420b14b5d8cb6c28a574f01e98ea9e940551d2ebd75cee12649f9d60001b9050620009c3565b601382036200070b577f198622acbd783d1b0d9064105b1fc8e4d8889de95c4c519b3f635809fe6afc0560001b9050620009c3565b6014820362000740577f29d7ed391256ccc3ea596c86e933b89ff339d25ea8ddced975ae2fe30b5296d460001b9050620009c3565b6015820362000775577f19be59f2f0413ce78c0c3703a3a5451b1d7f39629fa33abd11548a76065b296760001b9050620009c3565b60168203620007aa577f1ff3f61797e538b70e619310d33f2a063e7eb59104e112e95738da1254dc345360001b9050620009c3565b60178203620007df577f10c16ae9959cf8358980d9dd9616e48228737310a10e2b6b731c1a548f036c4860001b9050620009c3565b6018820362000814577f0ba433a63174a90ac20992e75e3095496812b652685b5e1a2eae0b1bf4e8fcd160001b9050620009c3565b6019820362000849577f019ddb9df2bc98d987d0dfeca9d2b643deafab8f7036562e627c3667266a044c60001b9050620009c3565b601a82036200087e577f2d3c88b23175c5a5565db928414c66d1912b11acf974b2e644caaac04739ce9960001b9050620009c3565b601b8203620008b3577f2eab55f6ae4e66e32c5189eed5c470840863445760f5ed7e7b69b2a62600f35460001b9050620009c3565b601c8203620008e7577e2df37a2642621802383cf952bf4dd1f32e05433beeb1fd41031fb7eace979d60001b9050620009c3565b601d82036200091c577f104aeb41435db66c3e62feccc1d6f5d98d0a0ed75d1374db457cf462e3a1f42760001b9050620009c3565b601e820362000951577f1f3c6fd858e9a7d4b0d1f38e256a09d81d5a5e3c963987e2d4b814cfab7c6ebb60001b9050620009c3565b601f820362000986577f2c7a07d20dff79d01fecedc1134284a8d08436606c93693b67e333f671bf69cc60001b9050620009c3565b6040517f08c379a0000000000000000000000000000000000000000000000000000000008152600401620009ba9062000e76565b60405180910390fd5b919050565b600080fd5b600073ffffffffffffffffffffffffffffffffffffffff82169050919050565b6000620009fa82620009cd565b9050919050565b600062000a0e82620009ed565b9050919050565b62000a208162000a01565b811462000a2c57600080fd5b50565b60008151905062000a408162000a15565b92915050565b600062000a5382620009ed565b9050919050565b62000a658162000a46565b811462000a7157600080fd5b50565b60008151905062000a858162000a5a565b92915050565b6000819050919050565b62000aa08162000a8b565b811462000aac57600080fd5b50565b60008151905062000ac08162000a95565b92915050565b600063ffffffff82169050919050565b62000ae18162000ac6565b811462000aed57600080fd5b50565b60008151905062000b018162000ad6565b92915050565b600062000b1482620009ed565b9050919050565b62000b268162000b07565b811462000b3257600080fd5b50565b60008151905062000b468162000b1b565b92915050565b600080600080600060a0868803121562000b6b5762000b6a620009c8565b5b600062000b7b8882890162000a2f565b955050602062000b8e8882890162000a74565b945050604062000ba18882890162000aaf565b935050606062000bb48882890162000af0565b925050608062000bc78882890162000b35565b9150509295509295909350565b600082825260208201905092915050565b7f5f6c6576656c732073686f756c642062652067726561746572207468616e207a60008201527f65726f0000000000000000000000000000000000000000000000000000000000602082015250565b600062000c4360238362000bd4565b915062000c508262000be5565b604082019050919050565b6000602082019050818103600083015262000c768162000c34565b9050919050565b7f5f6c6576656c732073686f756c64206265206c657373207468616e2033320000600082015250565b600062000cb5601e8362000bd4565b915062000cc28262000c7d565b602082019050919050565b6000602082019050818103600083015262000ce88162000ca6565b9050919050565b7f4e487b7100000000000000000000000000000000000000000000000000000000600052601160045260246000fd5b600062000d2b8262000ac6565b915063ffffffff820362000d445762000d4362000cef565b5b600182019050919050565b600062000d5c8262000ac6565b915062000d698362000ac6565b9250828203905063ffffffff81111562000d885762000d8762000cef565b5b92915050565b7f64656e6f6d696e6174696f6e2073686f756c642062652067726561746572207460008201527f68616e2030000000000000000000000000000000000000000000000000000000602082015250565b600062000dec60258362000bd4565b915062000df98262000d8e565b604082019050919050565b6000602082019050818103600083015262000e1f8162000ddd565b9050919050565b7f496e646578206f7574206f6620626f756e647300000000000000000000000000600082015250565b600062000e5e60138362000bd4565b915062000e6b8262000e26565b602082019050919050565b6000602082019050818103600083015262000e918162000e4f565b9050919050565b60805160a0516130c262000ecc600039600081816106de01526108930152600081816114de015261188d01526130c26000f3fe6080604052600436106101355760003560e01c8063b214faa5116100ab578063e82955881161006f578063e82955881461044a578063ec73295914610487578063ed33639f146104b2578063f178e47c146104dd578063fc0c546a1461051a578063fc7e9c6f1461054557610135565b8063b214faa51461035e578063ba70f7571461037a578063c2b40ae4146103a5578063cd87a3b4146103e2578063e5285dcc1461040d57610135565b80636d9833e3116100fd5780636d9833e314610214578063839df945146102515780638bca6d161461028e5780638ea3099e146102b957806390eeb02b146102f65780639fa12d0b1461032157610135565b806317cc915c1461013a57806321a0adb6146101775780632b7ac3f314610193578063414a37ba146101be5780634ecf518b146101e9575b600080fd5b34801561014657600080fd5b50610161600480360381019061015c9190611c79565b610570565b60405161016e9190611cc1565b60405180910390f35b610191600480360381019061018c9190611dd5565b610590565b005b34801561019f57600080fd5b506101a8610891565b6040516101b59190611ef6565b60405180910390f35b3480156101ca57600080fd5b506101d36108b5565b6040516101e09190611f20565b60405180910390f35b3480156101f557600080fd5b506101fe6108d9565b60405161020b9190611f5a565b60405180910390f35b34801561022057600080fd5b5061023b60048036038101906102369190611c79565b6108ed565b6040516102489190611cc1565b60405180910390f35b34801561025d57600080fd5b5061027860048036038101906102739190611c79565b61098a565b6040516102859190611cc1565b60405180910390f35b34801561029a57600080fd5b506102a36109aa565b6040516102b09190611f20565b60405180910390f35b3480156102c557600080fd5b506102e060048036038101906102db9190611fc5565b6109b0565b6040516102ed9190612027565b60405180910390f35b34801561030257600080fd5b5061030b610bd2565b6040516103189190611f5a565b60405180910390f35b34801561032d57600080fd5b5061034860048036038101906103439190612098565b610be8565b60405161035591906121a3565b60405180910390f35b61037860048036038101906103739190611c79565b610caf565b005b34801561038657600080fd5b5061038f610d9f565b60405161039c9190612027565b60405180910390f35b3480156103b157600080fd5b506103cc60048036038101906103c791906121c5565b610dd2565b6040516103d99190612027565b60405180910390f35b3480156103ee57600080fd5b506103f7610dea565b6040516104049190611f5a565b60405180910390f35b34801561041957600080fd5b50610434600480360381019061042f9190611c79565b610def565b6040516104419190611cc1565b60405180910390f35b34801561045657600080fd5b50610471600480360381019061046c91906121c5565b610e19565b60405161047e9190612027565b60405180910390f35b34801561049357600080fd5b5061049c6114b8565b6040516104a99190611f20565b60405180910390f35b3480156104be57600080fd5b506104c76114dc565b6040516104d49190612213565b60405180910390f35b3480156104e957600080fd5b5061050460048036038101906104ff91906121c5565b611500565b6040516105119190612027565b60405180910390f35b34801561052657600080fd5b5061052f611518565b60405161053c919061224f565b60405180910390f35b34801561055157600080fd5b5061055a61153e565b6040516105679190611f5a565b60405180910390f35b60066020528060005260406000206000915054906101000a900460ff1681565b610598611554565b6005548211156105dd576040517f08c379a00000000000000000000000000000000000000000000000000000000081526004016105d4906122c7565b60405180910390fd5b6006600086815260200190815260200160002060009054906101000a900460ff161561063e576040517f08c379a000000000000000000000000000000000000000000000000000000000815260040161063590612333565b60405180910390fd5b610647866108ed565b610686576040517f08c379a000000000000000000000000000000000000000000000000000000000815260040161067d9061239f565b60405180910390fd5b6000846040516020016106999190612407565b6040516020818303038152906040528051906020012090506000846040516020016106c49190612407565b6040516020818303038152906040528051906020012090507f000000000000000000000000000000000000000000000000000000000000000073ffffffffffffffffffffffffffffffffffffffff1663695ef6f98b8b6040518060c001604052808d60001c81526020018c60001c81526020018760001c81526020018660001c8152602001898152602001888152506040518463ffffffff1660e01b81526004016107719392919061252b565b6020604051808303816000875af1158015610790573d6000803e3d6000fd5b505050506040513d601f19601f820116820180604052508101906107b49190612589565b6107f3576040517f08c379a00000000000000000000000000000000000000000000000000000000081526004016107ea90612602565b60405180910390fd5b60016006600089815260200190815260200160002060006101000a81548160ff02191690831515021790555061082b8686868661159a565b8473ffffffffffffffffffffffffffffffffffffffff167fe9e508bad6d4c3227e881ca19068f099da81b5164dd6d62b2eaf1e8bc6c3493187898760405161087593929190612643565b60405180910390a25050610887611757565b5050505050505050565b7f000000000000000000000000000000000000000000000000000000000000000081565b7f30644e72e131a029b85045b68181585d2833e84879b9709143e1f593f000000181565b60008054906101000a900463ffffffff1681565b60008060001b82036109025760009050610985565b6000600360009054906101000a900463ffffffff16905060008190505b600260008263ffffffff16815260200190815260200160002054840361094a57600192505050610985565b60008163ffffffff160361095d57601e90505b8080610968906126a9565b9150508163ffffffff168163ffffffff160361091f576000925050505b919050565b60076020528060005260406000206000915054906101000a900460ff1681565b60055481565b60007f30644e72e131a029b85045b68181585d2833e84879b9709143e1f593f00000018360001c10610a17576040517f08c379a0000000000000000000000000000000000000000000000000000000008152600401610a0e9061271e565b60405180910390fd5b7f30644e72e131a029b85045b68181585d2833e84879b9709143e1f593f00000018260001c10610a7c576040517f08c379a0000000000000000000000000000000000000000000000000000000008152600401610a73906127b0565b60405180910390fd5b60008360001c905060008573ffffffffffffffffffffffffffffffffffffffff1663f47d33b583836040518363ffffffff1660e01b8152600401610ac19291906127d0565b6040805180830381865afa158015610add573d6000803e3d6000fd5b505050506040513d601f19601f82011682018060405250810190610b01919061280e565b80925081935050507f30644e72e131a029b85045b68181585d2833e84879b9709143e1f593f000000180610b3857610b3761284e565b5b8460001c830891508573ffffffffffffffffffffffffffffffffffffffff1663f47d33b583836040518363ffffffff1660e01b8152600401610b7b9291906127d0565b6040805180830381865afa158015610b97573d6000803e3d6000fd5b505050506040513d601f19601f82011682018060405250810190610bbb919061280e565b80925081935050508160001b925050509392505050565b600360009054906101000a900463ffffffff1681565b60608282905067ffffffffffffffff811115610c0757610c0661287d565b5b604051908082528060200260200182016040528015610c355781602001602082028036833780820191505090505b50905060005b83839050811015610ca857610c68848483818110610c5c57610c5b6128ac565b5b90506020020135610def565b15610c95576001828281518110610c8257610c816128ac565b5b6020026020010190151590811515815250505b8080610ca0906128db565b915050610c3b565b5092915050565b610cb7611554565b6007600082815260200190815260200160002060009054906101000a900460ff1615610d18576040517f08c379a0000000000000000000000000000000000000000000000000000000008152600401610d0f90612995565b60405180910390fd5b6000610d2382611761565b905060016007600084815260200190815260200160002060006101000a81548160ff021916908315150217905550610d59611981565b817fa945e51eec50ab98c161376f0db4cf2aeba3ec92755fe2fcd388bdbbb80ff1968242604051610d8b9291906129b5565b60405180910390a250610d9c611757565b50565b600060026000600360009054906101000a900463ffffffff1663ffffffff16815260200190815260200160002054905090565b60026020528060005260406000206000915090505481565b601e81565b60006006600083815260200190815260200160002060009054906101000a900460ff169050919050565b6000808203610e4d577f2fe54c60d3acabf3343a35b6eba15db4821b340f76e741e2249685ed4899af6c60001b90506114b3565b60018203610e80577f256a6135777eee2fd26f54b8b7037a25439d5235caee224154186d2b8a52e31d60001b90506114b3565b60028203610eb3577f1151949895e82ab19924de92c40a3d6f7bcb60d92b00504b8199613683f0c20060001b90506114b3565b60038203610ee6577f20121ee811489ff8d61f09fb89e313f14959a0f28bb428a20dba6b0b068b3bdb60001b90506114b3565b60048203610f19577f0a89ca6ffa14cc462cfedb842c30ed221a50a3d6bf022a6a57dc82ab24c157c960001b90506114b3565b60058203610f4c577f24ca05c2b5cd42e890d6be94c68d0689f4f21c9cec9c0f13fe41d566dfb5495960001b90506114b3565b60068203610f7f577f1ccb97c932565a92c60156bdba2d08f3bf1377464e025cee765679e604a7315c60001b90506114b3565b60078203610fb2577f19156fbd7d1a8bf5cba8909367de1b624534ebab4f0f79e003bccdd1b182bdb460001b90506114b3565b60088203610fe5577f261af8c1f0912e465744641409f622d466c3920ac6e5ff37e36604cb11dfff8060001b90506114b3565b60098203611017577e58459724ff6ca5a1652fcbc3e82b93895cf08e975b19beab3f54c217d1c00760001b90506114b3565b600a820361104a577f1f04ef20dee48d39984d8eabe768a70eafa6310ad20849d4573c3c40c2ad1e3060001b90506114b3565b600b820361107d577f1bea3dec5dab51567ce7e200a30f7ba6d4276aeaa53e2686f962a46c66d511e560001b90506114b3565b600c82036110b0577f0ee0f941e2da4b9e31c3ca97a40d8fa9ce68d97c084177071b3cb46cd3372f0f60001b90506114b3565b600d82036110e3577f1ca9503e8935884501bbaf20be14eb4c46b89772c97b96e3b2ebf3a36a948bbd60001b90506114b3565b600e8203611116577f133a80e30697cd55d8f7d4b0965b7be24057ba5dc3da898ee2187232446cb10860001b90506114b3565b600f8203611149577f13e6d8fc88839ed76e182c2a779af5b2c0da9dd18c90427a644f7e148a6253b660001b90506114b3565b6010820361117c577f1eb16b057a477f4bc8f572ea6bee39561098f78f15bfb3699dcbb7bd8db6185460001b90506114b3565b601182036111af577f0da2cb16a1ceaabf1c16b838f7a9e3f2a3a3088d9e0a6debaa748114620696ea60001b90506114b3565b601282036111e2577f24a3b3d822420b14b5d8cb6c28a574f01e98ea9e940551d2ebd75cee12649f9d60001b90506114b3565b60138203611215577f198622acbd783d1b0d9064105b1fc8e4d8889de95c4c519b3f635809fe6afc0560001b90506114b3565b60148203611248577f29d7ed391256ccc3ea596c86e933b89ff339d25ea8ddced975ae2fe30b5296d460001b90506114b3565b6015820361127b577f19be59f2f0413ce78c0c3703a3a5451b1d7f39629fa33abd11548a76065b296760001b90506114b3565b601682036112ae577f1ff3f61797e538b70e619310d33f2a063e7eb59104e112e95738da1254dc345360001b90506114b3565b601782036112e1577f10c16ae9959cf8358980d9dd9616e48228737310a10e2b6b731c1a548f036c4860001b90506114b3565b60188203611314577f0ba433a63174a90ac20992e75e3095496812b652685b5e1a2eae0b1bf4e8fcd160001b90506114b3565b60198203611347577f019ddb9df2bc98d987d0dfeca9d2b643deafab8f7036562e627c3667266a044c60001b90506114b3565b601a820361137a577f2d3c88b23175c5a5565db928414c66d1912b11acf974b2e644caaac04739ce9960001b90506114b3565b601b82036113ad577f2eab55f6ae4e66e32c5189eed5c470840863445760f5ed7e7b69b2a62600f35460001b90506114b3565b601c82036113df577e2df37a2642621802383cf952bf4dd1f32e05433beeb1fd41031fb7eace979d60001b90506114b3565b601d8203611412577f104aeb41435db66c3e62feccc1d6f5d98d0a0ed75d1374db457cf462e3a1f42760001b90506114b3565b601e8203611445577f1f3c6fd858e9a7d4b0d1f38e256a09d81d5a5e3c963987e2d4b814cfab7c6ebb60001b90506114b3565b601f8203611478577f2c7a07d20dff79d01fecedc1134284a8d08436606c93693b67e333f671bf69cc60001b90506114b3565b6040517f08c379a00000000000000000000000000000000000000000000000000000000081526004016114aa90612a2a565b60405180910390fd5b919050565b7f2fe54c60d3acabf3343a35b6eba15db4821b340f76e741e2249685ed4899af6c81565b7f000000000000000000000000000000000000000000000000000000000000000081565b60016020528060005260406000206000915090505481565b600860009054906101000a900473ffffffffffffffffffffffffffffffffffffffff1681565b600360049054906101000a900463ffffffff1681565b600260045403611590576040517f3ee5aeb500000000000000000000000000000000000000000000000000000000815260040160405180910390fd5b6002600481905550565b8034146115dc576040517f08c379a00000000000000000000000000000000000000000000000000000000081526004016115d390612abc565b60405180910390fd5b61163684836005546115ee9190612adc565b600860009054906101000a900473ffffffffffffffffffffffffffffffffffffffff1673ffffffffffffffffffffffffffffffffffffffff16611a179092919063ffffffff16565b600082111561168d5761168c8383600860009054906101000a900473ffffffffffffffffffffffffffffffffffffffff1673ffffffffffffffffffffffffffffffffffffffff16611a179092919063ffffffff16565b5b60008111156117515760008473ffffffffffffffffffffffffffffffffffffffff16826040516116bc90612b41565b60006040518083038185875af1925050503d80600081146116f9576040519150601f19603f3d011682016040523d82523d6000602084013e6116fe565b606091505b505090508061174f578373ffffffffffffffffffffffffffffffffffffffff166108fc839081150290604051600060405180830381858888f1935050505015801561174d573d6000803e3d6000fd5b505b505b50505050565b6001600481905550565b600080600360049054906101000a900463ffffffff16905060008054906101000a900463ffffffff1660026117969190612c89565b63ffffffff168163ffffffff16036117e3576040517f08c379a00000000000000000000000000000000000000000000000000000000081526004016117da90612d2a565b60405180910390fd5b6000819050600084905060008060005b60008054906101000a900463ffffffff1663ffffffff168163ffffffff1610156118d75760006002866118269190612d4a565b63ffffffff1603611868578392506118438163ffffffff16610e19565b915083600160008363ffffffff16815260200190815260200160002081905550611888565b600160008263ffffffff1681526020019081526020016000205492508391505b6118b37f000000000000000000000000000000000000000000000000000000000000000084846109b0565b93506002856118c29190612d7b565b945080806118cf90612dac565b9150506117f3565b506000601e6001600360009054906101000a900463ffffffff166118fb9190612dd8565b6119059190612d4a565b905080600360006101000a81548163ffffffff021916908363ffffffff16021790555083600260008363ffffffff168152602001908152602001600020819055506001866119539190612dd8565b600360046101000a81548163ffffffff021916908363ffffffff160217905550859650505050505050919050565b600034146119c4576040517f08c379a00000000000000000000000000000000000000000000000000000000081526004016119bb90612e82565b60405180910390fd5b611a153330600554600860009054906101000a900473ffffffffffffffffffffffffffffffffffffffff1673ffffffffffffffffffffffffffffffffffffffff16611a9d909392919063ffffffff16565b565b611a988363a9059cbb60e01b8484604051602401611a36929190612eb1565b604051602081830303815290604052907bffffffffffffffffffffffffffffffffffffffffffffffffffffffff19166020820180517bffffffffffffffffffffffffffffffffffffffffffffffffffffffff8381831617835250505050611b26565b505050565b611b20846323b872dd60e01b858585604051602401611abe93929190612eda565b604051602081830303815290604052907bffffffffffffffffffffffffffffffffffffffffffffffffffffffff19166020820180517bffffffffffffffffffffffffffffffffffffffffffffffffffffffff8381831617835250505050611b26565b50505050565b6000808373ffffffffffffffffffffffffffffffffffffffff1683604051611b4e9190612f77565b6000604051808303816000865af19150503d8060008114611b8b576040519150601f19603f3d011682016040523d82523d6000602084013e611b90565b606091505b509150915081611bd5576040517f08c379a0000000000000000000000000000000000000000000000000000000008152600401611bcc90612fda565b60405180910390fd5b600081511115611c335780806020019051810190611bf39190612589565b611c32576040517f08c379a0000000000000000000000000000000000000000000000000000000008152600401611c299061306c565b60405180910390fd5b5b50505050565b600080fd5b600080fd5b6000819050919050565b611c5681611c43565b8114611c6157600080fd5b50565b600081359050611c7381611c4d565b92915050565b600060208284031215611c8f57611c8e611c39565b5b6000611c9d84828501611c64565b91505092915050565b60008115159050919050565b611cbb81611ca6565b82525050565b6000602082019050611cd66000830184611cb2565b92915050565b600080fd5b600080fd5b600080fd5b60008083601f840112611d0157611d00611cdc565b5b8235905067ffffffffffffffff811115611d1e57611d1d611ce1565b5b602083019150836001820283011115611d3a57611d39611ce6565b5b9250929050565b600073ffffffffffffffffffffffffffffffffffffffff82169050919050565b6000611d6c82611d41565b9050919050565b611d7c81611d61565b8114611d8757600080fd5b50565b600081359050611d9981611d73565b92915050565b6000819050919050565b611db281611d9f565b8114611dbd57600080fd5b50565b600081359050611dcf81611da9565b92915050565b60008060008060008060008060e0898b031215611df557611df4611c39565b5b600089013567ffffffffffffffff811115611e1357611e12611c3e565b5b611e1f8b828c01611ceb565b98509850506020611e328b828c01611c64565b9650506040611e438b828c01611c64565b9550506060611e548b828c01611d8a565b9450506080611e658b828c01611d8a565b93505060a0611e768b828c01611dc0565b92505060c0611e878b828c01611dc0565b9150509295985092959890939650565b6000819050919050565b6000611ebc611eb7611eb284611d41565b611e97565b611d41565b9050919050565b6000611ece82611ea1565b9050919050565b6000611ee082611ec3565b9050919050565b611ef081611ed5565b82525050565b6000602082019050611f0b6000830184611ee7565b92915050565b611f1a81611d9f565b82525050565b6000602082019050611f356000830184611f11565b92915050565b600063ffffffff82169050919050565b611f5481611f3b565b82525050565b6000602082019050611f6f6000830184611f4b565b92915050565b6000611f8082611d41565b9050919050565b6000611f9282611f75565b9050919050565b611fa281611f87565b8114611fad57600080fd5b50565b600081359050611fbf81611f99565b92915050565b600080600060608486031215611fde57611fdd611c39565b5b6000611fec86828701611fb0565b9350506020611ffd86828701611c64565b925050604061200e86828701611c64565b9150509250925092565b61202181611c43565b82525050565b600060208201905061203c6000830184612018565b92915050565b60008083601f84011261205857612057611cdc565b5b8235905067ffffffffffffffff81111561207557612074611ce1565b5b60208301915083602082028301111561209157612090611ce6565b5b9250929050565b600080602083850312156120af576120ae611c39565b5b600083013567ffffffffffffffff8111156120cd576120cc611c3e565b5b6120d985828601612042565b92509250509250929050565b600081519050919050565b600082825260208201905092915050565b6000819050602082019050919050565b61211a81611ca6565b82525050565b600061212c8383612111565b60208301905092915050565b6000602082019050919050565b6000612150826120e5565b61215a81856120f0565b935061216583612101565b8060005b8381101561219657815161217d8882612120565b975061218883612138565b925050600181019050612169565b5085935050505092915050565b600060208201905081810360008301526121bd8184612145565b905092915050565b6000602082840312156121db576121da611c39565b5b60006121e984828501611dc0565b91505092915050565b60006121fd82611ec3565b9050919050565b61220d816121f2565b82525050565b60006020820190506122286000830184612204565b92915050565b600061223982611ec3565b9050919050565b6122498161222e565b82525050565b60006020820190506122646000830184612240565b92915050565b600082825260208201905092915050565b7f4665652065786365656473207472616e736665722076616c7565000000000000600082015250565b60006122b1601a8361226a565b91506122bc8261227b565b602082019050919050565b600060208201905081810360008301526122e0816122a4565b9050919050565b7f546865206e6f746520686173206265656e20616c7265616479207370656e7400600082015250565b600061231d601f8361226a565b9150612328826122e7565b602082019050919050565b6000602082019050818103600083015261234c81612310565b9050919050565b7f43616e6e6f742066696e6420796f7572206d65726b6c6520726f6f7400000000600082015250565b6000612389601c8361226a565b915061239482612353565b602082019050919050565b600060208201905081810360008301526123b88161237c565b9050919050565b60008160601b9050919050565b60006123d7826123bf565b9050919050565b60006123e9826123cc565b9050919050565b6124016123fc82611d61565b6123de565b82525050565b600061241382846123f0565b60148201915081905092915050565b600082825260208201905092915050565b82818337600083830152505050565b6000601f19601f8301169050919050565b600061245f8385612422565b935061246c838584612433565b61247583612442565b840190509392505050565b600060069050919050565b600081905092915050565b6000819050919050565b6124a981611d9f565b82525050565b60006124bb83836124a0565b60208301905092915050565b6000602082019050919050565b6124dd81612480565b6124e7818461248b565b92506124f282612496565b8060005b8381101561252357815161250a87826124af565b9650612515836124c7565b9250506001810190506124f6565b505050505050565b600060e0820190508181036000830152612546818587612453565b905061255560208301846124d4565b949350505050565b61256681611ca6565b811461257157600080fd5b50565b6000815190506125838161255d565b92915050565b60006020828403121561259f5761259e611c39565b5b60006125ad84828501612574565b91505092915050565b7f496e76616c69642077697468647261772070726f6f6600000000000000000000600082015250565b60006125ec60168361226a565b91506125f7826125b6565b602082019050919050565b6000602082019050818103600083015261261b816125df565b9050919050565b600061262d82611ec3565b9050919050565b61263d81612622565b82525050565b60006060820190506126586000830186612634565b6126656020830185612018565b6126726040830184611f11565b949350505050565b7f4e487b7100000000000000000000000000000000000000000000000000000000600052601160045260246000fd5b60006126b482611f3b565b9150600082036126c7576126c661267a565b5b600182039050919050565b7f5f6c6566742073686f756c6420626520696e7369646520746865206669656c64600082015250565b600061270860208361226a565b9150612713826126d2565b602082019050919050565b60006020820190508181036000830152612737816126fb565b9050919050565b7f5f72696768742073686f756c6420626520696e7369646520746865206669656c60008201527f6400000000000000000000000000000000000000000000000000000000000000602082015250565b600061279a60218361226a565b91506127a58261273e565b604082019050919050565b600060208201905081810360008301526127c98161278d565b9050919050565b60006040820190506127e56000830185611f11565b6127f26020830184611f11565b9392505050565b60008151905061280881611da9565b92915050565b6000806040838503121561282557612824611c39565b5b6000612833858286016127f9565b9250506020612844858286016127f9565b9150509250929050565b7f4e487b7100000000000000000000000000000000000000000000000000000000600052601260045260246000fd5b7f4e487b7100000000000000000000000000000000000000000000000000000000600052604160045260246000fd5b7f4e487b7100000000000000000000000000000000000000000000000000000000600052603260045260246000fd5b60006128e682611d9f565b91507fffffffffffffffffffffffffffffffffffffffffffffffffffffffffffffffff82036129185761291761267a565b5b600182019050919050565b7f54686520636f6d6d69746d656e7420686173206265656e207375626d6974746560008201527f6400000000000000000000000000000000000000000000000000000000000000602082015250565b600061297f60218361226a565b915061298a82612923565b604082019050919050565b600060208201905081810360008301526129ae81612972565b9050919050565b60006040820190506129ca6000830185611f4b565b6129d76020830184611f11565b9392505050565b7f496e646578206f7574206f6620626f756e647300000000000000000000000000600082015250565b6000612a1460138361226a565b9150612a1f826129de565b602082019050919050565b60006020820190508181036000830152612a4381612a07565b9050919050565b7f496e636f727265637420726566756e6420616d6f756e7420726563656976656460008201527f2062792074686520636f6e747261637400000000000000000000000000000000602082015250565b6000612aa660308361226a565b9150612ab182612a4a565b604082019050919050565b60006020820190508181036000830152612ad581612a99565b9050919050565b6000612ae782611d9f565b9150612af283611d9f565b9250828203905081811115612b0a57612b0961267a565b5b92915050565b600081905092915050565b50565b6000612b2b600083612b10565b9150612b3682612b1b565b600082019050919050565b6000612b4c82612b1e565b9150819050919050565b60008160011c9050919050565b6000808291508390505b6001851115612bad57808604811115612b8957612b8861267a565b5b6001851615612b985780820291505b8081029050612ba685612b56565b9450612b6d565b94509492505050565b600082612bc65760019050612c82565b81612bd45760009050612c82565b8160018114612bea5760028114612bf457612c23565b6001915050612c82565b60ff841115612c0657612c0561267a565b5b8360020a915084821115612c1d57612c1c61267a565b5b50612c82565b5060208310610133831016604e8410600b8410161715612c585782820a905083811115612c5357612c5261267a565b5b612c82565b612c658484846001612b63565b92509050818404811115612c7c57612c7b61267a565b5b81810290505b9392505050565b6000612c9482611f3b565b9150612c9f83611f3b565b9250612cb063ffffffff8484612bb6565b905092915050565b7f4d65726b6c6520747265652069732066756c6c2e204e6f206d6f7265206c656160008201527f7665732063616e20626520616464656400000000000000000000000000000000602082015250565b6000612d1460308361226a565b9150612d1f82612cb8565b604082019050919050565b60006020820190508181036000830152612d4381612d07565b9050919050565b6000612d5582611f3b565b9150612d6083611f3b565b925082612d7057612d6f61284e565b5b828206905092915050565b6000612d8682611f3b565b9150612d9183611f3b565b925082612da157612da061284e565b5b828204905092915050565b6000612db782611f3b565b915063ffffffff8203612dcd57612dcc61267a565b5b600182019050919050565b6000612de382611f3b565b9150612dee83611f3b565b9250828201905063ffffffff811115612e0a57612e0961267a565b5b92915050565b7f4554482076616c756520697320737570706f73656420746f206265203020666f60008201527f7220455243323020696e7374616e636500000000000000000000000000000000602082015250565b6000612e6c60308361226a565b9150612e7782612e10565b604082019050919050565b60006020820190508181036000830152612e9b81612e5f565b9050919050565b612eab81611f75565b82525050565b6000604082019050612ec66000830185612ea2565b612ed36020830184611f11565b9392505050565b6000606082019050612eef6000830186612ea2565b612efc6020830185612ea2565b612f096040830184611f11565b949350505050565b600081519050919050565b60005b83811015612f3a578082015181840152602081019050612f1f565b60008484015250505050565b6000612f5182612f11565b612f5b8185612b10565b9350612f6b818560208601612f1c565b80840191505092915050565b6000612f838284612f46565b915081905092915050565b7f5361666545524332303a206c6f772d6c6576656c2063616c6c206661696c6564600082015250565b6000612fc460208361226a565b9150612fcf82612f8e565b602082019050919050565b60006020820190508181036000830152612ff381612fb7565b9050919050565b7f5361666545524332303a204552433230206f7065726174696f6e20646964206e60008201527f6f74207375636365656400000000000000000000000000000000000000000000602082015250565b6000613056602a8361226a565b915061306182612ffa565b604082019050919050565b6000602082019050818103600083015261308581613049565b905091905056fea2646970667358221220651aa6f1e2cf3fb5618e246dc46cddc1a794e517ffa2933a2ec99c768405863464736f6c63430008120033",
  "immutableReferences": {
    "1750": [
      {
        "length": 32,
        "start": 5342
      },
      {
        "length": 32,
        "start": 6285
      }
    ],
    "2633": [
      {
        "length": 32,
        "start": 1758
      },
      {
        "length": 32,
        "start": 2195
      }
    ]
  },
  "source": "// SPDX-License-Identifier: MIT\npragma solidity ^0.8.18;\n\n\nimport \"./Tornado.sol\";\nimport \"@openzeppelin/contracts/token/ERC20/IERC20.sol\";\n\n\nlibrary SafeMath {\n    /**\n     * @dev Returns the addition of two unsigned integers, with an overflow flag.\n     *\n     * _Available since v3.4._\n     */\n    function tryAdd(uint256 a, uint256 b) internal pure returns (bool, uint256) {\n        uint256 c = a + b;\n        if (c < a) return (false, 0);\n        return (true, c);\n    }\n\n    /**\n     * @dev Returns the substraction of two unsigned integers, with an overflow flag.\n     *\n     * _Available since v3.4._\n     */\n    function trySub(uint256 a, uint256 b) internal pure returns (bool, uint256) {\n        if (b > a) return (false, 0);\n        return (true, a - b);\n    }\n\n    /**\n     * @dev Returns the multiplication of two unsigned integers, with an overflow flag.\n     *\n     * _Available since v3.4._\n     */\n    function tryMul(uint256 a, uint256 b) internal pure returns (bool, uint256) {\n        // Gas optimization: this is cheaper than requiring 'a' not being zero, but the\n        // benefit is lost if 'b' is also tested.\n        // See: https://github.com/OpenZeppelin/openzeppelin-contracts/pull/522\n        if (a == 0) return (true, 0);\n        uint256 c = a * b;\n        if (c / a != b) return (false, 0);\n        return (true, c);\n    }\n\n    /**\n     * @dev Returns the division of two unsigned integers, with a division by zero flag.\n     *\n     * _Available since v3.4._\n     */\n    function tryDiv(uint256 a, uint256 b) internal pure returns (bool, uint256) {\n        if (b == 0) return (false, 0);\n        return (true, a / b);\n    }\n\n    /**\n     * @dev Returns the remainder of dividing two unsigned integers, with a division by zero flag.\n     *\n     * _Available since v3.4._\n     */\n    function tryMod(uint256 a, uint256 b) internal pure returns (bool, uint256) {\n        if (b == 0) return (false, 0);\n        return (true, a % b);\n    }\n\n    /**\n     * @dev Returns the addition of two unsigned integers, reverting on\n     * overflow.\n     *\n     * Counterpart to Solidity's `+` operator.\n     *\n     * Requirements:\n     *\n     * - Addition cannot overflow.\n     */\n    function add(uint256 a, uint256 b) internal pure returns (uint256) {\n        uint256 c = a + b;\n        require(c >= a, \"SafeMath: addition overflow\");\n        return c;\n    }\n\n    /**\n     * @dev Returns the subtraction of two unsigned integers, reverting on\n     * overflow (when the result is negative).\n     *\n     * Counterpart to Solidity's `-` operator.\n     *\n     * Requirements:\n     *\n     * - Subtraction cannot overflow.\n     */\n    function sub(uint256 a, uint256 b) internal pure returns (uint256) {\n        require(b <= a, \"SafeMath: subtraction overflow\");\n        return a - b;\n    }\n\n    /**\n     * @dev Returns the multiplication of two unsigned integers, reverting on\n     * overflow.\n     *\n     * Counterpart to Solidity's `*` operator.\n     *\n     * Requirements:\n     *\n     * - Multiplication cannot overflow.\n     */\n    function mul(uint256 a, uint256 b) internal pure returns (uint256) {\n        if (a == 0) return 0;\n        uint256 c = a * b;\n        require(c / a == b, \"SafeMath: multiplication overflow\");\n        return c;\n    }\n\n    /**\n     * @dev Returns the integer division of two unsigned integers, reverting on\n     * division by zero. The result is rounded towards zero.\n     *\n     * Counterpart to Solidity's `/` operator. Note: this function uses a\n     * `revert` opcode (which leaves remaining gas untouched) while Solidity\n     * uses an invalid opcode to revert (consuming all remaining gas).\n     *\n     * Requirements:\n     *\n     * - The divisor cannot be zero.\n     */\n    function div(uint256 a, uint256 b) internal pure returns (uint256) {\n        require(b > 0, \"SafeMath: division by zero\");\n        return a / b;\n    }\n\n    /**\n     * @dev Returns the remainder of dividing two unsigned integers. (unsigned integer modulo),\n     * reverting when dividing by zero.\n     *\n     * Counterpart to Solidity's `%` operator. This function uses a `revert`\n     * opcode (which leaves remaining gas untouched) while Solidity uses an\n     * invalid opcode to revert (consuming all remaining gas).\n     *\n     * Requirements:\n     *\n     * - The divisor cannot be zero.\n     */\n    function mod(uint256 a, uint256 b) internal pure returns (uint256) {\n        require(b > 0, \"SafeMath: modulo by zero\");\n        return a % b;\n    }\n\n    /**\n     * @dev Returns the subtraction of two unsigned integers, reverting with custom message on\n     * overflow (when the result is negative).\n     *\n     * CAUTION: This function is deprecated because it requires allocating memory for the error\n     * message unnecessarily. For custom revert reasons use {trySub}.\n     *\n     * Counterpart to Solidity's `-` operator.\n     *\n     * Requirements:\n     *\n     * - Subtraction cannot overflow.\n     */\n    function sub(uint256 a, uint256 b, string memory errorMessage) internal pure returns (uint256) {\n        require(b <= a, errorMessage);\n        return a - b;\n    }\n\n    /**\n     * @dev Returns the integer division of two unsigned integers, reverting with custom message on\n     * division by zero. The result is rounded towards zero.\n     *\n     * CAUTION: This function is deprecated because it requires allocating memory for the error\n     * message unnecessarily. For custom revert reasons use {tryDiv}.\n     *\n     * Counterpart to Solidity's `/` operator. Note: this function uses a\n     * `revert` opcode (which leaves remaining gas untouched) while Solidity\n     * uses an invalid opcode to revert (consuming all remaining gas).\n     *\n     * Requirements:\n     *\n     * - The divisor cannot be zero.\n     */\n    function div(uint256 a, uint256 b, string memory errorMessage) internal pure returns (uint256) {\n        require(b > 0, errorMessage);\n        return a / b;\n    }\n\n    /**\n     * @dev Returns the remainder of dividing two unsigned integers. (unsigned integer modulo),\n     * reverting with custom message when dividing by zero.\n     *\n     * CAUTION: This function is deprecated because it requires allocating memory for the error\n     * message unnecessarily. For custom revert reasons use {tryMod}.\n     *\n     * Counterpart to Solidity's `%` operator. This function uses a `revert`\n     * opcode (which leaves remaining gas untouched) while Solidity uses an\n     * invalid opcode to revert (consuming all remaining gas).\n     *\n     * Requirements:\n     *\n     * - The divisor cannot be zero.\n     */\n    function mod(uint256 a, uint256 b, string memory errorMessage) internal pure returns (uint256) {\n        require(b > 0, errorMessage);\n        return a % b;\n    }\n}\n\n\n/**\n * @dev Collection of functions related to the address type\n */\nlibrary Address {\n    /**\n     * @dev The ETH balance of the account is not enough to perform the operation.\n     */\n    error AddressInsufficientBalance(address account);\n\n    /**\n     * @dev There's no code at `target` (it is not a contract).\n     */\n    error AddressEmptyCode(address target);\n\n    /**\n     * @dev A call to an address target failed. The target may have reverted.\n     */\n    error FailedInnerCall();\n\n    /**\n     * @dev Replacement for Solidity's `transfer`: sends `amount` wei to\n     * `recipient`, forwarding all available gas and reverting on errors.\n     *\n     * https://eips.ethereum.org/EIPS/eip-1884[EIP1884] increases the gas cost\n     * of certain opcodes, possibly making contracts go over the 2300 gas limit\n     * imposed by `transfer`, making them unable to receive funds via\n     * `transfer`. {sendValue} removes this limitation.\n     *\n     * https://consensys.net/diligence/blog/2019/09/stop-using-soliditys-transfer-now/[Learn more].\n     *\n     * IMPORTANT: because control is transferred to `recipient`, care must be\n     * taken to not create reentrancy vulnerabilities. Consider using\n     * {ReentrancyGuard} or the\n     * https://solidity.readthedocs.io/en/v0.8.20/security-considerations.html#use-the-checks-effects-interactions-pattern[checks-effects-interactions pattern].\n     */\n    function sendValue(address payable recipient, uint256 amount) internal {\n        if (address(this).balance < amount) {\n            revert AddressInsufficientBalance(address(this));\n        }\n\n        (bool success, ) = recipient.call{value: amount}(\"\");\n        if (!success) {\n            revert FailedInnerCall();\n        }\n    }\n\n    /**\n     * @dev Performs a Solidity function call using a low level `call`. A\n     * plain `call` is an unsafe replacement for a function call: use this\n     * function instead.\n     *\n     * If `target` reverts with a revert reason or custom error, it is bubbled\n     * up by this function (like regular Solidity function calls). However, if\n     * the call reverted with no returned reason, this function reverts with a\n     * {FailedInnerCall} error.\n     *\n     * Returns the raw returned data. To convert to the expected return value,\n     * use https://solidity.readthedocs.io/en/latest/units-and-global-variables.html?highlight=abi.decode#abi-encoding-and-decoding-functions[`abi.decode`].\n     *\n     * Requirements:\n     *\n     * - `target` must be a contract.\n     * - calling `target` with `data` must not revert.\n     */\n    function functionCall(address target, bytes memory data) internal returns (bytes memory) {\n        return functionCallWithValue(target, data, 0);\n    }\n\n    /**\n     * @dev Same as {xref-Address-functionCall-address-bytes-}[`functionCall`],\n     * but also transferring `value` wei to `target`.\n     *\n     * Requirements:\n     *\n     * - the calling contract must have an ETH balance of at least `value`.\n     * - the called Solidity function must be `payable`.\n     */\n    function functionCallWithValue(address target, bytes memory data, uint256 value) internal returns (bytes memory) {\n        if (address(this).balance < value) {\n            revert AddressInsufficientBalance(address(this));\n        }\n        (bool success, bytes memory returndata) = target.call{value: value}(data);\n        return verifyCallResultFromTarget(target, success, returndata);\n    }\n\n    /**\n     * @dev Same as {xref-Address-functionCall-address-bytes-}[`functionCall`],\n     * but performing a static call.\n     */\n    function functionStaticCall(address target, bytes memory data) internal view returns (bytes memory) {\n        (bool success, bytes memory returndata) = target.staticcall(data);\n        return verifyCallResultFromTarget(target, success, returndata);\n    }\n\n    /**\n     * @dev Same as {xref-Address-functionCall-address-bytes-}[`functionCall`],\n     * but performing a delegate call.\n     */\n    function functionDelegateCall(address target, bytes memory data) internal returns (bytes memory) {\n        (bool success, bytes memory returndata) = target.delegatecall(data);\n        return verifyCallResultFromTarget(target, success, returndata);\n    }\n\n    /**\n     * @dev Tool to verify that a low level call to smart-contract was successful, and reverts if the target\n     * was not a contract or bubbling up the revert reason (falling back to {FailedInnerCall}) in case of an\n     * unsuccessful call.\n     */\n    function verifyCallResultFromTarget(\n        address target,\n        bool success,\n        bytes memory returndata\n    ) internal view returns (bytes memory) {\n        if (!success) {\n            _revert(returndata);\n        } else {\n            // only check if target is a contract if the call was successful and the return data is empty\n            // otherwise we already know that it was a contract\n            if (returndata.length == 0 && target.code.length == 0) {\n                revert AddressEmptyCode(target);\n            }\n            return returndata;\n        }\n    }\n\n    /**\n     * @dev Tool to verify that a low level call was successful, and reverts if it wasn't, either by bubbling the\n     * revert reason or with a default {FailedInnerCall} error.\n     */\n    function verifyCallResult(bool success, bytes memory returndata) internal pure returns (bytes memory) {\n        if (!success) {\n            _revert(returndata);\n        } else {\n            return returndata;\n        }\n    }\n\n    /**\n     * @dev Reverts with returndata if present. Otherwise reverts with {FailedInnerCall}.\n     */\n    function _revert(bytes memory returndata) private pure {\n        // Look for revert reason and bubble it up if present\n        if (returndata.length > 0) {\n            // The easiest way to bubble the revert reason is using memory via assembly\n            /// @solidity memory-safe-assembly\n            assembly {\n                let returndata_size := mload(returndata)\n                revert(add(32, returndata), returndata_size)\n            }\n        } else {\n            revert FailedInnerCall();\n        }\n    }\n}\n\n\n\n\nlibrary SafeERC20 {\n    using SafeMath for uint256;\n    using Address for address;\n\n    function safeTransfer(IERC20 token, address to, uint256 value) internal {\n        _callOptionalReturn(token, abi.encodeWithSelector(token.transfer.selector, to, value));\n    }\n\n    function safeTransferFrom(IERC20 token, address from, address to, uint256 value) internal {\n        _callOptionalReturn(token, abi.encodeWithSelector(token.transferFrom.selector, from, to, value));\n    }\n\n    /**\n     * @dev Deprecated. This function has issues similar to the ones found in\n     * {IERC20-approve}, and its usage is discouraged.\n     *\n     * Whenever possible, use {safeIncreaseAllowance} and\n     * {safeDecreaseAllowance} instead.\n     */\n    function safeApprove(IERC20 token, address spender, uint256 value) internal {\n        // safeApprove should only be called when setting an initial allowance,\n        // or when resetting it to zero. To increase and decrease it, use\n        // 'safeIncreaseAllowance' and 'safeDecreaseAllowance'\n        // solhint-disable-next-line max-line-length\n        require((value == 0) || (token.allowance(address(this), spender) == 0),\n            \"SafeERC20: approve from non-zero to non-zero allowance\"\n        );\n        _callOptionalReturn(token, abi.encodeWithSelector(token.approve.selector, spender, value));\n    }\n\n    function safeIncreaseAllowance(IERC20 token, address spender, uint256 value) internal {\n        uint256 newAllowance = token.allowance(address(this), spender).add(value);\n        _callOptionalReturn(token, abi.encodeWithSelector(token.approve.selector, spender, newAllowance));\n    }\n\n    function safeDecreaseAllowance(IERC20 token, address spender, uint256 value) internal {\n        uint256 newAllowance = token.allowance(address(this), spender).sub(value, \"SafeERC20: decreased allowance below zero\");\n        _callOptionalReturn(token, abi.encodeWithSelector(token.approve.selector, spender, newAllowance));\n    }\n\n    /**\n    * @dev Imitates a Solidity high-level call (i.e. a regular function call to a contract), relaxing the requirement\n    * on the return value: the return value is optional (but if data is returned, it must not be false).\n    * @param token The token targeted by the call.\n    * @param data The call data (encoded using abi.encode or one of its variants).\n    */\n    function _callOptionalReturn(IERC20 token, bytes memory data) private {\n        // We need to perform a low-level call here, to bypass Solidity's return data size checking mechanism, since\n        // we're implementing it ourselves. We use {Address.functionCall} to perform this call, which verifies that\n        // the target address contains contract code and also asserts for success in the low-level call.\n\n        (bool success, bytes memory returndata) = address(token).call(data);\n        require(success, \"SafeERC20: low-level call failed\");\n\n        if (returndata.length > 0) { // Return data is optional\n            // solhint-disable-next-line max-line-length\n            require(abi.decode(returndata, (bool)), \"SafeERC20: ERC20 operation did not succeed\");\n        }\n    }\n\n}\n\n\ncontract ERC20Tornado is Tornado {\n  using SafeERC20 for IERC20;\n  IERC20 public token;\n\n  constructor(\n    IVerifier _verifier,\n    IHasher _hasher,\n    uint256 _denomination,\n    uint32 _merkleTreeHeight,\n    IERC20 _token\n  ) Tornado(_verifier, _hasher, _denomination, _merkleTreeHeight) {\n    token = _token;\n  }\n\n  function _processDeposit() internal override {\n    require(msg.value == 0, \"ETH value is supposed to be 0 for ERC20 instance\");\n    token.safeTransferFrom(msg.sender, address(this), denomination);\n  }\n\n  function _processWithdraw(\n    address payable _recipient,\n    address payable _relayer,\n    uint256 _fee,\n    uint256 _refund\n  ) internal override {\n    require(msg.value == _refund, \"Incorrect refund amount received by the contract\");\n\n    token.safeTransfer(_recipient, denomination - _fee);\n    if (_fee > 0) {\n      token.safeTransfer(_relayer, _fee);\n    }\n\n    if (_refund > 0) {\n      (bool success, ) = _recipient.call{ value: _refund }(\"\");\n      if (!success) {\n        // let's return _refund back to the relayer\n        _relayer.transfer(_refund);\n      }\n    }\n  }\n}\n",
  "sourcePath": "/Users/kayak/Blockchain/myProjects/universal_nodes/fund/zuzaluhack/truffle/contracts/ERC20Tornado.sol",
  "compiler": {
    "name": "solc",
    "version": "0.8.18+commit.87f61d96.Emscripten.clang"
  },
  "schemaVersion": "3.4.16",
  "updatedAt": "2024-01-04T07:19:54.502Z",
  "networkType": "ethereum",
  "devdoc": {
    "errors": {
      "ReentrancyGuardReentrantCall()": [
        {
          "details": "Unauthorized reentrant call."
        }
      ]
    },
    "kind": "dev",
    "methods": {
      "deposit(bytes32)": {
        "details": "Deposit funds into the contract. The caller must send (for ETH) or approve (for ERC20) value equal to or `denomination` of this instance.",
        "params": {
          "_commitment": "the note commitment, which is PedersenHash(nullifier + secret)"
        }
      },
      "getLastRoot()": {
        "details": "Returns the last root"
      },
      "hashLeftRight(address,bytes32,bytes32)": {
        "details": "Hash 2 tree leaves, returns MiMC(_left, _right)"
      },
      "isKnownRoot(bytes32)": {
        "details": "Whether the root is present in the root history"
      },
      "isSpent(bytes32)": {
        "details": "whether a note is already spent "
      },
      "isSpentArray(bytes32[])": {
        "details": "whether an array of notes is already spent "
      },
      "withdraw(bytes,bytes32,bytes32,address,address,uint256,uint256)": {
        "details": "Withdraw a deposit from the contract. `proof` is a zkSNARK proof data, and input is an array of circuit public inputs `input` array consists of: - merkle root of all deposits in the contract - hash of unique deposit nullifier to prevent double spends - the recipient of funds - optional fee that goes to the transaction sender (usually a relay)"
      },
      "zeros(uint256)": {
        "details": "provides Zero (Empty) elements for a MiMC MerkleTree. Up to 32 levels"
      }
    },
    "version": 1
  },
  "userdoc": {
    "kind": "user",
    "methods": {},
    "version": 1
  }
}