{
  "contractName": "ERC20Mock",
  "abi": [
    {
      "anonymous": false,
      "inputs": [
        {
          "indexed": true,
          "internalType": "address",
          "name": "owner",
          "type": "address"
        },
        {
          "indexed": true,
          "internalType": "address",
          "name": "spender",
          "type": "address"
        },
        {
          "indexed": false,
          "internalType": "uint256",
          "name": "value",
          "type": "uint256"
        }
      ],
      "name": "Approval",
      "type": "event"
    },
    {
      "anonymous": false,
      "inputs": [
        {
          "indexed": true,
          "internalType": "address",
          "name": "from",
          "type": "address"
        },
        {
          "indexed": true,
          "internalType": "address",
          "name": "to",
          "type": "address"
        },
        {
          "indexed": false,
          "internalType": "uint256",
          "name": "value",
          "type": "uint256"
        }
      ],
      "name": "Transfer",
      "type": "event"
    },
    {
      "inputs": [
        {
          "internalType": "address",
          "name": "owner",
          "type": "address"
        },
        {
          "internalType": "address",
          "name": "spender",
          "type": "address"
        }
      ],
      "name": "allowance",
      "outputs": [
        {
          "internalType": "uint256",
          "name": "",
          "type": "uint256"
        }
      ],
      "stateMutability": "view",
      "type": "function"
    },
    {
      "inputs": [
        {
          "internalType": "address",
          "name": "spender",
          "type": "address"
        },
        {
          "internalType": "uint256",
          "name": "amount",
          "type": "uint256"
        }
      ],
      "name": "approve",
      "outputs": [
        {
          "internalType": "bool",
          "name": "",
          "type": "bool"
        }
      ],
      "stateMutability": "nonpayable",
      "type": "function"
    },
    {
      "inputs": [
        {
          "internalType": "address",
          "name": "account",
          "type": "address"
        }
      ],
      "name": "balanceOf",
      "outputs": [
        {
          "internalType": "uint256",
          "name": "",
          "type": "uint256"
        }
      ],
      "stateMutability": "view",
      "type": "function"
    },
    {
      "inputs": [],
      "name": "decimals",
      "outputs": [
        {
          "internalType": "uint8",
          "name": "",
          "type": "uint8"
        }
      ],
      "stateMutability": "view",
      "type": "function"
    },
    {
      "inputs": [
        {
          "internalType": "address",
          "name": "spender",
          "type": "address"
        },
        {
          "internalType": "uint256",
          "name": "subtractedValue",
          "type": "uint256"
        }
      ],
      "name": "decreaseAllowance",
      "outputs": [
        {
          "internalType": "bool",
          "name": "",
          "type": "bool"
        }
      ],
      "stateMutability": "nonpayable",
      "type": "function"
    },
    {
      "inputs": [
        {
          "internalType": "address",
          "name": "spender",
          "type": "address"
        },
        {
          "internalType": "uint256",
          "name": "addedValue",
          "type": "uint256"
        }
      ],
      "name": "increaseAllowance",
      "outputs": [
        {
          "internalType": "bool",
          "name": "",
          "type": "bool"
        }
      ],
      "stateMutability": "nonpayable",
      "type": "function"
    },
    {
      "inputs": [],
      "name": "name",
      "outputs": [
        {
          "internalType": "string",
          "name": "",
          "type": "string"
        }
      ],
      "stateMutability": "view",
      "type": "function"
    },
    {
      "inputs": [],
      "name": "symbol",
      "outputs": [
        {
          "internalType": "string",
          "name": "",
          "type": "string"
        }
      ],
      "stateMutability": "view",
      "type": "function"
    },
    {
      "inputs": [],
      "name": "totalSupply",
      "outputs": [
        {
          "internalType": "uint256",
          "name": "",
          "type": "uint256"
        }
      ],
      "stateMutability": "view",
      "type": "function"
    },
    {
      "inputs": [
        {
          "internalType": "address",
          "name": "recipient",
          "type": "address"
        },
        {
          "internalType": "uint256",
          "name": "amount",
          "type": "uint256"
        }
      ],
      "name": "transfer",
      "outputs": [
        {
          "internalType": "bool",
          "name": "",
          "type": "bool"
        }
      ],
      "stateMutability": "nonpayable",
      "type": "function"
    },
    {
      "inputs": [
        {
          "internalType": "address",
          "name": "sender",
          "type": "address"
        },
        {
          "internalType": "address",
          "name": "recipient",
          "type": "address"
        },
        {
          "internalType": "uint256",
          "name": "amount",
          "type": "uint256"
        }
      ],
      "name": "transferFrom",
      "outputs": [
        {
          "internalType": "bool",
          "name": "",
          "type": "bool"
        }
      ],
      "stateMutability": "nonpayable",
      "type": "function"
    },
    {
      "inputs": [
        {
          "internalType": "address",
          "name": "account",
          "type": "address"
        },
        {
          "internalType": "uint256",
          "name": "amount",
          "type": "uint256"
        }
      ],
      "name": "mint",
      "outputs": [],
      "stateMutability": "nonpayable",
      "type": "function"
    }
  ],
  "bytecode": "0x60806040523480156200001157600080fd5b506040518060400160405280600781526020017f4441494d6f636b000000000000000000000000000000000000000000000000008152506040518060400160405280600481526020017f4441494d0000000000000000000000000000000000000000000000000000000081525081600390816200008f919062000324565b508060049081620000a1919062000324565b5050506200040b565b600081519050919050565b7f4e487b7100000000000000000000000000000000000000000000000000000000600052604160045260246000fd5b7f4e487b7100000000000000000000000000000000000000000000000000000000600052602260045260246000fd5b600060028204905060018216806200012c57607f821691505b602082108103620001425762000141620000e4565b5b50919050565b60008190508160005260206000209050919050565b60006020601f8301049050919050565b600082821b905092915050565b600060088302620001ac7fffffffffffffffffffffffffffffffffffffffffffffffffffffffffffffffff826200016d565b620001b886836200016d565b95508019841693508086168417925050509392505050565b6000819050919050565b6000819050919050565b600062000205620001ff620001f984620001d0565b620001da565b620001d0565b9050919050565b6000819050919050565b6200022183620001e4565b6200023962000230826200020c565b8484546200017a565b825550505050565b600090565b6200025062000241565b6200025d81848462000216565b505050565b5b8181101562000285576200027960008262000246565b60018101905062000263565b5050565b601f821115620002d4576200029e8162000148565b620002a9846200015d565b81016020851015620002b9578190505b620002d1620002c8856200015d565b83018262000262565b50505b505050565b600082821c905092915050565b6000620002f960001984600802620002d9565b1980831691505092915050565b6000620003148383620002e6565b9150826002028217905092915050565b6200032f82620000aa565b67ffffffffffffffff8111156200034b576200034a620000b5565b5b62000357825462000113565b6200036482828562000289565b600060209050601f8311600181146200039c576000841562000387578287015190505b62000393858262000306565b86555062000403565b601f198416620003ac8662000148565b60005b82811015620003d657848901518255600182019150602085019450602081019050620003af565b86831015620003f65784890151620003f2601f891682620002e6565b8355505b6001600288020188555050505b505050505050565b61157a806200041b6000396000f3fe608060405234801561001057600080fd5b50600436106100b45760003560e01c806340c10f191161007157806340c10f19146101a357806370a08231146101bf57806395d89b41146101ef578063a457c2d71461020d578063a9059cbb1461023d578063dd62ed3e1461026d576100b4565b806306fdde03146100b9578063095ea7b3146100d757806318160ddd1461010757806323b872dd14610125578063313ce567146101555780633950935114610173575b600080fd5b6100c161029d565b6040516100ce9190610dc5565b60405180910390f35b6100f160048036038101906100ec9190610e80565b61032f565b6040516100fe9190610edb565b60405180910390f35b61010f61034d565b60405161011c9190610f05565b60405180910390f35b61013f600480360381019061013a9190610f20565b610357565b60405161014c9190610edb565b60405180910390f35b61015d61044f565b60405161016a9190610f8f565b60405180910390f35b61018d60048036038101906101889190610e80565b610458565b60405161019a9190610edb565b60405180910390f35b6101bd60048036038101906101b89190610e80565b610504565b005b6101d960048036038101906101d49190610faa565b610512565b6040516101e69190610f05565b60405180910390f35b6101f761055a565b6040516102049190610dc5565b60405180910390f35b61022760048036038101906102229190610e80565b6105ec565b6040516102349190610edb565b60405180910390f35b61025760048036038101906102529190610e80565b6106d7565b6040516102649190610edb565b60405180910390f35b61028760048036038101906102829190610fd7565b6106f5565b6040516102949190610f05565b60405180910390f35b6060600380546102ac90611046565b80601f01602080910402602001604051908101604052809291908181526020018280546102d890611046565b80156103255780601f106102fa57610100808354040283529160200191610325565b820191906000526020600020905b81548152906001019060200180831161030857829003601f168201915b5050505050905090565b600061034361033c61077c565b8484610784565b6001905092915050565b6000600254905090565b600061036484848461094d565b6000600160008673ffffffffffffffffffffffffffffffffffffffff1673ffffffffffffffffffffffffffffffffffffffff16815260200190815260200160002060006103af61077c565b73ffffffffffffffffffffffffffffffffffffffff1673ffffffffffffffffffffffffffffffffffffffff1681526020019081526020016000205490508281101561042f576040517f08c379a0000000000000000000000000000000000000000000000000000000008152600401610426906110e9565b60405180910390fd5b6104438561043b61077c565b858403610784565b60019150509392505050565b60006012905090565b60006104fa61046561077c565b84846001600061047361077c565b73ffffffffffffffffffffffffffffffffffffffff1673ffffffffffffffffffffffffffffffffffffffff16815260200190815260200160002060008873ffffffffffffffffffffffffffffffffffffffff1673ffffffffffffffffffffffffffffffffffffffff168152602001908152602001600020546104f59190611138565b610784565b6001905092915050565b61050e8282610bcc565b5050565b60008060008373ffffffffffffffffffffffffffffffffffffffff1673ffffffffffffffffffffffffffffffffffffffff168152602001908152602001600020549050919050565b60606004805461056990611046565b80601f016020809104026020016040519081016040528092919081815260200182805461059590611046565b80156105e25780601f106105b7576101008083540402835291602001916105e2565b820191906000526020600020905b8154815290600101906020018083116105c557829003601f168201915b5050505050905090565b600080600160006105fb61077c565b73ffffffffffffffffffffffffffffffffffffffff1673ffffffffffffffffffffffffffffffffffffffff16815260200190815260200160002060008573ffffffffffffffffffffffffffffffffffffffff1673ffffffffffffffffffffffffffffffffffffffff168152602001908152602001600020549050828110156106b8576040517f08c379a00000000000000000000000000000000000000000000000000000000081526004016106af906111de565b60405180910390fd5b6106cc6106c361077c565b85858403610784565b600191505092915050565b60006106eb6106e461077c565b848461094d565b6001905092915050565b6000600160008473ffffffffffffffffffffffffffffffffffffffff1673ffffffffffffffffffffffffffffffffffffffff16815260200190815260200160002060008373ffffffffffffffffffffffffffffffffffffffff1673ffffffffffffffffffffffffffffffffffffffff16815260200190815260200160002054905092915050565b600033905090565b600073ffffffffffffffffffffffffffffffffffffffff168373ffffffffffffffffffffffffffffffffffffffff16036107f3576040517f08c379a00000000000000000000000000000000000000000000000000000000081526004016107ea90611270565b60405180910390fd5b600073ffffffffffffffffffffffffffffffffffffffff168273ffffffffffffffffffffffffffffffffffffffff1603610862576040517f08c379a000000000000000000000000000000000000000000000000000000000815260040161085990611302565b60405180910390fd5b80600160008573ffffffffffffffffffffffffffffffffffffffff1673ffffffffffffffffffffffffffffffffffffffff16815260200190815260200160002060008473ffffffffffffffffffffffffffffffffffffffff1673ffffffffffffffffffffffffffffffffffffffff168152602001908152602001600020819055508173ffffffffffffffffffffffffffffffffffffffff168373ffffffffffffffffffffffffffffffffffffffff167f8c5be1e5ebec7d5bd14f71427d1e84f3dd0314c0f7b2291e5b200ac8c7c3b925836040516109409190610f05565b60405180910390a3505050565b600073ffffffffffffffffffffffffffffffffffffffff168373ffffffffffffffffffffffffffffffffffffffff16036109bc576040517f08c379a00000000000000000000000000000000000000000000000000000000081526004016109b390611394565b60405180910390fd5b600073ffffffffffffffffffffffffffffffffffffffff168273ffffffffffffffffffffffffffffffffffffffff1603610a2b576040517f08c379a0000000000000000000000000000000000000000000000000000000008152600401610a2290611426565b60405180910390fd5b610a36838383610d2b565b60008060008573ffffffffffffffffffffffffffffffffffffffff1673ffffffffffffffffffffffffffffffffffffffff16815260200190815260200160002054905081811015610abc576040517f08c379a0000000000000000000000000000000000000000000000000000000008152600401610ab3906114b8565b60405180910390fd5b8181036000808673ffffffffffffffffffffffffffffffffffffffff1673ffffffffffffffffffffffffffffffffffffffff16815260200190815260200160002081905550816000808573ffffffffffffffffffffffffffffffffffffffff1673ffffffffffffffffffffffffffffffffffffffff1681526020019081526020016000206000828254610b4f9190611138565b925050819055508273ffffffffffffffffffffffffffffffffffffffff168473ffffffffffffffffffffffffffffffffffffffff167fddf252ad1be2c89b69c2b068fc378daa952ba7f163c4a11628f55a4df523b3ef84604051610bb39190610f05565b60405180910390a3610bc6848484610d30565b50505050565b600073ffffffffffffffffffffffffffffffffffffffff168273ffffffffffffffffffffffffffffffffffffffff1603610c3b576040517f08c379a0000000000000000000000000000000000000000000000000000000008152600401610c3290611524565b60405180910390fd5b610c4760008383610d2b565b8060026000828254610c599190611138565b92505081905550806000808473ffffffffffffffffffffffffffffffffffffffff1673ffffffffffffffffffffffffffffffffffffffff1681526020019081526020016000206000828254610cae9190611138565b925050819055508173ffffffffffffffffffffffffffffffffffffffff16600073ffffffffffffffffffffffffffffffffffffffff167fddf252ad1be2c89b69c2b068fc378daa952ba7f163c4a11628f55a4df523b3ef83604051610d139190610f05565b60405180910390a3610d2760008383610d30565b5050565b505050565b505050565b600081519050919050565b600082825260208201905092915050565b60005b83811015610d6f578082015181840152602081019050610d54565b60008484015250505050565b6000601f19601f8301169050919050565b6000610d9782610d35565b610da18185610d40565b9350610db1818560208601610d51565b610dba81610d7b565b840191505092915050565b60006020820190508181036000830152610ddf8184610d8c565b905092915050565b600080fd5b600073ffffffffffffffffffffffffffffffffffffffff82169050919050565b6000610e1782610dec565b9050919050565b610e2781610e0c565b8114610e3257600080fd5b50565b600081359050610e4481610e1e565b92915050565b6000819050919050565b610e5d81610e4a565b8114610e6857600080fd5b50565b600081359050610e7a81610e54565b92915050565b60008060408385031215610e9757610e96610de7565b5b6000610ea585828601610e35565b9250506020610eb685828601610e6b565b9150509250929050565b60008115159050919050565b610ed581610ec0565b82525050565b6000602082019050610ef06000830184610ecc565b92915050565b610eff81610e4a565b82525050565b6000602082019050610f1a6000830184610ef6565b92915050565b600080600060608486031215610f3957610f38610de7565b5b6000610f4786828701610e35565b9350506020610f5886828701610e35565b9250506040610f6986828701610e6b565b9150509250925092565b600060ff82169050919050565b610f8981610f73565b82525050565b6000602082019050610fa46000830184610f80565b92915050565b600060208284031215610fc057610fbf610de7565b5b6000610fce84828501610e35565b91505092915050565b60008060408385031215610fee57610fed610de7565b5b6000610ffc85828601610e35565b925050602061100d85828601610e35565b9150509250929050565b7f4e487b7100000000000000000000000000000000000000000000000000000000600052602260045260246000fd5b6000600282049050600182168061105e57607f821691505b60208210810361107157611070611017565b5b50919050565b7f45524332303a207472616e7366657220616d6f756e742065786365656473206160008201527f6c6c6f77616e6365000000000000000000000000000000000000000000000000602082015250565b60006110d3602883610d40565b91506110de82611077565b604082019050919050565b60006020820190508181036000830152611102816110c6565b9050919050565b7f4e487b7100000000000000000000000000000000000000000000000000000000600052601160045260246000fd5b600061114382610e4a565b915061114e83610e4a565b925082820190508082111561116657611165611109565b5b92915050565b7f45524332303a2064656372656173656420616c6c6f77616e63652062656c6f7760008201527f207a65726f000000000000000000000000000000000000000000000000000000602082015250565b60006111c8602583610d40565b91506111d38261116c565b604082019050919050565b600060208201905081810360008301526111f7816111bb565b9050919050565b7f45524332303a20617070726f76652066726f6d20746865207a65726f2061646460008201527f7265737300000000000000000000000000000000000000000000000000000000602082015250565b600061125a602483610d40565b9150611265826111fe565b604082019050919050565b600060208201905081810360008301526112898161124d565b9050919050565b7f45524332303a20617070726f766520746f20746865207a65726f20616464726560008201527f7373000000000000000000000000000000000000000000000000000000000000602082015250565b60006112ec602283610d40565b91506112f782611290565b604082019050919050565b6000602082019050818103600083015261131b816112df565b9050919050565b7f45524332303a207472616e736665722066726f6d20746865207a65726f20616460008201527f6472657373000000000000000000000000000000000000000000000000000000602082015250565b600061137e602583610d40565b915061138982611322565b604082019050919050565b600060208201905081810360008301526113ad81611371565b9050919050565b7f45524332303a207472616e7366657220746f20746865207a65726f206164647260008201527f6573730000000000000000000000000000000000000000000000000000000000602082015250565b6000611410602383610d40565b915061141b826113b4565b604082019050919050565b6000602082019050818103600083015261143f81611403565b9050919050565b7f45524332303a207472616e7366657220616d6f756e742065786365656473206260008201527f616c616e63650000000000000000000000000000000000000000000000000000602082015250565b60006114a2602683610d40565b91506114ad82611446565b604082019050919050565b600060208201905081810360008301526114d181611495565b9050919050565b7f45524332303a206d696e7420746f20746865207a65726f206164647265737300600082015250565b600061150e601f83610d40565b9150611519826114d8565b602082019050919050565b6000602082019050818103600083015261153d81611501565b905091905056fea2646970667358221220d7bcc9cb935c8cb5c186bf76c2ef75f3f32d8ba12fdf2932f9a66b7e627b9afa64736f6c63430008120033",
  "immutableReferences": {},
  "source": "// SPDX-License-Identifier: MIT\npragma solidity ^0.8.18;\n\nimport \"@openzeppelin/contracts/token/ERC20/ERC20.sol\";\n\ncontract ERC20Mock is ERC20(\"DAIMock\", \"DAIM\") {\n  function mint(address account, uint256 amount) public {\n    _mint(account, amount);\n  }\n}\n",
  "sourcePath": "/Users/kayak/Blockchain/myProjects/universal_nodes/fund/zuzaluhack/truffle/contracts/Mocks/ERC20Mock.sol",
  "compiler": {
    "name": "solc",
    "version": "0.8.18+commit.87f61d96.Emscripten.clang"
  },
  "schemaVersion": "3.4.16",
  "updatedAt": "2024-01-04T07:19:54.561Z",
  "networkType": "ethereum",
  "devdoc": {
    "events": {
      "Approval(address,address,uint256)": {
        "details": "Emitted when the allowance of a `spender` for an `owner` is set by a call to {approve}. `value` is the new allowance."
      },
      "Transfer(address,address,uint256)": {
        "details": "Emitted when `value` tokens are moved from one account (`from`) to another (`to`). Note that `value` may be zero."
      }
    },
    "kind": "dev",
    "methods": {
      "allowance(address,address)": {
        "details": "See {IERC20-allowance}."
      },
      "approve(address,uint256)": {
        "details": "See {IERC20-approve}. Requirements: - `spender` cannot be the zero address."
      },
      "balanceOf(address)": {
        "details": "See {IERC20-balanceOf}."
      },
      "decimals()": {
        "details": "Returns the number of decimals used to get its user representation. For example, if `decimals` equals `2`, a balance of `505` tokens should be displayed to a user as `5.05` (`505 / 10 ** 2`). Tokens usually opt for a value of 18, imitating the relationship between Ether and Wei. This is the value {ERC20} uses, unless this function is overridden; NOTE: This information is only used for _display_ purposes: it in no way affects any of the arithmetic of the contract, including {IERC20-balanceOf} and {IERC20-transfer}."
      },
      "decreaseAllowance(address,uint256)": {
        "details": "Atomically decreases the allowance granted to `spender` by the caller. This is an alternative to {approve} that can be used as a mitigation for problems described in {IERC20-approve}. Emits an {Approval} event indicating the updated allowance. Requirements: - `spender` cannot be the zero address. - `spender` must have allowance for the caller of at least `subtractedValue`."
      },
      "increaseAllowance(address,uint256)": {
        "details": "Atomically increases the allowance granted to `spender` by the caller. This is an alternative to {approve} that can be used as a mitigation for problems described in {IERC20-approve}. Emits an {Approval} event indicating the updated allowance. Requirements: - `spender` cannot be the zero address."
      },
      "name()": {
        "details": "Returns the name of the token."
      },
      "symbol()": {
        "details": "Returns the symbol of the token, usually a shorter version of the name."
      },
      "totalSupply()": {
        "details": "See {IERC20-totalSupply}."
      },
      "transfer(address,uint256)": {
        "details": "See {IERC20-transfer}. Requirements: - `recipient` cannot be the zero address. - the caller must have a balance of at least `amount`."
      },
      "transferFrom(address,address,uint256)": {
        "details": "See {IERC20-transferFrom}. Emits an {Approval} event indicating the updated allowance. This is not required by the EIP. See the note at the beginning of {ERC20}. Requirements: - `sender` and `recipient` cannot be the zero address. - `sender` must have a balance of at least `amount`. - the caller must have allowance for ``sender``'s tokens of at least `amount`."
      }
    },
    "version": 1
  },
  "userdoc": {
    "kind": "user",
    "methods": {},
    "version": 1
  }
}