{
  "contractName": "ETHTornado",
  "abi": [
    {
      "inputs": [
        {
          "internalType": "contract IVerifier",
          "name": "_verifier",
          "type": "address"
        },
        {
          "internalType": "contract IHasher",
          "name": "_hasher",
          "type": "address"
        },
        {
          "internalType": "uint256",
          "name": "_denomination",
          "type": "uint256"
        },
        {
          "internalType": "uint32",
          "name": "_merkleTreeHeight",
          "type": "uint32"
        }
      ],
      "stateMutability": "nonpayable",
      "type": "constructor"
    },
    {
      "inputs": [],
      "name": "ReentrancyGuardReentrantCall",
      "type": "error"
    },
    {
      "anonymous": false,
      "inputs": [
        {
          "indexed": true,
          "internalType": "bytes32",
          "name": "commitment",
          "type": "bytes32"
        },
        {
          "indexed": false,
          "internalType": "uint32",
          "name": "leafIndex",
          "type": "uint32"
        },
        {
          "indexed": false,
          "internalType": "uint256",
          "name": "timestamp",
          "type": "uint256"
        }
      ],
      "name": "Deposit",
      "type": "event"
    },
    {
      "anonymous": false,
      "inputs": [
        {
          "indexed": false,
          "internalType": "address",
          "name": "to",
          "type": "address"
        },
        {
          "indexed": false,
          "internalType": "bytes32",
          "name": "nullifierHash",
          "type": "bytes32"
        },
        {
          "indexed": true,
          "internalType": "address",
          "name": "relayer",
          "type": "address"
        },
        {
          "indexed": false,
          "internalType": "uint256",
          "name": "fee",
          "type": "uint256"
        }
      ],
      "name": "Withdrawal",
      "type": "event"
    },
    {
      "inputs": [],
      "name": "FIELD_SIZE",
      "outputs": [
        {
          "internalType": "uint256",
          "name": "",
          "type": "uint256"
        }
      ],
      "stateMutability": "view",
      "type": "function",
      "constant": true
    },
    {
      "inputs": [],
      "name": "ROOT_HISTORY_SIZE",
      "outputs": [
        {
          "internalType": "uint32",
          "name": "",
          "type": "uint32"
        }
      ],
      "stateMutability": "view",
      "type": "function",
      "constant": true
    },
    {
      "inputs": [],
      "name": "ZERO_VALUE",
      "outputs": [
        {
          "internalType": "uint256",
          "name": "",
          "type": "uint256"
        }
      ],
      "stateMutability": "view",
      "type": "function",
      "constant": true
    },
    {
      "inputs": [
        {
          "internalType": "bytes32",
          "name": "",
          "type": "bytes32"
        }
      ],
      "name": "commitments",
      "outputs": [
        {
          "internalType": "bool",
          "name": "",
          "type": "bool"
        }
      ],
      "stateMutability": "view",
      "type": "function",
      "constant": true
    },
    {
      "inputs": [],
      "name": "currentRootIndex",
      "outputs": [
        {
          "internalType": "uint32",
          "name": "",
          "type": "uint32"
        }
      ],
      "stateMutability": "view",
      "type": "function",
      "constant": true
    },
    {
      "inputs": [],
      "name": "denomination",
      "outputs": [
        {
          "internalType": "uint256",
          "name": "",
          "type": "uint256"
        }
      ],
      "stateMutability": "view",
      "type": "function",
      "constant": true
    },
    {
      "inputs": [
        {
          "internalType": "bytes32",
          "name": "_commitment",
          "type": "bytes32"
        }
      ],
      "name": "deposit",
      "outputs": [],
      "stateMutability": "payable",
      "type": "function",
      "payable": true
    },
    {
      "inputs": [
        {
          "internalType": "uint256",
          "name": "",
          "type": "uint256"
        }
      ],
      "name": "filledSubtrees",
      "outputs": [
        {
          "internalType": "bytes32",
          "name": "",
          "type": "bytes32"
        }
      ],
      "stateMutability": "view",
      "type": "function",
      "constant": true
    },
    {
      "inputs": [],
      "name": "getLastRoot",
      "outputs": [
        {
          "internalType": "bytes32",
          "name": "",
          "type": "bytes32"
        }
      ],
      "stateMutability": "view",
      "type": "function",
      "constant": true
    },
    {
      "inputs": [
        {
          "internalType": "contract IHasher",
          "name": "_hasher",
          "type": "address"
        },
        {
          "internalType": "bytes32",
          "name": "_left",
          "type": "bytes32"
        },
        {
          "internalType": "bytes32",
          "name": "_right",
          "type": "bytes32"
        }
      ],
      "name": "hashLeftRight",
      "outputs": [
        {
          "internalType": "bytes32",
          "name": "",
          "type": "bytes32"
        }
      ],
      "stateMutability": "pure",
      "type": "function",
      "constant": true
    },
    {
      "inputs": [],
      "name": "hasher",
      "outputs": [
        {
          "internalType": "contract IHasher",
          "name": "",
          "type": "address"
        }
      ],
      "stateMutability": "view",
      "type": "function",
      "constant": true
    },
    {
      "inputs": [
        {
          "internalType": "bytes32",
          "name": "_root",
          "type": "bytes32"
        }
      ],
      "name": "isKnownRoot",
      "outputs": [
        {
          "internalType": "bool",
          "name": "",
          "type": "bool"
        }
      ],
      "stateMutability": "view",
      "type": "function",
      "constant": true
    },
    {
      "inputs": [
        {
          "internalType": "bytes32",
          "name": "_nullifierHash",
          "type": "bytes32"
        }
      ],
      "name": "isSpent",
      "outputs": [
        {
          "internalType": "bool",
          "name": "",
          "type": "bool"
        }
      ],
      "stateMutability": "view",
      "type": "function",
      "constant": true
    },
    {
      "inputs": [
        {
          "internalType": "bytes32[]",
          "name": "_nullifierHashes",
          "type": "bytes32[]"
        }
      ],
      "name": "isSpentArray",
      "outputs": [
        {
          "internalType": "bool[]",
          "name": "spent",
          "type": "bool[]"
        }
      ],
      "stateMutability": "view",
      "type": "function",
      "constant": true
    },
    {
      "inputs": [],
      "name": "levels",
      "outputs": [
        {
          "internalType": "uint32",
          "name": "",
          "type": "uint32"
        }
      ],
      "stateMutability": "view",
      "type": "function",
      "constant": true
    },
    {
      "inputs": [],
      "name": "nextIndex",
      "outputs": [
        {
          "internalType": "uint32",
          "name": "",
          "type": "uint32"
        }
      ],
      "stateMutability": "view",
      "type": "function",
      "constant": true
    },
    {
      "inputs": [
        {
          "internalType": "bytes32",
          "name": "",
          "type": "bytes32"
        }
      ],
      "name": "nullifierHashes",
      "outputs": [
        {
          "internalType": "bool",
          "name": "",
          "type": "bool"
        }
      ],
      "stateMutability": "view",
      "type": "function",
      "constant": true
    },
    {
      "inputs": [
        {
          "internalType": "uint256",
          "name": "",
          "type": "uint256"
        }
      ],
      "name": "roots",
      "outputs": [
        {
          "internalType": "bytes32",
          "name": "",
          "type": "bytes32"
        }
      ],
      "stateMutability": "view",
      "type": "function",
      "constant": true
    },
    {
      "inputs": [],
      "name": "verifier",
      "outputs": [
        {
          "internalType": "contract IVerifier",
          "name": "",
          "type": "address"
        }
      ],
      "stateMutability": "view",
      "type": "function",
      "constant": true
    },
    {
      "inputs": [
        {
          "internalType": "bytes",
          "name": "_proof",
          "type": "bytes"
        },
        {
          "internalType": "bytes32",
          "name": "_root",
          "type": "bytes32"
        },
        {
          "internalType": "bytes32",
          "name": "_nullifierHash",
          "type": "bytes32"
        },
        {
          "internalType": "address payable",
          "name": "_recipient",
          "type": "address"
        },
        {
          "internalType": "address payable",
          "name": "_relayer",
          "type": "address"
        },
        {
          "internalType": "uint256",
          "name": "_fee",
          "type": "uint256"
        },
        {
          "internalType": "uint256",
          "name": "_refund",
          "type": "uint256"
        }
      ],
      "name": "withdraw",
      "outputs": [],
      "stateMutability": "payable",
      "type": "function",
      "payable": true
    },
    {
      "inputs": [
        {
          "internalType": "uint256",
          "name": "i",
          "type": "uint256"
        }
      ],
      "name": "zeros",
      "outputs": [
        {
          "internalType": "bytes32",
          "name": "",
          "type": "bytes32"
        }
      ],
      "stateMutability": "pure",
      "type": "function",
      "constant": true
    }
  ],
  "bytecode": "0x60c06040526000600360006101000a81548163ffffffff021916908363ffffffff1602179055506000600360046101000a81548163ffffffff021916908363ffffffff1602179055503480156200005557600080fd5b5060405162003bf238038062003bf283398181016040528101906200007b919062000ac5565b83838383808360008263ffffffff1611620000cd576040517f08c379a0000000000000000000000000000000000000000000000000000000008152600401620000c49062000bbe565b60405180910390fd5b60208263ffffffff161062000119576040517f08c379a0000000000000000000000000000000000000000000000000000000008152600401620001109062000c30565b60405180910390fd5b816000806101000a81548163ffffffff021916908363ffffffff1602179055508073ffffffffffffffffffffffffffffffffffffffff1660808173ffffffffffffffffffffffffffffffffffffffff168152505060005b8263ffffffff168163ffffffff161015620001cf576200019c8163ffffffff16620002a560201b60201c565b600160008363ffffffff168152602001908152602001600020819055508080620001c69062000c81565b91505062000170565b50620001f5600183620001e3919062000cb2565b63ffffffff16620002a560201b60201c565b600260008081526020019081526020016000208190555050506001600481905550600082116200025c576040517f08c379a0000000000000000000000000000000000000000000000000000000008152600401620002539062000d67565b60405180910390fd5b8373ffffffffffffffffffffffffffffffffffffffff1660a08173ffffffffffffffffffffffffffffffffffffffff168152505081600581905550505050505050505062000dfb565b6000808203620002db577f2fe54c60d3acabf3343a35b6eba15db4821b340f76e741e2249685ed4899af6c60001b905062000981565b6001820362000310577f256a6135777eee2fd26f54b8b7037a25439d5235caee224154186d2b8a52e31d60001b905062000981565b6002820362000345577f1151949895e82ab19924de92c40a3d6f7bcb60d92b00504b8199613683f0c20060001b905062000981565b600382036200037a577f20121ee811489ff8d61f09fb89e313f14959a0f28bb428a20dba6b0b068b3bdb60001b905062000981565b60048203620003af577f0a89ca6ffa14cc462cfedb842c30ed221a50a3d6bf022a6a57dc82ab24c157c960001b905062000981565b60058203620003e4577f24ca05c2b5cd42e890d6be94c68d0689f4f21c9cec9c0f13fe41d566dfb5495960001b905062000981565b6006820362000419577f1ccb97c932565a92c60156bdba2d08f3bf1377464e025cee765679e604a7315c60001b905062000981565b600782036200044e577f19156fbd7d1a8bf5cba8909367de1b624534ebab4f0f79e003bccdd1b182bdb460001b905062000981565b6008820362000483577f261af8c1f0912e465744641409f622d466c3920ac6e5ff37e36604cb11dfff8060001b905062000981565b60098203620004b7577e58459724ff6ca5a1652fcbc3e82b93895cf08e975b19beab3f54c217d1c00760001b905062000981565b600a8203620004ec577f1f04ef20dee48d39984d8eabe768a70eafa6310ad20849d4573c3c40c2ad1e3060001b905062000981565b600b820362000521577f1bea3dec5dab51567ce7e200a30f7ba6d4276aeaa53e2686f962a46c66d511e560001b905062000981565b600c820362000556577f0ee0f941e2da4b9e31c3ca97a40d8fa9ce68d97c084177071b3cb46cd3372f0f60001b905062000981565b600d82036200058b577f1ca9503e8935884501bbaf20be14eb4c46b89772c97b96e3b2ebf3a36a948bbd60001b905062000981565b600e8203620005c0577f133a80e30697cd55d8f7d4b0965b7be24057ba5dc3da898ee2187232446cb10860001b905062000981565b600f8203620005f5577f13e6d8fc88839ed76e182c2a779af5b2c0da9dd18c90427a644f7e148a6253b660001b905062000981565b601082036200062a577f1eb16b057a477f4bc8f572ea6bee39561098f78f15bfb3699dcbb7bd8db6185460001b905062000981565b601182036200065f577f0da2cb16a1ceaabf1c16b838f7a9e3f2a3a3088d9e0a6debaa748114620696ea60001b905062000981565b6012820362000694577f24a3b3d822420b14b5d8cb6c28a574f01e98ea9e940551d2ebd75cee12649f9d60001b905062000981565b60138203620006c9577f198622acbd783d1b0d9064105b1fc8e4d8889de95c4c519b3f635809fe6afc0560001b905062000981565b60148203620006fe577f29d7ed391256ccc3ea596c86e933b89ff339d25ea8ddced975ae2fe30b5296d460001b905062000981565b6015820362000733577f19be59f2f0413ce78c0c3703a3a5451b1d7f39629fa33abd11548a76065b296760001b905062000981565b6016820362000768577f1ff3f61797e538b70e619310d33f2a063e7eb59104e112e95738da1254dc345360001b905062000981565b601782036200079d577f10c16ae9959cf8358980d9dd9616e48228737310a10e2b6b731c1a548f036c4860001b905062000981565b60188203620007d2577f0ba433a63174a90ac20992e75e3095496812b652685b5e1a2eae0b1bf4e8fcd160001b905062000981565b6019820362000807577f019ddb9df2bc98d987d0dfeca9d2b643deafab8f7036562e627c3667266a044c60001b905062000981565b601a82036200083c577f2d3c88b23175c5a5565db928414c66d1912b11acf974b2e644caaac04739ce9960001b905062000981565b601b820362000871577f2eab55f6ae4e66e32c5189eed5c470840863445760f5ed7e7b69b2a62600f35460001b905062000981565b601c8203620008a5577e2df37a2642621802383cf952bf4dd1f32e05433beeb1fd41031fb7eace979d60001b905062000981565b601d8203620008da577f104aeb41435db66c3e62feccc1d6f5d98d0a0ed75d1374db457cf462e3a1f42760001b905062000981565b601e82036200090f577f1f3c6fd858e9a7d4b0d1f38e256a09d81d5a5e3c963987e2d4b814cfab7c6ebb60001b905062000981565b601f820362000944577f2c7a07d20dff79d01fecedc1134284a8d08436606c93693b67e333f671bf69cc60001b905062000981565b6040517f08c379a0000000000000000000000000000000000000000000000000000000008152600401620009789062000dd9565b60405180910390fd5b919050565b600080fd5b600073ffffffffffffffffffffffffffffffffffffffff82169050919050565b6000620009b8826200098b565b9050919050565b6000620009cc82620009ab565b9050919050565b620009de81620009bf565b8114620009ea57600080fd5b50565b600081519050620009fe81620009d3565b92915050565b600062000a1182620009ab565b9050919050565b62000a238162000a04565b811462000a2f57600080fd5b50565b60008151905062000a438162000a18565b92915050565b6000819050919050565b62000a5e8162000a49565b811462000a6a57600080fd5b50565b60008151905062000a7e8162000a53565b92915050565b600063ffffffff82169050919050565b62000a9f8162000a84565b811462000aab57600080fd5b50565b60008151905062000abf8162000a94565b92915050565b6000806000806080858703121562000ae25762000ae162000986565b5b600062000af287828801620009ed565b945050602062000b058782880162000a32565b935050604062000b188782880162000a6d565b925050606062000b2b8782880162000aae565b91505092959194509250565b600082825260208201905092915050565b7f5f6c6576656c732073686f756c642062652067726561746572207468616e207a60008201527f65726f0000000000000000000000000000000000000000000000000000000000602082015250565b600062000ba660238362000b37565b915062000bb38262000b48565b604082019050919050565b6000602082019050818103600083015262000bd98162000b97565b9050919050565b7f5f6c6576656c732073686f756c64206265206c657373207468616e2033320000600082015250565b600062000c18601e8362000b37565b915062000c258262000be0565b602082019050919050565b6000602082019050818103600083015262000c4b8162000c09565b9050919050565b7f4e487b7100000000000000000000000000000000000000000000000000000000600052601160045260246000fd5b600062000c8e8262000a84565b915063ffffffff820362000ca75762000ca662000c52565b5b600182019050919050565b600062000cbf8262000a84565b915062000ccc8362000a84565b9250828203905063ffffffff81111562000ceb5762000cea62000c52565b5b92915050565b7f64656e6f6d696e6174696f6e2073686f756c642062652067726561746572207460008201527f68616e2030000000000000000000000000000000000000000000000000000000602082015250565b600062000d4f60258362000b37565b915062000d5c8262000cf1565b604082019050919050565b6000602082019050818103600083015262000d828162000d40565b9050919050565b7f496e646578206f7574206f6620626f756e647300000000000000000000000000600082015250565b600062000dc160138362000b37565b915062000dce8262000d89565b602082019050919050565b6000602082019050818103600083015262000df48162000db2565b9050919050565b60805160a051612dc362000e2f600039600081816106a8015261085d0152600081816114a801526118700152612dc36000f3fe60806040526004361061012a5760003560e01c80639fa12d0b116100ab578063e5285dcc1161006f578063e5285dcc14610402578063e82955881461043f578063ec7329591461047c578063ed33639f146104a7578063f178e47c146104d2578063fc7e9c6f1461050f5761012a565b80639fa12d0b14610316578063b214faa514610353578063ba70f7571461036f578063c2b40ae41461039a578063cd87a3b4146103d75761012a565b80636d9833e3116100f25780636d9833e314610209578063839df945146102465780638bca6d16146102835780638ea3099e146102ae57806390eeb02b146102eb5761012a565b806317cc915c1461012f57806321a0adb61461016c5780632b7ac3f314610188578063414a37ba146101b35780634ecf518b146101de575b600080fd5b34801561013b57600080fd5b50610156600480360381019061015191906119ea565b61053a565b6040516101639190611a32565b60405180910390f35b61018660048036038101906101819190611b46565b61055a565b005b34801561019457600080fd5b5061019d61085b565b6040516101aa9190611c67565b60405180910390f35b3480156101bf57600080fd5b506101c861087f565b6040516101d59190611c91565b60405180910390f35b3480156101ea57600080fd5b506101f36108a3565b6040516102009190611ccb565b60405180910390f35b34801561021557600080fd5b50610230600480360381019061022b91906119ea565b6108b7565b60405161023d9190611a32565b60405180910390f35b34801561025257600080fd5b5061026d600480360381019061026891906119ea565b610954565b60405161027a9190611a32565b60405180910390f35b34801561028f57600080fd5b50610298610974565b6040516102a59190611c91565b60405180910390f35b3480156102ba57600080fd5b506102d560048036038101906102d09190611d36565b61097a565b6040516102e29190611d98565b60405180910390f35b3480156102f757600080fd5b50610300610b9c565b60405161030d9190611ccb565b60405180910390f35b34801561032257600080fd5b5061033d60048036038101906103389190611e09565b610bb2565b60405161034a9190611f14565b60405180910390f35b61036d600480360381019061036891906119ea565b610c79565b005b34801561037b57600080fd5b50610384610d69565b6040516103919190611d98565b60405180910390f35b3480156103a657600080fd5b506103c160048036038101906103bc9190611f36565b610d9c565b6040516103ce9190611d98565b60405180910390f35b3480156103e357600080fd5b506103ec610db4565b6040516103f99190611ccb565b60405180910390f35b34801561040e57600080fd5b50610429600480360381019061042491906119ea565b610db9565b6040516104369190611a32565b60405180910390f35b34801561044b57600080fd5b5061046660048036038101906104619190611f36565b610de3565b6040516104739190611d98565b60405180910390f35b34801561048857600080fd5b50610491611482565b60405161049e9190611c91565b60405180910390f35b3480156104b357600080fd5b506104bc6114a6565b6040516104c99190611f84565b60405180910390f35b3480156104de57600080fd5b506104f960048036038101906104f49190611f36565b6114ca565b6040516105069190611d98565b60405180910390f35b34801561051b57600080fd5b506105246114e2565b6040516105319190611ccb565b60405180910390f35b60066020528060005260406000206000915054906101000a900460ff1681565b6105626114f8565b6005548211156105a7576040517f08c379a000000000000000000000000000000000000000000000000000000000815260040161059e90611ffc565b60405180910390fd5b6006600086815260200190815260200160002060009054906101000a900460ff1615610608576040517f08c379a00000000000000000000000000000000000000000000000000000000081526004016105ff90612068565b60405180910390fd5b610611866108b7565b610650576040517f08c379a0000000000000000000000000000000000000000000000000000000008152600401610647906120d4565b60405180910390fd5b600084604051602001610663919061213c565b60405160208183030381529060405280519060200120905060008460405160200161068e919061213c565b6040516020818303038152906040528051906020012090507f000000000000000000000000000000000000000000000000000000000000000073ffffffffffffffffffffffffffffffffffffffff1663695ef6f98b8b6040518060c001604052808d60001c81526020018c60001c81526020018760001c81526020018660001c8152602001898152602001888152506040518463ffffffff1660e01b815260040161073b93929190612260565b6020604051808303816000875af115801561075a573d6000803e3d6000fd5b505050506040513d601f19601f8201168201806040525081019061077e91906122be565b6107bd576040517f08c379a00000000000000000000000000000000000000000000000000000000081526004016107b490612337565b60405180910390fd5b60016006600089815260200190815260200160002060006101000a81548160ff0219169083151502179055506107f58686868661153e565b8473ffffffffffffffffffffffffffffffffffffffff167fe9e508bad6d4c3227e881ca19068f099da81b5164dd6d62b2eaf1e8bc6c3493187898760405161083f93929190612378565b60405180910390a2505061085161173a565b5050505050505050565b7f000000000000000000000000000000000000000000000000000000000000000081565b7f30644e72e131a029b85045b68181585d2833e84879b9709143e1f593f000000181565b60008054906101000a900463ffffffff1681565b60008060001b82036108cc576000905061094f565b6000600360009054906101000a900463ffffffff16905060008190505b600260008263ffffffff1681526020019081526020016000205484036109145760019250505061094f565b60008163ffffffff160361092757601e90505b8080610932906123de565b9150508163ffffffff168163ffffffff16036108e9576000925050505b919050565b60076020528060005260406000206000915054906101000a900460ff1681565b60055481565b60007f30644e72e131a029b85045b68181585d2833e84879b9709143e1f593f00000018360001c106109e1576040517f08c379a00000000000000000000000000000000000000000000000000000000081526004016109d890612453565b60405180910390fd5b7f30644e72e131a029b85045b68181585d2833e84879b9709143e1f593f00000018260001c10610a46576040517f08c379a0000000000000000000000000000000000000000000000000000000008152600401610a3d906124e5565b60405180910390fd5b60008360001c905060008573ffffffffffffffffffffffffffffffffffffffff1663f47d33b583836040518363ffffffff1660e01b8152600401610a8b929190612505565b6040805180830381865afa158015610aa7573d6000803e3d6000fd5b505050506040513d601f19601f82011682018060405250810190610acb9190612543565b80925081935050507f30644e72e131a029b85045b68181585d2833e84879b9709143e1f593f000000180610b0257610b01612583565b5b8460001c830891508573ffffffffffffffffffffffffffffffffffffffff1663f47d33b583836040518363ffffffff1660e01b8152600401610b45929190612505565b6040805180830381865afa158015610b61573d6000803e3d6000fd5b505050506040513d601f19601f82011682018060405250810190610b859190612543565b80925081935050508160001b925050509392505050565b600360009054906101000a900463ffffffff1681565b60608282905067ffffffffffffffff811115610bd157610bd06125b2565b5b604051908082528060200260200182016040528015610bff5781602001602082028036833780820191505090505b50905060005b83839050811015610c7257610c32848483818110610c2657610c256125e1565b5b90506020020135610db9565b15610c5f576001828281518110610c4c57610c4b6125e1565b5b6020026020010190151590811515815250505b8080610c6a90612610565b915050610c05565b5092915050565b610c816114f8565b6007600082815260200190815260200160002060009054906101000a900460ff1615610ce2576040517f08c379a0000000000000000000000000000000000000000000000000000000008152600401610cd9906126ca565b60405180910390fd5b6000610ced82611744565b905060016007600084815260200190815260200160002060006101000a81548160ff021916908315150217905550610d23611964565b817fa945e51eec50ab98c161376f0db4cf2aeba3ec92755fe2fcd388bdbbb80ff1968242604051610d559291906126ea565b60405180910390a250610d6661173a565b50565b600060026000600360009054906101000a900463ffffffff1663ffffffff16815260200190815260200160002054905090565b60026020528060005260406000206000915090505481565b601e81565b60006006600083815260200190815260200160002060009054906101000a900460ff169050919050565b6000808203610e17577f2fe54c60d3acabf3343a35b6eba15db4821b340f76e741e2249685ed4899af6c60001b905061147d565b60018203610e4a577f256a6135777eee2fd26f54b8b7037a25439d5235caee224154186d2b8a52e31d60001b905061147d565b60028203610e7d577f1151949895e82ab19924de92c40a3d6f7bcb60d92b00504b8199613683f0c20060001b905061147d565b60038203610eb0577f20121ee811489ff8d61f09fb89e313f14959a0f28bb428a20dba6b0b068b3bdb60001b905061147d565b60048203610ee3577f0a89ca6ffa14cc462cfedb842c30ed221a50a3d6bf022a6a57dc82ab24c157c960001b905061147d565b60058203610f16577f24ca05c2b5cd42e890d6be94c68d0689f4f21c9cec9c0f13fe41d566dfb5495960001b905061147d565b60068203610f49577f1ccb97c932565a92c60156bdba2d08f3bf1377464e025cee765679e604a7315c60001b905061147d565b60078203610f7c577f19156fbd7d1a8bf5cba8909367de1b624534ebab4f0f79e003bccdd1b182bdb460001b905061147d565b60088203610faf577f261af8c1f0912e465744641409f622d466c3920ac6e5ff37e36604cb11dfff8060001b905061147d565b60098203610fe1577e58459724ff6ca5a1652fcbc3e82b93895cf08e975b19beab3f54c217d1c00760001b905061147d565b600a8203611014577f1f04ef20dee48d39984d8eabe768a70eafa6310ad20849d4573c3c40c2ad1e3060001b905061147d565b600b8203611047577f1bea3dec5dab51567ce7e200a30f7ba6d4276aeaa53e2686f962a46c66d511e560001b905061147d565b600c820361107a577f0ee0f941e2da4b9e31c3ca97a40d8fa9ce68d97c084177071b3cb46cd3372f0f60001b905061147d565b600d82036110ad577f1ca9503e8935884501bbaf20be14eb4c46b89772c97b96e3b2ebf3a36a948bbd60001b905061147d565b600e82036110e0577f133a80e30697cd55d8f7d4b0965b7be24057ba5dc3da898ee2187232446cb10860001b905061147d565b600f8203611113577f13e6d8fc88839ed76e182c2a779af5b2c0da9dd18c90427a644f7e148a6253b660001b905061147d565b60108203611146577f1eb16b057a477f4bc8f572ea6bee39561098f78f15bfb3699dcbb7bd8db6185460001b905061147d565b60118203611179577f0da2cb16a1ceaabf1c16b838f7a9e3f2a3a3088d9e0a6debaa748114620696ea60001b905061147d565b601282036111ac577f24a3b3d822420b14b5d8cb6c28a574f01e98ea9e940551d2ebd75cee12649f9d60001b905061147d565b601382036111df577f198622acbd783d1b0d9064105b1fc8e4d8889de95c4c519b3f635809fe6afc0560001b905061147d565b60148203611212577f29d7ed391256ccc3ea596c86e933b89ff339d25ea8ddced975ae2fe30b5296d460001b905061147d565b60158203611245577f19be59f2f0413ce78c0c3703a3a5451b1d7f39629fa33abd11548a76065b296760001b905061147d565b60168203611278577f1ff3f61797e538b70e619310d33f2a063e7eb59104e112e95738da1254dc345360001b905061147d565b601782036112ab577f10c16ae9959cf8358980d9dd9616e48228737310a10e2b6b731c1a548f036c4860001b905061147d565b601882036112de577f0ba433a63174a90ac20992e75e3095496812b652685b5e1a2eae0b1bf4e8fcd160001b905061147d565b60198203611311577f019ddb9df2bc98d987d0dfeca9d2b643deafab8f7036562e627c3667266a044c60001b905061147d565b601a8203611344577f2d3c88b23175c5a5565db928414c66d1912b11acf974b2e644caaac04739ce9960001b905061147d565b601b8203611377577f2eab55f6ae4e66e32c5189eed5c470840863445760f5ed7e7b69b2a62600f35460001b905061147d565b601c82036113a9577e2df37a2642621802383cf952bf4dd1f32e05433beeb1fd41031fb7eace979d60001b905061147d565b601d82036113dc577f104aeb41435db66c3e62feccc1d6f5d98d0a0ed75d1374db457cf462e3a1f42760001b905061147d565b601e820361140f577f1f3c6fd858e9a7d4b0d1f38e256a09d81d5a5e3c963987e2d4b814cfab7c6ebb60001b905061147d565b601f8203611442577f2c7a07d20dff79d01fecedc1134284a8d08436606c93693b67e333f671bf69cc60001b905061147d565b6040517f08c379a00000000000000000000000000000000000000000000000000000000081526004016114749061275f565b60405180910390fd5b919050565b7f2fe54c60d3acabf3343a35b6eba15db4821b340f76e741e2249685ed4899af6c81565b7f000000000000000000000000000000000000000000000000000000000000000081565b60016020528060005260406000206000915090505481565b600360049054906101000a900463ffffffff1681565b600260045403611534576040517f3ee5aeb500000000000000000000000000000000000000000000000000000000815260040160405180910390fd5b6002600481905550565b60003414611581576040517f08c379a0000000000000000000000000000000000000000000000000000000008152600401611578906127f1565b60405180910390fd5b600081146115c4576040517f08c379a00000000000000000000000000000000000000000000000000000000081526004016115bb90612883565b60405180910390fd5b60008473ffffffffffffffffffffffffffffffffffffffff16836005546115eb91906128a3565b6040516115f790612908565b60006040518083038185875af1925050503d8060008114611634576040519150601f19603f3d011682016040523d82523d6000602084013e611639565b606091505b505090508061167d576040517f08c379a00000000000000000000000000000000000000000000000000000000081526004016116749061298f565b60405180910390fd5b6000831115611733578373ffffffffffffffffffffffffffffffffffffffff16836040516116aa90612908565b60006040518083038185875af1925050503d80600081146116e7576040519150601f19603f3d011682016040523d82523d6000602084013e6116ec565b606091505b50508091505080611732576040517f08c379a000000000000000000000000000000000000000000000000000000000815260040161172990612a21565b60405180910390fd5b5b5050505050565b6001600481905550565b600080600360049054906101000a900463ffffffff16905060008054906101000a900463ffffffff1660026117799190612b74565b63ffffffff168163ffffffff16036117c6576040517f08c379a00000000000000000000000000000000000000000000000000000000081526004016117bd90612c15565b60405180910390fd5b6000819050600084905060008060005b60008054906101000a900463ffffffff1663ffffffff168163ffffffff1610156118ba5760006002866118099190612c35565b63ffffffff160361184b578392506118268163ffffffff16610de3565b915083600160008363ffffffff1681526020019081526020016000208190555061186b565b600160008263ffffffff1681526020019081526020016000205492508391505b6118967f0000000000000000000000000000000000000000000000000000000000000000848461097a565b93506002856118a59190612c66565b945080806118b290612c97565b9150506117d6565b506000601e6001600360009054906101000a900463ffffffff166118de9190612cc3565b6118e89190612c35565b905080600360006101000a81548163ffffffff021916908363ffffffff16021790555083600260008363ffffffff168152602001908152602001600020819055506001866119369190612cc3565b600360046101000a81548163ffffffff021916908363ffffffff160217905550859650505050505050919050565b60055434146119a8576040517f08c379a000000000000000000000000000000000000000000000000000000000815260040161199f90612d6d565b60405180910390fd5b565b600080fd5b600080fd5b6000819050919050565b6119c7816119b4565b81146119d257600080fd5b50565b6000813590506119e4816119be565b92915050565b600060208284031215611a00576119ff6119aa565b5b6000611a0e848285016119d5565b91505092915050565b60008115159050919050565b611a2c81611a17565b82525050565b6000602082019050611a476000830184611a23565b92915050565b600080fd5b600080fd5b600080fd5b60008083601f840112611a7257611a71611a4d565b5b8235905067ffffffffffffffff811115611a8f57611a8e611a52565b5b602083019150836001820283011115611aab57611aaa611a57565b5b9250929050565b600073ffffffffffffffffffffffffffffffffffffffff82169050919050565b6000611add82611ab2565b9050919050565b611aed81611ad2565b8114611af857600080fd5b50565b600081359050611b0a81611ae4565b92915050565b6000819050919050565b611b2381611b10565b8114611b2e57600080fd5b50565b600081359050611b4081611b1a565b92915050565b60008060008060008060008060e0898b031215611b6657611b656119aa565b5b600089013567ffffffffffffffff811115611b8457611b836119af565b5b611b908b828c01611a5c565b98509850506020611ba38b828c016119d5565b9650506040611bb48b828c016119d5565b9550506060611bc58b828c01611afb565b9450506080611bd68b828c01611afb565b93505060a0611be78b828c01611b31565b92505060c0611bf88b828c01611b31565b9150509295985092959890939650565b6000819050919050565b6000611c2d611c28611c2384611ab2565b611c08565b611ab2565b9050919050565b6000611c3f82611c12565b9050919050565b6000611c5182611c34565b9050919050565b611c6181611c46565b82525050565b6000602082019050611c7c6000830184611c58565b92915050565b611c8b81611b10565b82525050565b6000602082019050611ca66000830184611c82565b92915050565b600063ffffffff82169050919050565b611cc581611cac565b82525050565b6000602082019050611ce06000830184611cbc565b92915050565b6000611cf182611ab2565b9050919050565b6000611d0382611ce6565b9050919050565b611d1381611cf8565b8114611d1e57600080fd5b50565b600081359050611d3081611d0a565b92915050565b600080600060608486031215611d4f57611d4e6119aa565b5b6000611d5d86828701611d21565b9350506020611d6e868287016119d5565b9250506040611d7f868287016119d5565b9150509250925092565b611d92816119b4565b82525050565b6000602082019050611dad6000830184611d89565b92915050565b60008083601f840112611dc957611dc8611a4d565b5b8235905067ffffffffffffffff811115611de657611de5611a52565b5b602083019150836020820283011115611e0257611e01611a57565b5b9250929050565b60008060208385031215611e2057611e1f6119aa565b5b600083013567ffffffffffffffff811115611e3e57611e3d6119af565b5b611e4a85828601611db3565b92509250509250929050565b600081519050919050565b600082825260208201905092915050565b6000819050602082019050919050565b611e8b81611a17565b82525050565b6000611e9d8383611e82565b60208301905092915050565b6000602082019050919050565b6000611ec182611e56565b611ecb8185611e61565b9350611ed683611e72565b8060005b83811015611f07578151611eee8882611e91565b9750611ef983611ea9565b925050600181019050611eda565b5085935050505092915050565b60006020820190508181036000830152611f2e8184611eb6565b905092915050565b600060208284031215611f4c57611f4b6119aa565b5b6000611f5a84828501611b31565b91505092915050565b6000611f6e82611c34565b9050919050565b611f7e81611f63565b82525050565b6000602082019050611f996000830184611f75565b92915050565b600082825260208201905092915050565b7f4665652065786365656473207472616e736665722076616c7565000000000000600082015250565b6000611fe6601a83611f9f565b9150611ff182611fb0565b602082019050919050565b6000602082019050818103600083015261201581611fd9565b9050919050565b7f546865206e6f746520686173206265656e20616c7265616479207370656e7400600082015250565b6000612052601f83611f9f565b915061205d8261201c565b602082019050919050565b6000602082019050818103600083015261208181612045565b9050919050565b7f43616e6e6f742066696e6420796f7572206d65726b6c6520726f6f7400000000600082015250565b60006120be601c83611f9f565b91506120c982612088565b602082019050919050565b600060208201905081810360008301526120ed816120b1565b9050919050565b60008160601b9050919050565b600061210c826120f4565b9050919050565b600061211e82612101565b9050919050565b61213661213182611ad2565b612113565b82525050565b60006121488284612125565b60148201915081905092915050565b600082825260208201905092915050565b82818337600083830152505050565b6000601f19601f8301169050919050565b60006121948385612157565b93506121a1838584612168565b6121aa83612177565b840190509392505050565b600060069050919050565b600081905092915050565b6000819050919050565b6121de81611b10565b82525050565b60006121f083836121d5565b60208301905092915050565b6000602082019050919050565b612212816121b5565b61221c81846121c0565b9250612227826121cb565b8060005b8381101561225857815161223f87826121e4565b965061224a836121fc565b92505060018101905061222b565b505050505050565b600060e082019050818103600083015261227b818587612188565b905061228a6020830184612209565b949350505050565b61229b81611a17565b81146122a657600080fd5b50565b6000815190506122b881612292565b92915050565b6000602082840312156122d4576122d36119aa565b5b60006122e2848285016122a9565b91505092915050565b7f496e76616c69642077697468647261772070726f6f6600000000000000000000600082015250565b6000612321601683611f9f565b915061232c826122eb565b602082019050919050565b6000602082019050818103600083015261235081612314565b9050919050565b600061236282611c34565b9050919050565b61237281612357565b82525050565b600060608201905061238d6000830186612369565b61239a6020830185611d89565b6123a76040830184611c82565b949350505050565b7f4e487b7100000000000000000000000000000000000000000000000000000000600052601160045260246000fd5b60006123e982611cac565b9150600082036123fc576123fb6123af565b5b600182039050919050565b7f5f6c6566742073686f756c6420626520696e7369646520746865206669656c64600082015250565b600061243d602083611f9f565b915061244882612407565b602082019050919050565b6000602082019050818103600083015261246c81612430565b9050919050565b7f5f72696768742073686f756c6420626520696e7369646520746865206669656c60008201527f6400000000000000000000000000000000000000000000000000000000000000602082015250565b60006124cf602183611f9f565b91506124da82612473565b604082019050919050565b600060208201905081810360008301526124fe816124c2565b9050919050565b600060408201905061251a6000830185611c82565b6125276020830184611c82565b9392505050565b60008151905061253d81611b1a565b92915050565b6000806040838503121561255a576125596119aa565b5b60006125688582860161252e565b92505060206125798582860161252e565b9150509250929050565b7f4e487b7100000000000000000000000000000000000000000000000000000000600052601260045260246000fd5b7f4e487b7100000000000000000000000000000000000000000000000000000000600052604160045260246000fd5b7f4e487b7100000000000000000000000000000000000000000000000000000000600052603260045260246000fd5b600061261b82611b10565b91507fffffffffffffffffffffffffffffffffffffffffffffffffffffffffffffffff820361264d5761264c6123af565b5b600182019050919050565b7f54686520636f6d6d69746d656e7420686173206265656e207375626d6974746560008201527f6400000000000000000000000000000000000000000000000000000000000000602082015250565b60006126b4602183611f9f565b91506126bf82612658565b604082019050919050565b600060208201905081810360008301526126e3816126a7565b9050919050565b60006040820190506126ff6000830185611cbc565b61270c6020830184611c82565b9392505050565b7f496e646578206f7574206f6620626f756e647300000000000000000000000000600082015250565b6000612749601383611f9f565b915061275482612713565b602082019050919050565b600060208201905081810360008301526127788161273c565b9050919050565b7f4d6573736167652076616c756520697320737570706f73656420746f2062652060008201527f7a65726f20666f722045544820696e7374616e63650000000000000000000000602082015250565b60006127db603583611f9f565b91506127e68261277f565b604082019050919050565b6000602082019050818103600083015261280a816127ce565b9050919050565b7f526566756e642076616c756520697320737570706f73656420746f206265207a60008201527f65726f20666f722045544820696e7374616e6365000000000000000000000000602082015250565b600061286d603483611f9f565b915061287882612811565b604082019050919050565b6000602082019050818103600083015261289c81612860565b9050919050565b60006128ae82611b10565b91506128b983611b10565b92508282039050818111156128d1576128d06123af565b5b92915050565b600081905092915050565b50565b60006128f26000836128d7565b91506128fd826128e2565b600082019050919050565b6000612913826128e5565b9150819050919050565b7f7061796d656e7420746f205f726563697069656e7420646964206e6f7420676f60008201527f2074687275000000000000000000000000000000000000000000000000000000602082015250565b6000612979602583611f9f565b91506129848261291d565b604082019050919050565b600060208201905081810360008301526129a88161296c565b9050919050565b7f7061796d656e7420746f205f72656c6179657220646964206e6f7420676f207460008201527f6872750000000000000000000000000000000000000000000000000000000000602082015250565b6000612a0b602383611f9f565b9150612a16826129af565b604082019050919050565b60006020820190508181036000830152612a3a816129fe565b9050919050565b60008160011c9050919050565b6000808291508390505b6001851115612a9857808604811115612a7457612a736123af565b5b6001851615612a835780820291505b8081029050612a9185612a41565b9450612a58565b94509492505050565b600082612ab15760019050612b6d565b81612abf5760009050612b6d565b8160018114612ad55760028114612adf57612b0e565b6001915050612b6d565b60ff841115612af157612af06123af565b5b8360020a915084821115612b0857612b076123af565b5b50612b6d565b5060208310610133831016604e8410600b8410161715612b435782820a905083811115612b3e57612b3d6123af565b5b612b6d565b612b508484846001612a4e565b92509050818404811115612b6757612b666123af565b5b81810290505b9392505050565b6000612b7f82611cac565b9150612b8a83611cac565b9250612b9b63ffffffff8484612aa1565b905092915050565b7f4d65726b6c6520747265652069732066756c6c2e204e6f206d6f7265206c656160008201527f7665732063616e20626520616464656400000000000000000000000000000000602082015250565b6000612bff603083611f9f565b9150612c0a82612ba3565b604082019050919050565b60006020820190508181036000830152612c2e81612bf2565b9050919050565b6000612c4082611cac565b9150612c4b83611cac565b925082612c5b57612c5a612583565b5b828206905092915050565b6000612c7182611cac565b9150612c7c83611cac565b925082612c8c57612c8b612583565b5b828204905092915050565b6000612ca282611cac565b915063ffffffff8203612cb857612cb76123af565b5b600182019050919050565b6000612cce82611cac565b9150612cd983611cac565b9250828201905063ffffffff811115612cf557612cf46123af565b5b92915050565b7f506c656173652073656e6420606d697844656e6f6d696e6174696f6e6020455460008201527f4820616c6f6e672077697468207472616e73616374696f6e0000000000000000602082015250565b6000612d57603883611f9f565b9150612d6282612cfb565b604082019050919050565b60006020820190508181036000830152612d8681612d4a565b905091905056fea26469706673582212202689d87cc21ddfd8d432b5c25ca0ddfa66511975faebc5837e5c2b8e8355ed2a64736f6c63430008120033",
  "immutableReferences": {
    "1750": [
      {
        "length": 32,
        "start": 5288
      },
      {
        "length": 32,
        "start": 6256
      }
    ],
    "2633": [
      {
        "length": 32,
        "start": 1704
      },
      {
        "length": 32,
        "start": 2141
      }
    ]
  },
  "source": "// SPDX-License-Identifier: MIT\npragma solidity ^0.8.18;\n\n\nimport \"./Tornado.sol\";\n\ncontract ETHTornado is Tornado {\n  constructor(\n    IVerifier _verifier,\n    IHasher _hasher,\n    uint256 _denomination,\n    uint32 _merkleTreeHeight\n  ) Tornado(_verifier, _hasher, _denomination, _merkleTreeHeight) {}\n\n  function _processDeposit() internal override {\n    require(msg.value == denomination, \"Please send `mixDenomination` ETH along with transaction\");\n  }\n\n  function _processWithdraw(\n    address payable _recipient,\n    address payable _relayer,\n    uint256 _fee,\n    uint256 _refund\n  ) internal override {\n    // sanity checks\n    require(msg.value == 0, \"Message value is supposed to be zero for ETH instance\");\n    require(_refund == 0, \"Refund value is supposed to be zero for ETH instance\");\n\n    (bool success, ) = _recipient.call{ value: denomination - _fee }(\"\");\n    require(success, \"payment to _recipient did not go thru\");\n    if (_fee > 0) {\n      (success, ) = _relayer.call{ value: _fee }(\"\");\n      require(success, \"payment to _relayer did not go thru\");\n    }\n  }\n}\n",
  "sourcePath": "/Users/kayak/Blockchain/myProjects/universal_nodes/fund/zuzaluhack/truffle/contracts/ETHTornado.sol",
  "compiler": {
    "name": "solc",
    "version": "0.8.18+commit.87f61d96.Emscripten.clang"
  },
  "schemaVersion": "3.4.16",
  "updatedAt": "2024-01-04T08:01:23.307Z",
  "networkType": "ethereum",
  "devdoc": {
    "errors": {
      "ReentrancyGuardReentrantCall()": [
        {
          "details": "Unauthorized reentrant call."
        }
      ]
    },
    "kind": "dev",
    "methods": {
      "deposit(bytes32)": {
        "details": "Deposit funds into the contract. The caller must send (for ETH) or approve (for ERC20) value equal to or `denomination` of this instance.",
        "params": {
          "_commitment": "the note commitment, which is PedersenHash(nullifier + secret)"
        }
      },
      "getLastRoot()": {
        "details": "Returns the last root"
      },
      "hashLeftRight(address,bytes32,bytes32)": {
        "details": "Hash 2 tree leaves, returns MiMC(_left, _right)"
      },
      "isKnownRoot(bytes32)": {
        "details": "Whether the root is present in the root history"
      },
      "isSpent(bytes32)": {
        "details": "whether a note is already spent "
      },
      "isSpentArray(bytes32[])": {
        "details": "whether an array of notes is already spent "
      },
      "withdraw(bytes,bytes32,bytes32,address,address,uint256,uint256)": {
        "details": "Withdraw a deposit from the contract. `proof` is a zkSNARK proof data, and input is an array of circuit public inputs `input` array consists of: - merkle root of all deposits in the contract - hash of unique deposit nullifier to prevent double spends - the recipient of funds - optional fee that goes to the transaction sender (usually a relay)"
      },
      "zeros(uint256)": {
        "details": "provides Zero (Empty) elements for a MiMC MerkleTree. Up to 32 levels"
      }
    },
    "version": 1
  },
  "userdoc": {
    "kind": "user",
    "methods": {},
    "version": 1
  }
}