{
  "contractName": "MerkleTreeWithHistory",
  "abi": [
    {
      "inputs": [
        {
          "internalType": "uint32",
          "name": "_levels",
          "type": "uint32"
        },
        {
          "internalType": "contract IHasher",
          "name": "_hasher",
          "type": "address"
        }
      ],
      "stateMutability": "nonpayable",
      "type": "constructor"
    },
    {
      "inputs": [],
      "name": "FIELD_SIZE",
      "outputs": [
        {
          "internalType": "uint256",
          "name": "",
          "type": "uint256"
        }
      ],
      "stateMutability": "view",
      "type": "function"
    },
    {
      "inputs": [],
      "name": "ROOT_HISTORY_SIZE",
      "outputs": [
        {
          "internalType": "uint32",
          "name": "",
          "type": "uint32"
        }
      ],
      "stateMutability": "view",
      "type": "function"
    },
    {
      "inputs": [],
      "name": "ZERO_VALUE",
      "outputs": [
        {
          "internalType": "uint256",
          "name": "",
          "type": "uint256"
        }
      ],
      "stateMutability": "view",
      "type": "function"
    },
    {
      "inputs": [],
      "name": "currentRootIndex",
      "outputs": [
        {
          "internalType": "uint32",
          "name": "",
          "type": "uint32"
        }
      ],
      "stateMutability": "view",
      "type": "function"
    },
    {
      "inputs": [
        {
          "internalType": "uint256",
          "name": "",
          "type": "uint256"
        }
      ],
      "name": "filledSubtrees",
      "outputs": [
        {
          "internalType": "bytes32",
          "name": "",
          "type": "bytes32"
        }
      ],
      "stateMutability": "view",
      "type": "function"
    },
    {
      "inputs": [],
      "name": "hasher",
      "outputs": [
        {
          "internalType": "contract IHasher",
          "name": "",
          "type": "address"
        }
      ],
      "stateMutability": "view",
      "type": "function"
    },
    {
      "inputs": [],
      "name": "levels",
      "outputs": [
        {
          "internalType": "uint32",
          "name": "",
          "type": "uint32"
        }
      ],
      "stateMutability": "view",
      "type": "function"
    },
    {
      "inputs": [],
      "name": "nextIndex",
      "outputs": [
        {
          "internalType": "uint32",
          "name": "",
          "type": "uint32"
        }
      ],
      "stateMutability": "view",
      "type": "function"
    },
    {
      "inputs": [
        {
          "internalType": "uint256",
          "name": "",
          "type": "uint256"
        }
      ],
      "name": "roots",
      "outputs": [
        {
          "internalType": "bytes32",
          "name": "",
          "type": "bytes32"
        }
      ],
      "stateMutability": "view",
      "type": "function"
    },
    {
      "inputs": [
        {
          "internalType": "contract IHasher",
          "name": "_hasher",
          "type": "address"
        },
        {
          "internalType": "bytes32",
          "name": "_left",
          "type": "bytes32"
        },
        {
          "internalType": "bytes32",
          "name": "_right",
          "type": "bytes32"
        }
      ],
      "name": "hashLeftRight",
      "outputs": [
        {
          "internalType": "bytes32",
          "name": "",
          "type": "bytes32"
        }
      ],
      "stateMutability": "pure",
      "type": "function"
    },
    {
      "inputs": [
        {
          "internalType": "bytes32",
          "name": "_root",
          "type": "bytes32"
        }
      ],
      "name": "isKnownRoot",
      "outputs": [
        {
          "internalType": "bool",
          "name": "",
          "type": "bool"
        }
      ],
      "stateMutability": "view",
      "type": "function"
    },
    {
      "inputs": [],
      "name": "getLastRoot",
      "outputs": [
        {
          "internalType": "bytes32",
          "name": "",
          "type": "bytes32"
        }
      ],
      "stateMutability": "view",
      "type": "function"
    },
    {
      "inputs": [
        {
          "internalType": "uint256",
          "name": "i",
          "type": "uint256"
        }
      ],
      "name": "zeros",
      "outputs": [
        {
          "internalType": "bytes32",
          "name": "",
          "type": "bytes32"
        }
      ],
      "stateMutability": "pure",
      "type": "function"
    }
  ],
  "bytecode": "0x60a06040526000600360006101000a81548163ffffffff021916908363ffffffff1602179055506000600360046101000a81548163ffffffff021916908363ffffffff1602179055503480156200005557600080fd5b5060405162001ee538038062001ee583398181016040528101906200007b9190620009ae565b60008263ffffffff1611620000c7576040517f08c379a0000000000000000000000000000000000000000000000000000000008152600401620000be9062000a7c565b60405180910390fd5b60208263ffffffff161062000113576040517f08c379a00000000000000000000000000000000000000000000000000000000081526004016200010a9062000aee565b60405180910390fd5b816000806101000a81548163ffffffff021916908363ffffffff1602179055508073ffffffffffffffffffffffffffffffffffffffff1660808173ffffffffffffffffffffffffffffffffffffffff168152505060005b8263ffffffff168163ffffffff161015620001c957620001968163ffffffff166200020e60201b60201c565b600160008363ffffffff168152602001908152602001600020819055508080620001c09062000b3f565b9150506200016a565b50620001ef600183620001dd919062000b70565b63ffffffff166200020e60201b60201c565b6002600080815260200190815260200160002081905550505062000c21565b600080820362000244577f2fe54c60d3acabf3343a35b6eba15db4821b340f76e741e2249685ed4899af6c60001b9050620008ea565b6001820362000279577f256a6135777eee2fd26f54b8b7037a25439d5235caee224154186d2b8a52e31d60001b9050620008ea565b60028203620002ae577f1151949895e82ab19924de92c40a3d6f7bcb60d92b00504b8199613683f0c20060001b9050620008ea565b60038203620002e3577f20121ee811489ff8d61f09fb89e313f14959a0f28bb428a20dba6b0b068b3bdb60001b9050620008ea565b6004820362000318577f0a89ca6ffa14cc462cfedb842c30ed221a50a3d6bf022a6a57dc82ab24c157c960001b9050620008ea565b600582036200034d577f24ca05c2b5cd42e890d6be94c68d0689f4f21c9cec9c0f13fe41d566dfb5495960001b9050620008ea565b6006820362000382577f1ccb97c932565a92c60156bdba2d08f3bf1377464e025cee765679e604a7315c60001b9050620008ea565b60078203620003b7577f19156fbd7d1a8bf5cba8909367de1b624534ebab4f0f79e003bccdd1b182bdb460001b9050620008ea565b60088203620003ec577f261af8c1f0912e465744641409f622d466c3920ac6e5ff37e36604cb11dfff8060001b9050620008ea565b6009820362000420577e58459724ff6ca5a1652fcbc3e82b93895cf08e975b19beab3f54c217d1c00760001b9050620008ea565b600a820362000455577f1f04ef20dee48d39984d8eabe768a70eafa6310ad20849d4573c3c40c2ad1e3060001b9050620008ea565b600b82036200048a577f1bea3dec5dab51567ce7e200a30f7ba6d4276aeaa53e2686f962a46c66d511e560001b9050620008ea565b600c8203620004bf577f0ee0f941e2da4b9e31c3ca97a40d8fa9ce68d97c084177071b3cb46cd3372f0f60001b9050620008ea565b600d8203620004f4577f1ca9503e8935884501bbaf20be14eb4c46b89772c97b96e3b2ebf3a36a948bbd60001b9050620008ea565b600e820362000529577f133a80e30697cd55d8f7d4b0965b7be24057ba5dc3da898ee2187232446cb10860001b9050620008ea565b600f82036200055e577f13e6d8fc88839ed76e182c2a779af5b2c0da9dd18c90427a644f7e148a6253b660001b9050620008ea565b6010820362000593577f1eb16b057a477f4bc8f572ea6bee39561098f78f15bfb3699dcbb7bd8db6185460001b9050620008ea565b60118203620005c8577f0da2cb16a1ceaabf1c16b838f7a9e3f2a3a3088d9e0a6debaa748114620696ea60001b9050620008ea565b60128203620005fd577f24a3b3d822420b14b5d8cb6c28a574f01e98ea9e940551d2ebd75cee12649f9d60001b9050620008ea565b6013820362000632577f198622acbd783d1b0d9064105b1fc8e4d8889de95c4c519b3f635809fe6afc0560001b9050620008ea565b6014820362000667577f29d7ed391256ccc3ea596c86e933b89ff339d25ea8ddced975ae2fe30b5296d460001b9050620008ea565b601582036200069c577f19be59f2f0413ce78c0c3703a3a5451b1d7f39629fa33abd11548a76065b296760001b9050620008ea565b60168203620006d1577f1ff3f61797e538b70e619310d33f2a063e7eb59104e112e95738da1254dc345360001b9050620008ea565b6017820362000706577f10c16ae9959cf8358980d9dd9616e48228737310a10e2b6b731c1a548f036c4860001b9050620008ea565b601882036200073b577f0ba433a63174a90ac20992e75e3095496812b652685b5e1a2eae0b1bf4e8fcd160001b9050620008ea565b6019820362000770577f019ddb9df2bc98d987d0dfeca9d2b643deafab8f7036562e627c3667266a044c60001b9050620008ea565b601a8203620007a5577f2d3c88b23175c5a5565db928414c66d1912b11acf974b2e644caaac04739ce9960001b9050620008ea565b601b8203620007da577f2eab55f6ae4e66e32c5189eed5c470840863445760f5ed7e7b69b2a62600f35460001b9050620008ea565b601c82036200080e577e2df37a2642621802383cf952bf4dd1f32e05433beeb1fd41031fb7eace979d60001b9050620008ea565b601d820362000843577f104aeb41435db66c3e62feccc1d6f5d98d0a0ed75d1374db457cf462e3a1f42760001b9050620008ea565b601e820362000878577f1f3c6fd858e9a7d4b0d1f38e256a09d81d5a5e3c963987e2d4b814cfab7c6ebb60001b9050620008ea565b601f8203620008ad577f2c7a07d20dff79d01fecedc1134284a8d08436606c93693b67e333f671bf69cc60001b9050620008ea565b6040517f08c379a0000000000000000000000000000000000000000000000000000000008152600401620008e19062000bff565b60405180910390fd5b919050565b600080fd5b600063ffffffff82169050919050565b6200090f81620008f4565b81146200091b57600080fd5b50565b6000815190506200092f8162000904565b92915050565b600073ffffffffffffffffffffffffffffffffffffffff82169050919050565b6000620009628262000935565b9050919050565b6000620009768262000955565b9050919050565b620009888162000969565b81146200099457600080fd5b50565b600081519050620009a8816200097d565b92915050565b60008060408385031215620009c857620009c7620008ef565b5b6000620009d8858286016200091e565b9250506020620009eb8582860162000997565b9150509250929050565b600082825260208201905092915050565b7f5f6c6576656c732073686f756c642062652067726561746572207468616e207a60008201527f65726f0000000000000000000000000000000000000000000000000000000000602082015250565b600062000a64602383620009f5565b915062000a718262000a06565b604082019050919050565b6000602082019050818103600083015262000a978162000a55565b9050919050565b7f5f6c6576656c732073686f756c64206265206c657373207468616e2033320000600082015250565b600062000ad6601e83620009f5565b915062000ae38262000a9e565b602082019050919050565b6000602082019050818103600083015262000b098162000ac7565b9050919050565b7f4e487b7100000000000000000000000000000000000000000000000000000000600052601160045260246000fd5b600062000b4c82620008f4565b915063ffffffff820362000b655762000b6462000b10565b5b600182019050919050565b600062000b7d82620008f4565b915062000b8a83620008f4565b9250828203905063ffffffff81111562000ba95762000ba862000b10565b5b92915050565b7f496e646578206f7574206f6620626f756e647300000000000000000000000000600082015250565b600062000be7601383620009f5565b915062000bf48262000baf565b602082019050919050565b6000602082019050818103600083015262000c1a8162000bd8565b9050919050565b6080516112a862000c3d6000396000610cd601526112a86000f3fe608060405234801561001057600080fd5b50600436106100cf5760003560e01c8063c2b40ae41161008c578063ec73295911610066578063ec7329591461022a578063ed33639f14610248578063f178e47c14610266578063fc7e9c6f14610296576100cf565b8063c2b40ae4146101ac578063cd87a3b4146101dc578063e8295588146101fa576100cf565b8063414a37ba146100d45780634ecf518b146100f25780636d9833e3146101105780638ea3099e1461014057806390eeb02b14610170578063ba70f7571461018e575b600080fd5b6100dc6102b4565b6040516100e99190610d3f565b60405180910390f35b6100fa6102d8565b6040516101079190610d79565b60405180910390f35b61012a60048036038101906101259190610dcf565b6102ec565b6040516101379190610e17565b60405180910390f35b61015a60048036038101906101559190610ea2565b610389565b6040516101679190610f04565b60405180910390f35b6101786105ab565b6040516101859190610d79565b60405180910390f35b6101966105c1565b6040516101a39190610f04565b60405180910390f35b6101c660048036038101906101c19190610f4b565b6105f4565b6040516101d39190610f04565b60405180910390f35b6101e461060c565b6040516101f19190610d79565b60405180910390f35b610214600480360381019061020f9190610f4b565b610611565b6040516102219190610f04565b60405180910390f35b610232610cb0565b60405161023f9190610d3f565b60405180910390f35b610250610cd4565b60405161025d9190610fd7565b60405180910390f35b610280600480360381019061027b9190610f4b565b610cf8565b60405161028d9190610f04565b60405180910390f35b61029e610d10565b6040516102ab9190610d79565b60405180910390f35b7f30644e72e131a029b85045b68181585d2833e84879b9709143e1f593f000000181565b60008054906101000a900463ffffffff1681565b60008060001b82036103015760009050610384565b6000600360009054906101000a900463ffffffff16905060008190505b600260008263ffffffff16815260200190815260200160002054840361034957600192505050610384565b60008163ffffffff160361035c57601e90505b808061036790611021565b9150508163ffffffff168163ffffffff160361031e576000925050505b919050565b60007f30644e72e131a029b85045b68181585d2833e84879b9709143e1f593f00000018360001c106103f0576040517f08c379a00000000000000000000000000000000000000000000000000000000081526004016103e7906110a7565b60405180910390fd5b7f30644e72e131a029b85045b68181585d2833e84879b9709143e1f593f00000018260001c10610455576040517f08c379a000000000000000000000000000000000000000000000000000000000815260040161044c90611139565b60405180910390fd5b60008360001c905060008573ffffffffffffffffffffffffffffffffffffffff1663f47d33b583836040518363ffffffff1660e01b815260040161049a929190611159565b6040805180830381865afa1580156104b6573d6000803e3d6000fd5b505050506040513d601f19601f820116820180604052508101906104da9190611197565b80925081935050507f30644e72e131a029b85045b68181585d2833e84879b9709143e1f593f000000180610511576105106111d7565b5b8460001c830891508573ffffffffffffffffffffffffffffffffffffffff1663f47d33b583836040518363ffffffff1660e01b8152600401610554929190611159565b6040805180830381865afa158015610570573d6000803e3d6000fd5b505050506040513d601f19601f820116820180604052508101906105949190611197565b80925081935050508160001b925050509392505050565b600360009054906101000a900463ffffffff1681565b600060026000600360009054906101000a900463ffffffff1663ffffffff16815260200190815260200160002054905090565b60026020528060005260406000206000915090505481565b601e81565b6000808203610645577f2fe54c60d3acabf3343a35b6eba15db4821b340f76e741e2249685ed4899af6c60001b9050610cab565b60018203610678577f256a6135777eee2fd26f54b8b7037a25439d5235caee224154186d2b8a52e31d60001b9050610cab565b600282036106ab577f1151949895e82ab19924de92c40a3d6f7bcb60d92b00504b8199613683f0c20060001b9050610cab565b600382036106de577f20121ee811489ff8d61f09fb89e313f14959a0f28bb428a20dba6b0b068b3bdb60001b9050610cab565b60048203610711577f0a89ca6ffa14cc462cfedb842c30ed221a50a3d6bf022a6a57dc82ab24c157c960001b9050610cab565b60058203610744577f24ca05c2b5cd42e890d6be94c68d0689f4f21c9cec9c0f13fe41d566dfb5495960001b9050610cab565b60068203610777577f1ccb97c932565a92c60156bdba2d08f3bf1377464e025cee765679e604a7315c60001b9050610cab565b600782036107aa577f19156fbd7d1a8bf5cba8909367de1b624534ebab4f0f79e003bccdd1b182bdb460001b9050610cab565b600882036107dd577f261af8c1f0912e465744641409f622d466c3920ac6e5ff37e36604cb11dfff8060001b9050610cab565b6009820361080f577e58459724ff6ca5a1652fcbc3e82b93895cf08e975b19beab3f54c217d1c00760001b9050610cab565b600a8203610842577f1f04ef20dee48d39984d8eabe768a70eafa6310ad20849d4573c3c40c2ad1e3060001b9050610cab565b600b8203610875577f1bea3dec5dab51567ce7e200a30f7ba6d4276aeaa53e2686f962a46c66d511e560001b9050610cab565b600c82036108a8577f0ee0f941e2da4b9e31c3ca97a40d8fa9ce68d97c084177071b3cb46cd3372f0f60001b9050610cab565b600d82036108db577f1ca9503e8935884501bbaf20be14eb4c46b89772c97b96e3b2ebf3a36a948bbd60001b9050610cab565b600e820361090e577f133a80e30697cd55d8f7d4b0965b7be24057ba5dc3da898ee2187232446cb10860001b9050610cab565b600f8203610941577f13e6d8fc88839ed76e182c2a779af5b2c0da9dd18c90427a644f7e148a6253b660001b9050610cab565b60108203610974577f1eb16b057a477f4bc8f572ea6bee39561098f78f15bfb3699dcbb7bd8db6185460001b9050610cab565b601182036109a7577f0da2cb16a1ceaabf1c16b838f7a9e3f2a3a3088d9e0a6debaa748114620696ea60001b9050610cab565b601282036109da577f24a3b3d822420b14b5d8cb6c28a574f01e98ea9e940551d2ebd75cee12649f9d60001b9050610cab565b60138203610a0d577f198622acbd783d1b0d9064105b1fc8e4d8889de95c4c519b3f635809fe6afc0560001b9050610cab565b60148203610a40577f29d7ed391256ccc3ea596c86e933b89ff339d25ea8ddced975ae2fe30b5296d460001b9050610cab565b60158203610a73577f19be59f2f0413ce78c0c3703a3a5451b1d7f39629fa33abd11548a76065b296760001b9050610cab565b60168203610aa6577f1ff3f61797e538b70e619310d33f2a063e7eb59104e112e95738da1254dc345360001b9050610cab565b60178203610ad9577f10c16ae9959cf8358980d9dd9616e48228737310a10e2b6b731c1a548f036c4860001b9050610cab565b60188203610b0c577f0ba433a63174a90ac20992e75e3095496812b652685b5e1a2eae0b1bf4e8fcd160001b9050610cab565b60198203610b3f577f019ddb9df2bc98d987d0dfeca9d2b643deafab8f7036562e627c3667266a044c60001b9050610cab565b601a8203610b72577f2d3c88b23175c5a5565db928414c66d1912b11acf974b2e644caaac04739ce9960001b9050610cab565b601b8203610ba5577f2eab55f6ae4e66e32c5189eed5c470840863445760f5ed7e7b69b2a62600f35460001b9050610cab565b601c8203610bd7577e2df37a2642621802383cf952bf4dd1f32e05433beeb1fd41031fb7eace979d60001b9050610cab565b601d8203610c0a577f104aeb41435db66c3e62feccc1d6f5d98d0a0ed75d1374db457cf462e3a1f42760001b9050610cab565b601e8203610c3d577f1f3c6fd858e9a7d4b0d1f38e256a09d81d5a5e3c963987e2d4b814cfab7c6ebb60001b9050610cab565b601f8203610c70577f2c7a07d20dff79d01fecedc1134284a8d08436606c93693b67e333f671bf69cc60001b9050610cab565b6040517f08c379a0000000000000000000000000000000000000000000000000000000008152600401610ca290611252565b60405180910390fd5b919050565b7f2fe54c60d3acabf3343a35b6eba15db4821b340f76e741e2249685ed4899af6c81565b7f000000000000000000000000000000000000000000000000000000000000000081565b60016020528060005260406000206000915090505481565b600360049054906101000a900463ffffffff1681565b6000819050919050565b610d3981610d26565b82525050565b6000602082019050610d546000830184610d30565b92915050565b600063ffffffff82169050919050565b610d7381610d5a565b82525050565b6000602082019050610d8e6000830184610d6a565b92915050565b600080fd5b6000819050919050565b610dac81610d99565b8114610db757600080fd5b50565b600081359050610dc981610da3565b92915050565b600060208284031215610de557610de4610d94565b5b6000610df384828501610dba565b91505092915050565b60008115159050919050565b610e1181610dfc565b82525050565b6000602082019050610e2c6000830184610e08565b92915050565b600073ffffffffffffffffffffffffffffffffffffffff82169050919050565b6000610e5d82610e32565b9050919050565b6000610e6f82610e52565b9050919050565b610e7f81610e64565b8114610e8a57600080fd5b50565b600081359050610e9c81610e76565b92915050565b600080600060608486031215610ebb57610eba610d94565b5b6000610ec986828701610e8d565b9350506020610eda86828701610dba565b9250506040610eeb86828701610dba565b9150509250925092565b610efe81610d99565b82525050565b6000602082019050610f196000830184610ef5565b92915050565b610f2881610d26565b8114610f3357600080fd5b50565b600081359050610f4581610f1f565b92915050565b600060208284031215610f6157610f60610d94565b5b6000610f6f84828501610f36565b91505092915050565b6000819050919050565b6000610f9d610f98610f9384610e32565b610f78565b610e32565b9050919050565b6000610faf82610f82565b9050919050565b6000610fc182610fa4565b9050919050565b610fd181610fb6565b82525050565b6000602082019050610fec6000830184610fc8565b92915050565b7f4e487b7100000000000000000000000000000000000000000000000000000000600052601160045260246000fd5b600061102c82610d5a565b91506000820361103f5761103e610ff2565b5b600182039050919050565b600082825260208201905092915050565b7f5f6c6566742073686f756c6420626520696e7369646520746865206669656c64600082015250565b600061109160208361104a565b915061109c8261105b565b602082019050919050565b600060208201905081810360008301526110c081611084565b9050919050565b7f5f72696768742073686f756c6420626520696e7369646520746865206669656c60008201527f6400000000000000000000000000000000000000000000000000000000000000602082015250565b600061112360218361104a565b915061112e826110c7565b604082019050919050565b6000602082019050818103600083015261115281611116565b9050919050565b600060408201905061116e6000830185610d30565b61117b6020830184610d30565b9392505050565b60008151905061119181610f1f565b92915050565b600080604083850312156111ae576111ad610d94565b5b60006111bc85828601611182565b92505060206111cd85828601611182565b9150509250929050565b7f4e487b7100000000000000000000000000000000000000000000000000000000600052601260045260246000fd5b7f496e646578206f7574206f6620626f756e647300000000000000000000000000600082015250565b600061123c60138361104a565b915061124782611206565b602082019050919050565b6000602082019050818103600083015261126b8161122f565b905091905056fea2646970667358221220d9b95ebd113ddf46af0d2225d5359096591fb00ea62d67eb95357839b620e48364736f6c63430008120033",
  "immutableReferences": {
    "1750": [
      {
        "length": 32,
        "start": 3286
      }
    ]
  },
  "source": "\n// SPDX-License-Identifier: MIT\npragma solidity ^0.8.18;\n\n\ninterface IHasher {\n  function MiMCSponge(uint256 in_xL, uint256 in_xR) external pure returns (uint256 xL, uint256 xR);\n}\n\ncontract MerkleTreeWithHistory {\n  uint256 public constant FIELD_SIZE = 21888242871839275222246405745257275088548364400416034343698204186575808495617;\n  uint256 public constant ZERO_VALUE = 21663839004416932945382355908790599225266501822907911457504978515578255421292; // = keccak256(\"tornado\") % FIELD_SIZE\n  IHasher public immutable hasher;\n\n  uint32 public levels;\n\n  // the following variables are made public for easier testing and debugging and\n  // are not supposed to be accessed in regular code\n\n  // filledSubtrees and roots could be bytes32[size], but using mappings makes it cheaper because\n  // it removes index range check on every interaction\n  mapping(uint256 => bytes32) public filledSubtrees;\n  mapping(uint256 => bytes32) public roots;\n  uint32 public constant ROOT_HISTORY_SIZE = 30;\n  uint32 public currentRootIndex = 0;\n  uint32 public nextIndex = 0;\n\n  constructor(uint32 _levels, IHasher _hasher) {\n    require(_levels > 0, \"_levels should be greater than zero\");\n    require(_levels < 32, \"_levels should be less than 32\");\n    levels = _levels;\n    hasher = _hasher;\n\n    for (uint32 i = 0; i < _levels; i++) {\n      filledSubtrees[i] = zeros(i);\n    }\n\n    roots[0] = zeros(_levels - 1);\n  }\n\n  /**\n    @dev Hash 2 tree leaves, returns MiMC(_left, _right)\n  */\n  function hashLeftRight(\n    IHasher _hasher,\n    bytes32 _left,\n    bytes32 _right\n  ) public pure returns (bytes32) {\n    require(uint256(_left) < FIELD_SIZE, \"_left should be inside the field\");\n    require(uint256(_right) < FIELD_SIZE, \"_right should be inside the field\");\n    uint256 R = uint256(_left);\n    uint256 C = 0;\n    (R, C) = _hasher.MiMCSponge(R, C);\n    R = addmod(R, uint256(_right), FIELD_SIZE);\n    (R, C) = _hasher.MiMCSponge(R, C);\n    return bytes32(R);\n  }\n\n  function _insert(bytes32 _leaf) internal returns (uint32 index) {\n    uint32 _nextIndex = nextIndex;\n    require(_nextIndex != uint32(2)**levels, \"Merkle tree is full. No more leaves can be added\");\n    uint32 currentIndex = _nextIndex;\n    bytes32 currentLevelHash = _leaf;\n    bytes32 left;\n    bytes32 right;\n\n    for (uint32 i = 0; i < levels; i++) {\n      if (currentIndex % 2 == 0) {\n        left = currentLevelHash;\n        right = zeros(i);\n        filledSubtrees[i] = currentLevelHash;\n      } else {\n        left = filledSubtrees[i];\n        right = currentLevelHash;\n      }\n      currentLevelHash = hashLeftRight(hasher, left, right);\n      currentIndex /= 2;\n    }\n\n    uint32 newRootIndex = (currentRootIndex + 1) % ROOT_HISTORY_SIZE;\n    currentRootIndex = newRootIndex;\n    roots[newRootIndex] = currentLevelHash;\n    nextIndex = _nextIndex + 1;\n    return _nextIndex;\n  }\n\n  /**\n    @dev Whether the root is present in the root history\n  */\n  function isKnownRoot(bytes32 _root) public view returns (bool) {\n    if (_root == 0) {\n      return false;\n    }\n    uint32 _currentRootIndex = currentRootIndex;\n    uint32 i = _currentRootIndex;\n    do {\n      if (_root == roots[i]) {\n        return true;\n      }\n      if (i == 0) {\n        i = ROOT_HISTORY_SIZE;\n      }\n      i--;\n    } while (i != _currentRootIndex);\n    return false;\n  }\n\n  /**\n    @dev Returns the last root\n  */\n  function getLastRoot() public view returns (bytes32) {\n    return roots[currentRootIndex];\n  }\n\n  /// @dev provides Zero (Empty) elements for a MiMC MerkleTree. Up to 32 levels\n  function zeros(uint256 i) public pure returns (bytes32) {\n    if (i == 0) return bytes32(0x2fe54c60d3acabf3343a35b6eba15db4821b340f76e741e2249685ed4899af6c);\n    else if (i == 1) return bytes32(0x256a6135777eee2fd26f54b8b7037a25439d5235caee224154186d2b8a52e31d);\n    else if (i == 2) return bytes32(0x1151949895e82ab19924de92c40a3d6f7bcb60d92b00504b8199613683f0c200);\n    else if (i == 3) return bytes32(0x20121ee811489ff8d61f09fb89e313f14959a0f28bb428a20dba6b0b068b3bdb);\n    else if (i == 4) return bytes32(0x0a89ca6ffa14cc462cfedb842c30ed221a50a3d6bf022a6a57dc82ab24c157c9);\n    else if (i == 5) return bytes32(0x24ca05c2b5cd42e890d6be94c68d0689f4f21c9cec9c0f13fe41d566dfb54959);\n    else if (i == 6) return bytes32(0x1ccb97c932565a92c60156bdba2d08f3bf1377464e025cee765679e604a7315c);\n    else if (i == 7) return bytes32(0x19156fbd7d1a8bf5cba8909367de1b624534ebab4f0f79e003bccdd1b182bdb4);\n    else if (i == 8) return bytes32(0x261af8c1f0912e465744641409f622d466c3920ac6e5ff37e36604cb11dfff80);\n    else if (i == 9) return bytes32(0x0058459724ff6ca5a1652fcbc3e82b93895cf08e975b19beab3f54c217d1c007);\n    else if (i == 10) return bytes32(0x1f04ef20dee48d39984d8eabe768a70eafa6310ad20849d4573c3c40c2ad1e30);\n    else if (i == 11) return bytes32(0x1bea3dec5dab51567ce7e200a30f7ba6d4276aeaa53e2686f962a46c66d511e5);\n    else if (i == 12) return bytes32(0x0ee0f941e2da4b9e31c3ca97a40d8fa9ce68d97c084177071b3cb46cd3372f0f);\n    else if (i == 13) return bytes32(0x1ca9503e8935884501bbaf20be14eb4c46b89772c97b96e3b2ebf3a36a948bbd);\n    else if (i == 14) return bytes32(0x133a80e30697cd55d8f7d4b0965b7be24057ba5dc3da898ee2187232446cb108);\n    else if (i == 15) return bytes32(0x13e6d8fc88839ed76e182c2a779af5b2c0da9dd18c90427a644f7e148a6253b6);\n    else if (i == 16) return bytes32(0x1eb16b057a477f4bc8f572ea6bee39561098f78f15bfb3699dcbb7bd8db61854);\n    else if (i == 17) return bytes32(0x0da2cb16a1ceaabf1c16b838f7a9e3f2a3a3088d9e0a6debaa748114620696ea);\n    else if (i == 18) return bytes32(0x24a3b3d822420b14b5d8cb6c28a574f01e98ea9e940551d2ebd75cee12649f9d);\n    else if (i == 19) return bytes32(0x198622acbd783d1b0d9064105b1fc8e4d8889de95c4c519b3f635809fe6afc05);\n    else if (i == 20) return bytes32(0x29d7ed391256ccc3ea596c86e933b89ff339d25ea8ddced975ae2fe30b5296d4);\n    else if (i == 21) return bytes32(0x19be59f2f0413ce78c0c3703a3a5451b1d7f39629fa33abd11548a76065b2967);\n    else if (i == 22) return bytes32(0x1ff3f61797e538b70e619310d33f2a063e7eb59104e112e95738da1254dc3453);\n    else if (i == 23) return bytes32(0x10c16ae9959cf8358980d9dd9616e48228737310a10e2b6b731c1a548f036c48);\n    else if (i == 24) return bytes32(0x0ba433a63174a90ac20992e75e3095496812b652685b5e1a2eae0b1bf4e8fcd1);\n    else if (i == 25) return bytes32(0x019ddb9df2bc98d987d0dfeca9d2b643deafab8f7036562e627c3667266a044c);\n    else if (i == 26) return bytes32(0x2d3c88b23175c5a5565db928414c66d1912b11acf974b2e644caaac04739ce99);\n    else if (i == 27) return bytes32(0x2eab55f6ae4e66e32c5189eed5c470840863445760f5ed7e7b69b2a62600f354);\n    else if (i == 28) return bytes32(0x002df37a2642621802383cf952bf4dd1f32e05433beeb1fd41031fb7eace979d);\n    else if (i == 29) return bytes32(0x104aeb41435db66c3e62feccc1d6f5d98d0a0ed75d1374db457cf462e3a1f427);\n    else if (i == 30) return bytes32(0x1f3c6fd858e9a7d4b0d1f38e256a09d81d5a5e3c963987e2d4b814cfab7c6ebb);\n    else if (i == 31) return bytes32(0x2c7a07d20dff79d01fecedc1134284a8d08436606c93693b67e333f671bf69cc);\n    else revert(\"Index out of bounds\");\n  }\n}\n",
  "sourcePath": "/Users/kayak/Blockchain/myProjects/universal_nodes/fund/zuzaluhack/truffle/contracts/MerkleTreeWithHistory.sol",
  "compiler": {
    "name": "solc",
    "version": "0.8.18+commit.87f61d96.Emscripten.clang"
  },
  "schemaVersion": "3.4.16",
  "updatedAt": "2024-01-03T07:16:32.597Z",
  "devdoc": {
    "kind": "dev",
    "methods": {
      "getLastRoot()": {
        "details": "Returns the last root"
      },
      "hashLeftRight(address,bytes32,bytes32)": {
        "details": "Hash 2 tree leaves, returns MiMC(_left, _right)"
      },
      "isKnownRoot(bytes32)": {
        "details": "Whether the root is present in the root history"
      },
      "zeros(uint256)": {
        "details": "provides Zero (Empty) elements for a MiMC MerkleTree. Up to 32 levels"
      }
    },
    "version": 1
  },
  "userdoc": {
    "kind": "user",
    "methods": {},
    "version": 1
  }
}