{
  "contractName": "MerkleTreeWithHistoryMock",
  "abi": [
    {
      "inputs": [
        {
          "internalType": "uint32",
          "name": "_treeLevels",
          "type": "uint32"
        },
        {
          "internalType": "contract IHasher",
          "name": "_hasher",
          "type": "address"
        }
      ],
      "stateMutability": "nonpayable",
      "type": "constructor"
    },
    {
      "inputs": [],
      "name": "FIELD_SIZE",
      "outputs": [
        {
          "internalType": "uint256",
          "name": "",
          "type": "uint256"
        }
      ],
      "stateMutability": "view",
      "type": "function"
    },
    {
      "inputs": [],
      "name": "ROOT_HISTORY_SIZE",
      "outputs": [
        {
          "internalType": "uint32",
          "name": "",
          "type": "uint32"
        }
      ],
      "stateMutability": "view",
      "type": "function"
    },
    {
      "inputs": [],
      "name": "ZERO_VALUE",
      "outputs": [
        {
          "internalType": "uint256",
          "name": "",
          "type": "uint256"
        }
      ],
      "stateMutability": "view",
      "type": "function"
    },
    {
      "inputs": [],
      "name": "currentRootIndex",
      "outputs": [
        {
          "internalType": "uint32",
          "name": "",
          "type": "uint32"
        }
      ],
      "stateMutability": "view",
      "type": "function"
    },
    {
      "inputs": [
        {
          "internalType": "uint256",
          "name": "",
          "type": "uint256"
        }
      ],
      "name": "filledSubtrees",
      "outputs": [
        {
          "internalType": "bytes32",
          "name": "",
          "type": "bytes32"
        }
      ],
      "stateMutability": "view",
      "type": "function"
    },
    {
      "inputs": [],
      "name": "getLastRoot",
      "outputs": [
        {
          "internalType": "bytes32",
          "name": "",
          "type": "bytes32"
        }
      ],
      "stateMutability": "view",
      "type": "function"
    },
    {
      "inputs": [
        {
          "internalType": "contract IHasher",
          "name": "_hasher",
          "type": "address"
        },
        {
          "internalType": "bytes32",
          "name": "_left",
          "type": "bytes32"
        },
        {
          "internalType": "bytes32",
          "name": "_right",
          "type": "bytes32"
        }
      ],
      "name": "hashLeftRight",
      "outputs": [
        {
          "internalType": "bytes32",
          "name": "",
          "type": "bytes32"
        }
      ],
      "stateMutability": "pure",
      "type": "function"
    },
    {
      "inputs": [],
      "name": "hasher",
      "outputs": [
        {
          "internalType": "contract IHasher",
          "name": "",
          "type": "address"
        }
      ],
      "stateMutability": "view",
      "type": "function"
    },
    {
      "inputs": [
        {
          "internalType": "bytes32",
          "name": "_root",
          "type": "bytes32"
        }
      ],
      "name": "isKnownRoot",
      "outputs": [
        {
          "internalType": "bool",
          "name": "",
          "type": "bool"
        }
      ],
      "stateMutability": "view",
      "type": "function"
    },
    {
      "inputs": [],
      "name": "levels",
      "outputs": [
        {
          "internalType": "uint32",
          "name": "",
          "type": "uint32"
        }
      ],
      "stateMutability": "view",
      "type": "function"
    },
    {
      "inputs": [],
      "name": "nextIndex",
      "outputs": [
        {
          "internalType": "uint32",
          "name": "",
          "type": "uint32"
        }
      ],
      "stateMutability": "view",
      "type": "function"
    },
    {
      "inputs": [
        {
          "internalType": "uint256",
          "name": "",
          "type": "uint256"
        }
      ],
      "name": "roots",
      "outputs": [
        {
          "internalType": "bytes32",
          "name": "",
          "type": "bytes32"
        }
      ],
      "stateMutability": "view",
      "type": "function"
    },
    {
      "inputs": [
        {
          "internalType": "uint256",
          "name": "i",
          "type": "uint256"
        }
      ],
      "name": "zeros",
      "outputs": [
        {
          "internalType": "bytes32",
          "name": "",
          "type": "bytes32"
        }
      ],
      "stateMutability": "pure",
      "type": "function"
    },
    {
      "inputs": [
        {
          "internalType": "bytes32",
          "name": "_leaf",
          "type": "bytes32"
        }
      ],
      "name": "insert",
      "outputs": [],
      "stateMutability": "nonpayable",
      "type": "function"
    }
  ],
  "bytecode": "0x60a06040526000600360006101000a81548163ffffffff021916908363ffffffff1602179055506000600360046101000a81548163ffffffff021916908363ffffffff1602179055503480156200005557600080fd5b506040516200240e3803806200240e83398181016040528101906200007b9190620009b2565b818160008263ffffffff1611620000c9576040517f08c379a0000000000000000000000000000000000000000000000000000000008152600401620000c09062000a80565b60405180910390fd5b60208263ffffffff161062000115576040517f08c379a00000000000000000000000000000000000000000000000000000000081526004016200010c9062000af2565b60405180910390fd5b816000806101000a81548163ffffffff021916908363ffffffff1602179055508073ffffffffffffffffffffffffffffffffffffffff1660808173ffffffffffffffffffffffffffffffffffffffff168152505060005b8263ffffffff168163ffffffff161015620001cb57620001988163ffffffff166200021260201b60201c565b600160008363ffffffff168152602001908152602001600020819055508080620001c29062000b43565b9150506200016c565b50620001f1600183620001df919062000b74565b63ffffffff166200021260201b60201c565b60026000808152602001908152602001600020819055505050505062000c25565b600080820362000248577f2fe54c60d3acabf3343a35b6eba15db4821b340f76e741e2249685ed4899af6c60001b9050620008ee565b600182036200027d577f256a6135777eee2fd26f54b8b7037a25439d5235caee224154186d2b8a52e31d60001b9050620008ee565b60028203620002b2577f1151949895e82ab19924de92c40a3d6f7bcb60d92b00504b8199613683f0c20060001b9050620008ee565b60038203620002e7577f20121ee811489ff8d61f09fb89e313f14959a0f28bb428a20dba6b0b068b3bdb60001b9050620008ee565b600482036200031c577f0a89ca6ffa14cc462cfedb842c30ed221a50a3d6bf022a6a57dc82ab24c157c960001b9050620008ee565b6005820362000351577f24ca05c2b5cd42e890d6be94c68d0689f4f21c9cec9c0f13fe41d566dfb5495960001b9050620008ee565b6006820362000386577f1ccb97c932565a92c60156bdba2d08f3bf1377464e025cee765679e604a7315c60001b9050620008ee565b60078203620003bb577f19156fbd7d1a8bf5cba8909367de1b624534ebab4f0f79e003bccdd1b182bdb460001b9050620008ee565b60088203620003f0577f261af8c1f0912e465744641409f622d466c3920ac6e5ff37e36604cb11dfff8060001b9050620008ee565b6009820362000424577e58459724ff6ca5a1652fcbc3e82b93895cf08e975b19beab3f54c217d1c00760001b9050620008ee565b600a820362000459577f1f04ef20dee48d39984d8eabe768a70eafa6310ad20849d4573c3c40c2ad1e3060001b9050620008ee565b600b82036200048e577f1bea3dec5dab51567ce7e200a30f7ba6d4276aeaa53e2686f962a46c66d511e560001b9050620008ee565b600c8203620004c3577f0ee0f941e2da4b9e31c3ca97a40d8fa9ce68d97c084177071b3cb46cd3372f0f60001b9050620008ee565b600d8203620004f8577f1ca9503e8935884501bbaf20be14eb4c46b89772c97b96e3b2ebf3a36a948bbd60001b9050620008ee565b600e82036200052d577f133a80e30697cd55d8f7d4b0965b7be24057ba5dc3da898ee2187232446cb10860001b9050620008ee565b600f820362000562577f13e6d8fc88839ed76e182c2a779af5b2c0da9dd18c90427a644f7e148a6253b660001b9050620008ee565b6010820362000597577f1eb16b057a477f4bc8f572ea6bee39561098f78f15bfb3699dcbb7bd8db6185460001b9050620008ee565b60118203620005cc577f0da2cb16a1ceaabf1c16b838f7a9e3f2a3a3088d9e0a6debaa748114620696ea60001b9050620008ee565b6012820362000601577f24a3b3d822420b14b5d8cb6c28a574f01e98ea9e940551d2ebd75cee12649f9d60001b9050620008ee565b6013820362000636577f198622acbd783d1b0d9064105b1fc8e4d8889de95c4c519b3f635809fe6afc0560001b9050620008ee565b601482036200066b577f29d7ed391256ccc3ea596c86e933b89ff339d25ea8ddced975ae2fe30b5296d460001b9050620008ee565b60158203620006a0577f19be59f2f0413ce78c0c3703a3a5451b1d7f39629fa33abd11548a76065b296760001b9050620008ee565b60168203620006d5577f1ff3f61797e538b70e619310d33f2a063e7eb59104e112e95738da1254dc345360001b9050620008ee565b601782036200070a577f10c16ae9959cf8358980d9dd9616e48228737310a10e2b6b731c1a548f036c4860001b9050620008ee565b601882036200073f577f0ba433a63174a90ac20992e75e3095496812b652685b5e1a2eae0b1bf4e8fcd160001b9050620008ee565b6019820362000774577f019ddb9df2bc98d987d0dfeca9d2b643deafab8f7036562e627c3667266a044c60001b9050620008ee565b601a8203620007a9577f2d3c88b23175c5a5565db928414c66d1912b11acf974b2e644caaac04739ce9960001b9050620008ee565b601b8203620007de577f2eab55f6ae4e66e32c5189eed5c470840863445760f5ed7e7b69b2a62600f35460001b9050620008ee565b601c820362000812577e2df37a2642621802383cf952bf4dd1f32e05433beeb1fd41031fb7eace979d60001b9050620008ee565b601d820362000847577f104aeb41435db66c3e62feccc1d6f5d98d0a0ed75d1374db457cf462e3a1f42760001b9050620008ee565b601e82036200087c577f1f3c6fd858e9a7d4b0d1f38e256a09d81d5a5e3c963987e2d4b814cfab7c6ebb60001b9050620008ee565b601f8203620008b1577f2c7a07d20dff79d01fecedc1134284a8d08436606c93693b67e333f671bf69cc60001b9050620008ee565b6040517f08c379a0000000000000000000000000000000000000000000000000000000008152600401620008e59062000c03565b60405180910390fd5b919050565b600080fd5b600063ffffffff82169050919050565b6200091381620008f8565b81146200091f57600080fd5b50565b600081519050620009338162000908565b92915050565b600073ffffffffffffffffffffffffffffffffffffffff82169050919050565b6000620009668262000939565b9050919050565b60006200097a8262000959565b9050919050565b6200098c816200096d565b81146200099857600080fd5b50565b600081519050620009ac8162000981565b92915050565b60008060408385031215620009cc57620009cb620008f3565b5b6000620009dc8582860162000922565b9250506020620009ef858286016200099b565b9150509250929050565b600082825260208201905092915050565b7f5f6c6576656c732073686f756c642062652067726561746572207468616e207a60008201527f65726f0000000000000000000000000000000000000000000000000000000000602082015250565b600062000a68602383620009f9565b915062000a758262000a0a565b604082019050919050565b6000602082019050818103600083015262000a9b8162000a59565b9050919050565b7f5f6c6576656c732073686f756c64206265206c657373207468616e2033320000600082015250565b600062000ada601e83620009f9565b915062000ae78262000aa2565b602082019050919050565b6000602082019050818103600083015262000b0d8162000acb565b9050919050565b7f4e487b7100000000000000000000000000000000000000000000000000000000600052601160045260246000fd5b600062000b5082620008f8565b915063ffffffff820362000b695762000b6862000b14565b5b600182019050919050565b600062000b8182620008f8565b915062000b8e83620008f8565b9250828203905063ffffffff81111562000bad5762000bac62000b14565b5b92915050565b7f496e646578206f7574206f6620626f756e647300000000000000000000000000600082015250565b600062000beb601383620009f9565b915062000bf88262000bb3565b602082019050919050565b6000602082019050818103600083015262000c1e8162000bdc565b9050919050565b6080516117c662000c4860003960008181610d1a0152610e9601526117c66000f3fe608060405234801561001057600080fd5b50600436106100ea5760003560e01c8063c2b40ae41161008c578063ec73295911610066578063ec73295914610261578063ed33639f1461027f578063f178e47c1461029d578063fc7e9c6f146102cd576100ea565b8063c2b40ae4146101e3578063cd87a3b414610213578063e829558814610231576100ea565b80636d9833e3116100c85780636d9833e3146101475780638ea3099e1461017757806390eeb02b146101a7578063ba70f757146101c5576100ea565b80632d287e43146100ef578063414a37ba1461010b5780634ecf518b14610129575b600080fd5b61010960048036038101906101049190610fc5565b6102eb565b005b6101136102f8565b604051610120919061100b565b60405180910390f35b61013161031c565b60405161013e9190611045565b60405180910390f35b610161600480360381019061015c9190610fc5565b610330565b60405161016e919061107b565b60405180910390f35b610191600480360381019061018c9190611106565b6103cd565b60405161019e9190611168565b60405180910390f35b6101af6105ef565b6040516101bc9190611045565b60405180910390f35b6101cd610605565b6040516101da9190611168565b60405180910390f35b6101fd60048036038101906101f891906111af565b610638565b60405161020a9190611168565b60405180910390f35b61021b610650565b6040516102289190611045565b60405180910390f35b61024b600480360381019061024691906111af565b610655565b6040516102589190611168565b60405180910390f35b610269610cf4565b604051610276919061100b565b60405180910390f35b610287610d18565b604051610294919061123b565b60405180910390f35b6102b760048036038101906102b291906111af565b610d3c565b6040516102c49190611168565b60405180910390f35b6102d5610d54565b6040516102e29190611045565b60405180910390f35b6102f481610d6a565b5050565b7f30644e72e131a029b85045b68181585d2833e84879b9709143e1f593f000000181565b60008054906101000a900463ffffffff1681565b60008060001b820361034557600090506103c8565b6000600360009054906101000a900463ffffffff16905060008190505b600260008263ffffffff16815260200190815260200160002054840361038d576001925050506103c8565b60008163ffffffff16036103a057601e90505b80806103ab90611285565b9150508163ffffffff168163ffffffff1603610362576000925050505b919050565b60007f30644e72e131a029b85045b68181585d2833e84879b9709143e1f593f00000018360001c10610434576040517f08c379a000000000000000000000000000000000000000000000000000000000815260040161042b9061130b565b60405180910390fd5b7f30644e72e131a029b85045b68181585d2833e84879b9709143e1f593f00000018260001c10610499576040517f08c379a00000000000000000000000000000000000000000000000000000000081526004016104909061139d565b60405180910390fd5b60008360001c905060008573ffffffffffffffffffffffffffffffffffffffff1663f47d33b583836040518363ffffffff1660e01b81526004016104de9291906113bd565b6040805180830381865afa1580156104fa573d6000803e3d6000fd5b505050506040513d601f19601f8201168201806040525081019061051e91906113fb565b80925081935050507f30644e72e131a029b85045b68181585d2833e84879b9709143e1f593f0000001806105555761055461143b565b5b8460001c830891508573ffffffffffffffffffffffffffffffffffffffff1663f47d33b583836040518363ffffffff1660e01b81526004016105989291906113bd565b6040805180830381865afa1580156105b4573d6000803e3d6000fd5b505050506040513d601f19601f820116820180604052508101906105d891906113fb565b80925081935050508160001b925050509392505050565b600360009054906101000a900463ffffffff1681565b600060026000600360009054906101000a900463ffffffff1663ffffffff16815260200190815260200160002054905090565b60026020528060005260406000206000915090505481565b601e81565b6000808203610689577f2fe54c60d3acabf3343a35b6eba15db4821b340f76e741e2249685ed4899af6c60001b9050610cef565b600182036106bc577f256a6135777eee2fd26f54b8b7037a25439d5235caee224154186d2b8a52e31d60001b9050610cef565b600282036106ef577f1151949895e82ab19924de92c40a3d6f7bcb60d92b00504b8199613683f0c20060001b9050610cef565b60038203610722577f20121ee811489ff8d61f09fb89e313f14959a0f28bb428a20dba6b0b068b3bdb60001b9050610cef565b60048203610755577f0a89ca6ffa14cc462cfedb842c30ed221a50a3d6bf022a6a57dc82ab24c157c960001b9050610cef565b60058203610788577f24ca05c2b5cd42e890d6be94c68d0689f4f21c9cec9c0f13fe41d566dfb5495960001b9050610cef565b600682036107bb577f1ccb97c932565a92c60156bdba2d08f3bf1377464e025cee765679e604a7315c60001b9050610cef565b600782036107ee577f19156fbd7d1a8bf5cba8909367de1b624534ebab4f0f79e003bccdd1b182bdb460001b9050610cef565b60088203610821577f261af8c1f0912e465744641409f622d466c3920ac6e5ff37e36604cb11dfff8060001b9050610cef565b60098203610853577e58459724ff6ca5a1652fcbc3e82b93895cf08e975b19beab3f54c217d1c00760001b9050610cef565b600a8203610886577f1f04ef20dee48d39984d8eabe768a70eafa6310ad20849d4573c3c40c2ad1e3060001b9050610cef565b600b82036108b9577f1bea3dec5dab51567ce7e200a30f7ba6d4276aeaa53e2686f962a46c66d511e560001b9050610cef565b600c82036108ec577f0ee0f941e2da4b9e31c3ca97a40d8fa9ce68d97c084177071b3cb46cd3372f0f60001b9050610cef565b600d820361091f577f1ca9503e8935884501bbaf20be14eb4c46b89772c97b96e3b2ebf3a36a948bbd60001b9050610cef565b600e8203610952577f133a80e30697cd55d8f7d4b0965b7be24057ba5dc3da898ee2187232446cb10860001b9050610cef565b600f8203610985577f13e6d8fc88839ed76e182c2a779af5b2c0da9dd18c90427a644f7e148a6253b660001b9050610cef565b601082036109b8577f1eb16b057a477f4bc8f572ea6bee39561098f78f15bfb3699dcbb7bd8db6185460001b9050610cef565b601182036109eb577f0da2cb16a1ceaabf1c16b838f7a9e3f2a3a3088d9e0a6debaa748114620696ea60001b9050610cef565b60128203610a1e577f24a3b3d822420b14b5d8cb6c28a574f01e98ea9e940551d2ebd75cee12649f9d60001b9050610cef565b60138203610a51577f198622acbd783d1b0d9064105b1fc8e4d8889de95c4c519b3f635809fe6afc0560001b9050610cef565b60148203610a84577f29d7ed391256ccc3ea596c86e933b89ff339d25ea8ddced975ae2fe30b5296d460001b9050610cef565b60158203610ab7577f19be59f2f0413ce78c0c3703a3a5451b1d7f39629fa33abd11548a76065b296760001b9050610cef565b60168203610aea577f1ff3f61797e538b70e619310d33f2a063e7eb59104e112e95738da1254dc345360001b9050610cef565b60178203610b1d577f10c16ae9959cf8358980d9dd9616e48228737310a10e2b6b731c1a548f036c4860001b9050610cef565b60188203610b50577f0ba433a63174a90ac20992e75e3095496812b652685b5e1a2eae0b1bf4e8fcd160001b9050610cef565b60198203610b83577f019ddb9df2bc98d987d0dfeca9d2b643deafab8f7036562e627c3667266a044c60001b9050610cef565b601a8203610bb6577f2d3c88b23175c5a5565db928414c66d1912b11acf974b2e644caaac04739ce9960001b9050610cef565b601b8203610be9577f2eab55f6ae4e66e32c5189eed5c470840863445760f5ed7e7b69b2a62600f35460001b9050610cef565b601c8203610c1b577e2df37a2642621802383cf952bf4dd1f32e05433beeb1fd41031fb7eace979d60001b9050610cef565b601d8203610c4e577f104aeb41435db66c3e62feccc1d6f5d98d0a0ed75d1374db457cf462e3a1f42760001b9050610cef565b601e8203610c81577f1f3c6fd858e9a7d4b0d1f38e256a09d81d5a5e3c963987e2d4b814cfab7c6ebb60001b9050610cef565b601f8203610cb4577f2c7a07d20dff79d01fecedc1134284a8d08436606c93693b67e333f671bf69cc60001b9050610cef565b6040517f08c379a0000000000000000000000000000000000000000000000000000000008152600401610ce6906114b6565b60405180910390fd5b919050565b7f2fe54c60d3acabf3343a35b6eba15db4821b340f76e741e2249685ed4899af6c81565b7f000000000000000000000000000000000000000000000000000000000000000081565b60016020528060005260406000206000915090505481565b600360049054906101000a900463ffffffff1681565b600080600360049054906101000a900463ffffffff16905060008054906101000a900463ffffffff166002610d9f9190611609565b63ffffffff168163ffffffff1603610dec576040517f08c379a0000000000000000000000000000000000000000000000000000000008152600401610de3906116aa565b60405180910390fd5b6000819050600084905060008060005b60008054906101000a900463ffffffff1663ffffffff168163ffffffff161015610ee0576000600286610e2f91906116ca565b63ffffffff1603610e7157839250610e4c8163ffffffff16610655565b915083600160008363ffffffff16815260200190815260200160002081905550610e91565b600160008263ffffffff1681526020019081526020016000205492508391505b610ebc7f000000000000000000000000000000000000000000000000000000000000000084846103cd565b9350600285610ecb91906116fb565b94508080610ed89061172c565b915050610dfc565b506000601e6001600360009054906101000a900463ffffffff16610f049190611758565b610f0e91906116ca565b905080600360006101000a81548163ffffffff021916908363ffffffff16021790555083600260008363ffffffff16815260200190815260200160002081905550600186610f5c9190611758565b600360046101000a81548163ffffffff021916908363ffffffff160217905550859650505050505050919050565b600080fd5b6000819050919050565b610fa281610f8f565b8114610fad57600080fd5b50565b600081359050610fbf81610f99565b92915050565b600060208284031215610fdb57610fda610f8a565b5b6000610fe984828501610fb0565b91505092915050565b6000819050919050565b61100581610ff2565b82525050565b60006020820190506110206000830184610ffc565b92915050565b600063ffffffff82169050919050565b61103f81611026565b82525050565b600060208201905061105a6000830184611036565b92915050565b60008115159050919050565b61107581611060565b82525050565b6000602082019050611090600083018461106c565b92915050565b600073ffffffffffffffffffffffffffffffffffffffff82169050919050565b60006110c182611096565b9050919050565b60006110d3826110b6565b9050919050565b6110e3816110c8565b81146110ee57600080fd5b50565b600081359050611100816110da565b92915050565b60008060006060848603121561111f5761111e610f8a565b5b600061112d868287016110f1565b935050602061113e86828701610fb0565b925050604061114f86828701610fb0565b9150509250925092565b61116281610f8f565b82525050565b600060208201905061117d6000830184611159565b92915050565b61118c81610ff2565b811461119757600080fd5b50565b6000813590506111a981611183565b92915050565b6000602082840312156111c5576111c4610f8a565b5b60006111d38482850161119a565b91505092915050565b6000819050919050565b60006112016111fc6111f784611096565b6111dc565b611096565b9050919050565b6000611213826111e6565b9050919050565b600061122582611208565b9050919050565b6112358161121a565b82525050565b6000602082019050611250600083018461122c565b92915050565b7f4e487b7100000000000000000000000000000000000000000000000000000000600052601160045260246000fd5b600061129082611026565b9150600082036112a3576112a2611256565b5b600182039050919050565b600082825260208201905092915050565b7f5f6c6566742073686f756c6420626520696e7369646520746865206669656c64600082015250565b60006112f56020836112ae565b9150611300826112bf565b602082019050919050565b60006020820190508181036000830152611324816112e8565b9050919050565b7f5f72696768742073686f756c6420626520696e7369646520746865206669656c60008201527f6400000000000000000000000000000000000000000000000000000000000000602082015250565b60006113876021836112ae565b91506113928261132b565b604082019050919050565b600060208201905081810360008301526113b68161137a565b9050919050565b60006040820190506113d26000830185610ffc565b6113df6020830184610ffc565b9392505050565b6000815190506113f581611183565b92915050565b6000806040838503121561141257611411610f8a565b5b6000611420858286016113e6565b9250506020611431858286016113e6565b9150509250929050565b7f4e487b7100000000000000000000000000000000000000000000000000000000600052601260045260246000fd5b7f496e646578206f7574206f6620626f756e647300000000000000000000000000600082015250565b60006114a06013836112ae565b91506114ab8261146a565b602082019050919050565b600060208201905081810360008301526114cf81611493565b9050919050565b60008160011c9050919050565b6000808291508390505b600185111561152d5780860481111561150957611508611256565b5b60018516156115185780820291505b8081029050611526856114d6565b94506114ed565b94509492505050565b6000826115465760019050611602565b816115545760009050611602565b816001811461156a5760028114611574576115a3565b6001915050611602565b60ff84111561158657611585611256565b5b8360020a91508482111561159d5761159c611256565b5b50611602565b5060208310610133831016604e8410600b84101617156115d85782820a9050838111156115d3576115d2611256565b5b611602565b6115e584848460016114e3565b925090508184048111156115fc576115fb611256565b5b81810290505b9392505050565b600061161482611026565b915061161f83611026565b925061163063ffffffff8484611536565b905092915050565b7f4d65726b6c6520747265652069732066756c6c2e204e6f206d6f7265206c656160008201527f7665732063616e20626520616464656400000000000000000000000000000000602082015250565b60006116946030836112ae565b915061169f82611638565b604082019050919050565b600060208201905081810360008301526116c381611687565b9050919050565b60006116d582611026565b91506116e083611026565b9250826116f0576116ef61143b565b5b828206905092915050565b600061170682611026565b915061171183611026565b9250826117215761172061143b565b5b828204905092915050565b600061173782611026565b915063ffffffff820361174d5761174c611256565b5b600182019050919050565b600061176382611026565b915061176e83611026565b9250828201905063ffffffff81111561178a57611789611256565b5b9291505056fea26469706673582212207663918aa210a3ead1c0eaaaee8b8bf2d1674f0e447427fa363bcada6ec53cf564736f6c63430008120033",
  "immutableReferences": {
    "1750": [
      {
        "length": 32,
        "start": 3354
      },
      {
        "length": 32,
        "start": 3734
      }
    ]
  },
  "source": "// SPDX-License-Identifier: MIT\npragma solidity ^0.8.18;\n\nimport \"../MerkleTreeWithHistory.sol\";\n\ncontract MerkleTreeWithHistoryMock is MerkleTreeWithHistory {\n  constructor(uint32 _treeLevels, IHasher _hasher) MerkleTreeWithHistory(_treeLevels, _hasher) {}\n\n  function insert(bytes32 _leaf) public {\n    _insert(_leaf);\n  }\n}\n",
  "sourcePath": "/Users/kayak/Blockchain/myProjects/universal_nodes/fund/zuzaluhack/truffle/contracts/Mocks/MerkleTreeWithHistoryMock.sol",
  "compiler": {
    "name": "solc",
    "version": "0.8.18+commit.87f61d96.Emscripten.clang"
  },
  "schemaVersion": "3.4.16",
  "updatedAt": "2024-01-03T07:16:32.619Z",
  "devdoc": {
    "kind": "dev",
    "methods": {
      "getLastRoot()": {
        "details": "Returns the last root"
      },
      "hashLeftRight(address,bytes32,bytes32)": {
        "details": "Hash 2 tree leaves, returns MiMC(_left, _right)"
      },
      "isKnownRoot(bytes32)": {
        "details": "Whether the root is present in the root history"
      },
      "zeros(uint256)": {
        "details": "provides Zero (Empty) elements for a MiMC MerkleTree. Up to 32 levels"
      }
    },
    "version": 1
  },
  "userdoc": {
    "kind": "user",
    "methods": {},
    "version": 1
  }
}