{
  "contractName": "Verifier",
  "abi": [
    {
      "inputs": [
        {
          "internalType": "bytes",
          "name": "proof",
          "type": "bytes"
        },
        {
          "internalType": "uint256[6]",
          "name": "input",
          "type": "uint256[6]"
        }
      ],
      "name": "verifyProof",
      "outputs": [
        {
          "internalType": "bool",
          "name": "",
          "type": "bool"
        }
      ],
      "stateMutability": "view",
      "type": "function",
      "constant": true
    }
  ],
  "bytecode": "0x608060405234801561001057600080fd5b5061197c806100206000396000f3fe608060405234801561001057600080fd5b506004361061002b5760003560e01c8063695ef6f914610030575b600080fd5b61004a60048036038101906100459190611387565b610060565b60405161005791906113fe565b60405180910390f35b6000808380602001905181019061007791906114df565b905060005b60088160ff161015610117577f30644e72e131a029b85045b68181585d97816a916871ca8d3c208c16d87cfd47828260ff16600881106100bf576100be61150d565b5b602002015110610104576040517f08c379a00000000000000000000000000000000000000000000000000000000081526004016100fb906115bf565b60405180910390fd5b808061010f9061161b565b91505061007c565b50610120610fcc565b60405180604001604052808360006008811061013f5761013e61150d565b5b602002015181526020018360016008811061015d5761015c61150d565b5b6020020151815250816000018190525060405180604001604052806040518060400160405280856002600881106101975761019661150d565b5b60200201518152602001856003600881106101b5576101b461150d565b5b602002015181525081526020016040518060400160405280856004600881106101e1576101e061150d565b5b60200201518152602001856005600881106101ff576101fe61150d565b5b602002015181525081525081602001819052506040518060400160405280836006600881106102315761023061150d565b5b602002015181526020018360076008811061024f5761024e61150d565b5b6020020151815250816040018190525060006102696103da565b90506000604051806040016040528060008152602001600081525090506102ac8183608001516000600781106102a2576102a161150d565b5b60200201516109c2565b905060005b6006811015610399577f30644e72e131a029b85045b68181585d2833e84879b9709143e1f593f00000018782600681106102ee576102ed61150d565b5b602002015110610333576040517f08c379a000000000000000000000000000000000000000000000000000000000815260040161032a90611690565b60405180910390fd5b6103848261037f856080015160018561034c91906116b0565b6007811061035d5761035c61150d565b5b60200201518a85600681106103755761037461150d565b5b6020020151610ac0565b6109c2565b91508080610391906116e4565b9150506102b1565b506103ce6103aa8460000151610b98565b84602001518460000151856020015185876040015189604001518960600151610c56565b94505050505092915050565b6103e2610fff565b60405180604001604052807f2dbfc3ec62a3eee5a3b4b464bcf1f8527bbca12adea0f1f12033cd4f61b0e09181526020017f19e55bd0b72c126da18665039556776642ff82e2f347f24fcea2475f4db087df8152508160000181905250604051806040016040528060405180604001604052807f1ae724ab134e5a7c6bd8a116fa5505b259522c0f164a5e8126e3ec7d34465f6e81526020017e9f1bcdc853f8e3531756bb625b0d1dc014f4ab57c3f79f4f4e2e7ef7e0ead6815250815260200160405180604001604052807f23a8ca5760457e726365b92fd0ceb486665797cd68c35dcffd8e4ae8066691e981526020017f13ec7182c9fd68331a10f8be0fe885d730de5c7f89aa7d0b7bafaa009bbc9e3e8152508152508160200181905250604051806040016040528060405180604001604052807f198e9393920d483a7260bfb731fb5d25f1aa493335a9e71297e485b7aef312c281526020017f1800deef121f1e76426a00665e5c4479674322d4f75edadd46debd5cd992f6ed815250815260200160405180604001604052807f090689d0585ff075ec9e99ad690c3395bc4b313370b38ef355acdadcd122975b81526020017f12c85ea5db8c6deb4aab71808dcb408fe3d1e7690c43d37b4ce6cc0166fa7daa8152508152508160400181905250604051806040016040528060405180604001604052807f2f0c63d0c53b3dfbca27b6b43ae7fbf55a38d78a21470996485b03128accc20881526020017e556502356e37ed150db2e36531b0f275fd6835c0fc1945922e270b48c48a86815250815260200160405180604001604052807f02644c27b5dbd793592a70b735e22c798a5e309fa17a992a7dc2a050e01b298f81526020017f194776b6a53439d7336f389d2a8f6651e40885f5ca2538b0dc9cb534fb23f7fa815250815250816060018190525060405180604001604052807f23df1bc9165e9c1c9b2bc036d8ebdd10e7aeae7e5e8019fde68aec7c818bb23e81526020017f0b6c92080d37c5fb2ddf30892a33665e5478432ef3f71ac8768ecbbe62c7789281525081608001516000600781106106f9576106f861150d565b5b602002018190525060405180604001604052807f1c7b2adf45e046caea000956b2ecb2d8617e710d2a7bb201a95ea276f92307b481526020017f2b15f07536f45948cf4abe6596637d902ffabb18c8c2f5c151544c294ce4a672815250816080015160016007811061076e5761076d61150d565b5b602002018190525060405180604001604052807f1cecfe92882a8c835a47bf01bfa655cf628cbba7f81cf4042179fd13edcd6a3981526020017f0154bfbb2cb786ca247d4b69183d1751f267bbc7656be8d0f0e7a5a47e2c110181525081608001516002600781106107e3576107e261150d565b5b602002018190525060405180604001604052807f1584616a7423efcc72f69ea84fa0b2bc01433677297f4e8351bebfc15bcd0cda81526020017f0623755b1488526daa9fecf0e11b110dd6df12c461579d792e1db65af523c8be81525081608001516003600781106108585761085761150d565b5b602002018190525060405180604001604052807f12fbb5bfca9d61357ba2d641604cf4852e21ef54faa180fe539c18994dc1da5a81526020017f2f09dd9972a1af5f7bcfccf3d7ab600c9d898ea6d6933150ba0ae228ece17e5f81525081608001516004600781106108cd576108cc61150d565b5b602002018190525060405180604001604052807f0adb513796fdf2103022c64151ce05f7c7a6d9200e8d819fa59e654fc4bfe83c81526020017f2d64f72ef4eddf9ca032058ed2bf691758387e913a77cf99d6a3cfb37c8ba7ee81525081608001516005600781106109425761094161150d565b5b602002018190525060405180604001604052807f21e7c9bffda74bfd2c4393b6803d775545de6fa89145f4a23476241d9881b66181526020017f0bbe41e52237ac13eb7b01f3cb999b7394d08734e71b1c3ada62713e17eb560c81525081608001516006600781106109b7576109b661150d565b5b602002018190525090565b6109ca61104c565b6109d2611066565b8360000151816000600481106109eb576109ea61150d565b5b602002018181525050836020015181600160048110610a0d57610a0c61150d565b5b602002018181525050826000015181600260048110610a2f57610a2e61150d565b5b602002018181525050826020015181600360048110610a5157610a5061150d565b5b602002018181525050600060608360c08460066107d05a03fa90508060008103610a7757fe5b5080610ab8576040517f08c379a0000000000000000000000000000000000000000000000000000000008152600401610aaf90611778565b60405180910390fd5b505092915050565b610ac861104c565b610ad0611088565b836000015181600060038110610ae957610ae861150d565b5b602002018181525050836020015181600160038110610b0b57610b0a61150d565b5b6020020181815250508281600260038110610b2957610b2861150d565b5b602002018181525050600060608360808460076107d05a03fa90508060008103610b4f57fe5b5080610b90576040517f08c379a0000000000000000000000000000000000000000000000000000000008152600401610b87906117e4565b60405180910390fd5b505092915050565b610ba061104c565b60008260000151148015610bb8575060008260200151145b15610bdb5760405180604001604052806000815260200160008152509050610c51565b6040518060400160405280836000015181526020017f30644e72e131a029b85045b68181585d97816a916871ca8d3c208c16d87cfd478460200151610c209190611833565b7f30644e72e131a029b85045b68181585d97816a916871ca8d3c208c16d87cfd47610c4b9190611864565b81525090505b919050565b60008060405180608001604052808b8152602001898152602001878152602001858152509050600060405180608001604052808b815260200189815260200187815260200185815250905060006018905060008167ffffffffffffffff811115610cc357610cc2611170565b5b604051908082528060200260200182016040528015610cf15781602001602082028036833780820191505090505b50905060005b6004811015610f2f576000600682610d0f9190611898565b9050858260048110610d2457610d2361150d565b5b60200201516000015183600083610d3b91906116b0565b81518110610d4c57610d4b61150d565b5b602002602001018181525050858260048110610d6b57610d6a61150d565b5b60200201516020015183600183610d8291906116b0565b81518110610d9357610d9261150d565b5b602002602001018181525050848260048110610db257610db161150d565b5b602002015160000151600060028110610dce57610dcd61150d565b5b602002015183600283610de191906116b0565b81518110610df257610df161150d565b5b602002602001018181525050848260048110610e1157610e1061150d565b5b602002015160000151600160028110610e2d57610e2c61150d565b5b602002015183600383610e4091906116b0565b81518110610e5157610e5061150d565b5b602002602001018181525050848260048110610e7057610e6f61150d565b5b602002015160200151600060028110610e8c57610e8b61150d565b5b602002015183600483610e9f91906116b0565b81518110610eb057610eaf61150d565b5b602002602001018181525050848260048110610ecf57610ece61150d565b5b602002015160200151600160028110610eeb57610eea61150d565b5b602002015183600583610efe91906116b0565b81518110610f0f57610f0e61150d565b5b602002602001018181525050508080610f27906116e4565b915050610cf7565b50610f386110aa565b6000602082602086026020860160086107d05a03fa90508060008103610f5a57fe5b5080610f9b576040517f08c379a0000000000000000000000000000000000000000000000000000000008152600401610f9290611926565b60405180910390fd5b600082600060018110610fb157610fb061150d565b5b60200201511415965050505050505098975050505050505050565b6040518060600160405280610fdf61104c565b8152602001610fec6110cc565b8152602001610ff961104c565b81525090565b6040518060a0016040528061101261104c565b815260200161101f6110cc565b815260200161102c6110cc565b81526020016110396110cc565b81526020016110466110f2565b81525090565b604051806040016040528060008152602001600081525090565b6040518060800160405280600490602082028036833780820191505090505090565b6040518060600160405280600390602082028036833780820191505090505090565b6040518060200160405280600190602082028036833780820191505090505090565b60405180604001604052806110df61111f565b81526020016110ec61111f565b81525090565b6040518060e001604052806007905b61110961104c565b8152602001906001900390816111015790505090565b6040518060400160405280600290602082028036833780820191505090505090565b6000604051905090565b600080fd5b600080fd5b600080fd5b600080fd5b6000601f19601f8301169050919050565b7f4e487b7100000000000000000000000000000000000000000000000000000000600052604160045260246000fd5b6111a88261115f565b810181811067ffffffffffffffff821117156111c7576111c6611170565b5b80604052505050565b60006111da611141565b90506111e6828261119f565b919050565b600067ffffffffffffffff82111561120657611205611170565b5b61120f8261115f565b9050602081019050919050565b82818337600083830152505050565b600061123e611239846111eb565b6111d0565b90508281526020810184848401111561125a5761125961115a565b5b61126584828561121c565b509392505050565b600082601f83011261128257611281611155565b5b813561129284826020860161122b565b91505092915050565b600067ffffffffffffffff8211156112b6576112b5611170565b5b602082029050919050565b600080fd5b6000819050919050565b6112d9816112c6565b81146112e457600080fd5b50565b6000813590506112f6816112d0565b92915050565b600061130f61130a8461129b565b6111d0565b90508060208402830185811115611329576113286112c1565b5b835b81811015611352578061133e88826112e7565b84526020840193505060208101905061132b565b5050509392505050565b600082601f83011261137157611370611155565b5b600661137e8482856112fc565b91505092915050565b60008060e0838503121561139e5761139d61114b565b5b600083013567ffffffffffffffff8111156113bc576113bb611150565b5b6113c88582860161126d565b92505060206113d98582860161135c565b9150509250929050565b60008115159050919050565b6113f8816113e3565b82525050565b600060208201905061141360008301846113ef565b92915050565b600067ffffffffffffffff82111561143457611433611170565b5b602082029050919050565b60008151905061144e816112d0565b92915050565b600061146761146284611419565b6111d0565b90508060208402830185811115611481576114806112c1565b5b835b818110156114aa5780611496888261143f565b845260208401935050602081019050611483565b5050509392505050565b600082601f8301126114c9576114c8611155565b5b60086114d6848285611454565b91505092915050565b600061010082840312156114f6576114f561114b565b5b6000611504848285016114b4565b91505092915050565b7f4e487b7100000000000000000000000000000000000000000000000000000000600052603260045260246000fd5b600082825260208201905092915050565b7f76657269666965722d70726f6f662d656c656d656e742d6774652d7072696d6560008201527f2d71000000000000000000000000000000000000000000000000000000000000602082015250565b60006115a960228361153c565b91506115b48261154d565b604082019050919050565b600060208201905081810360008301526115d88161159c565b9050919050565b7f4e487b7100000000000000000000000000000000000000000000000000000000600052601160045260246000fd5b600060ff82169050919050565b60006116268261160e565b915060ff8203611639576116386115df565b5b600182019050919050565b7f76657269666965722d6774652d736e61726b2d7363616c61722d6669656c6400600082015250565b600061167a601f8361153c565b915061168582611644565b602082019050919050565b600060208201905081810360008301526116a98161166d565b9050919050565b60006116bb826112c6565b91506116c6836112c6565b92508282019050808211156116de576116dd6115df565b5b92915050565b60006116ef826112c6565b91507fffffffffffffffffffffffffffffffffffffffffffffffffffffffffffffffff8203611721576117206115df565b5b600182019050919050565b7f70616972696e672d6164642d6661696c65640000000000000000000000000000600082015250565b600061176260128361153c565b915061176d8261172c565b602082019050919050565b6000602082019050818103600083015261179181611755565b9050919050565b7f70616972696e672d6d756c2d6661696c65640000000000000000000000000000600082015250565b60006117ce60128361153c565b91506117d982611798565b602082019050919050565b600060208201905081810360008301526117fd816117c1565b9050919050565b7f4e487b7100000000000000000000000000000000000000000000000000000000600052601260045260246000fd5b600061183e826112c6565b9150611849836112c6565b92508261185957611858611804565b5b828206905092915050565b600061186f826112c6565b915061187a836112c6565b9250828203905081811115611892576118916115df565b5b92915050565b60006118a3826112c6565b91506118ae836112c6565b92508282026118bc816112c6565b915082820484148315176118d3576118d26115df565b5b5092915050565b7f70616972696e672d6f70636f64652d6661696c65640000000000000000000000600082015250565b600061191060158361153c565b915061191b826118da565b602082019050919050565b6000602082019050818103600083015261193f81611903565b905091905056fea2646970667358221220ded8267ae0282d673cb62e9e00b865cd004ca2d353c8df10aafaa09563ce4ef164736f6c63430008120033",
  "immutableReferences": {},
  "source": "// SPDX-License-Identifier: MIT\n\npragma solidity ^0.8.18;\n\nlibrary Pairing {\n  uint256 constant PRIME_Q = 21888242871839275222246405745257275088696311157297823662689037894645226208583;\n\n  struct G1Point {\n    uint256 X;\n    uint256 Y;\n  }\n\n  // Encoding of field elements is: X[0] * z + X[1]\n  struct G2Point {\n    uint256[2] X;\n    uint256[2] Y;\n  }\n\n  /*\n   * @return The negation of p, i.e. p.plus(p.negate()) should be zero.\n   */\n  function negate(G1Point memory p) internal pure returns (G1Point memory) {\n    // The prime q in the base field F_q for G1\n    if (p.X == 0 && p.Y == 0) {\n      return G1Point(0, 0);\n    } else {\n      return G1Point(p.X, PRIME_Q - (p.Y % PRIME_Q));\n    }\n  }\n\n  /*\n   * @return r the sum of two points of G1\n   */\n  function plus(\n    G1Point memory p1,\n    G1Point memory p2\n  ) internal view returns (G1Point memory r) {\n    uint256[4] memory input;\n    input[0] = p1.X;\n    input[1] = p1.Y;\n    input[2] = p2.X;\n    input[3] = p2.Y;\n    bool success;\n\n    // solium-disable-next-line security/no-inline-assembly\n    assembly {\n      success := staticcall(sub(gas(), 2000), 6, input, 0xc0, r, 0x60)\n    // Use \"invalid\" to make gas estimation work\n      switch success case 0 { invalid() }\n    }\n\n    require(success, \"pairing-add-failed\");\n  }\n\n  /*\n   * @return r the product of a point on G1 and a scalar, i.e.\n   *         p == p.scalar_mul(1) and p.plus(p) == p.scalar_mul(2) for all\n   *         points p.\n   */\n  function scalar_mul(G1Point memory p, uint256 s) internal view returns (G1Point memory r) {\n    uint256[3] memory input;\n    input[0] = p.X;\n    input[1] = p.Y;\n    input[2] = s;\n    bool success;\n    // solium-disable-next-line security/no-inline-assembly\n    assembly {\n      success := staticcall(sub(gas(), 2000), 7, input, 0x80, r, 0x60)\n    // Use \"invalid\" to make gas estimation work\n      switch success case 0 { invalid() }\n    }\n    require(success, \"pairing-mul-failed\");\n  }\n\n  /* @return The result of computing the pairing check\n   *         e(p1[0], p2[0]) *  .... * e(p1[n], p2[n]) == 1\n   *         For example,\n   *         pairing([P1(), P1().negate()], [P2(), P2()]) should return true.\n   */\n  function pairing(\n    G1Point memory a1,\n    G2Point memory a2,\n    G1Point memory b1,\n    G2Point memory b2,\n    G1Point memory c1,\n    G2Point memory c2,\n    G1Point memory d1,\n    G2Point memory d2\n  ) internal view returns (bool) {\n    G1Point[4] memory p1 = [a1, b1, c1, d1];\n    G2Point[4] memory p2 = [a2, b2, c2, d2];\n\n    uint256 inputSize = 24;\n    uint256[] memory input = new uint256[](inputSize);\n\n    for (uint256 i = 0; i < 4; i++) {\n      uint256 j = i * 6;\n      input[j + 0] = p1[i].X;\n      input[j + 1] = p1[i].Y;\n      input[j + 2] = p2[i].X[0];\n      input[j + 3] = p2[i].X[1];\n      input[j + 4] = p2[i].Y[0];\n      input[j + 5] = p2[i].Y[1];\n    }\n\n    uint256[1] memory out;\n    bool success;\n\n    // solium-disable-next-line security/no-inline-assembly\n    assembly {\n      success := staticcall(sub(gas(), 2000), 8, add(input, 0x20), mul(inputSize, 0x20), out, 0x20)\n    // Use \"invalid\" to make gas estimation work\n      switch success case 0 { invalid() }\n    }\n\n    require(success, \"pairing-opcode-failed\");\n\n    return out[0] != 0;\n  }\n}\n\ncontract Verifier {\n  uint256 constant SNARK_SCALAR_FIELD = 21888242871839275222246405745257275088548364400416034343698204186575808495617;\n  uint256 constant PRIME_Q = 21888242871839275222246405745257275088696311157297823662689037894645226208583;\n  using Pairing for *;\n\n  struct VerifyingKey {\n    Pairing.G1Point alfa1;\n    Pairing.G2Point beta2;\n    Pairing.G2Point gamma2;\n    Pairing.G2Point delta2;\n    Pairing.G1Point[7] IC;\n  }\n\n  struct Proof {\n    Pairing.G1Point A;\n    Pairing.G2Point B;\n    Pairing.G1Point C;\n  }\n\n  function verifyingKey() internal pure returns (VerifyingKey memory vk) {\n    vk.alfa1 = Pairing.G1Point(uint256(20692898189092739278193869274495556617788530808486270118371701516666252877969), uint256(11713062878292653967971378194351968039596396853904572879488166084231740557279));\n    vk.beta2 = Pairing.G2Point([uint256(12168528810181263706895252315640534818222943348193302139358377162645029937006), uint256(281120578337195720357474965979947690431622127986816839208576358024608803542)], [uint256(16129176515713072042442734839012966563817890688785805090011011570989315559913), uint256(9011703453772030375124466642203641636825223906145908770308724549646909480510)]);\n    vk.gamma2 = Pairing.G2Point([uint256(11559732032986387107991004021392285783925812861821192530917403151452391805634), uint256(10857046999023057135944570762232829481370756359578518086990519993285655852781)], [uint256(4082367875863433681332203403145435568316851327593401208105741076214120093531), uint256(8495653923123431417604973247489272438418190587263600148770280649306958101930)]);\n    vk.delta2 = Pairing.G2Point([uint256(21280594949518992153305586783242820682644996932183186320680800072133486887432), uint256(150879136433974552800030963899771162647715069685890547489132178314736470662)], [uint256(1081836006956609894549771334721413187913047383331561601606260283167615953295), uint256(11434086686358152335540554643130007307617078324975981257823476472104616196090)]);\n    vk.IC[0] = Pairing.G1Point(uint256(16225148364316337376768119297456868908427925829817748684139175309620217098814), uint256(5167268689450204162046084442581051565997733233062478317813755636162413164690));\n    vk.IC[1] = Pairing.G1Point(uint256(12882377842072682264979317445365303375159828272423495088911985689463022094260), uint256(19488215856665173565526758360510125932214252767275816329232454875804474844786));\n    vk.IC[2] = Pairing.G1Point(uint256(13083492661683431044045992285476184182144099829507350352128615182516530014777), uint256(602051281796153692392523702676782023472744522032670801091617246498551238913));\n    vk.IC[3] = Pairing.G1Point(uint256(9732465972180335629969421513785602934706096902316483580882842789662669212890), uint256(2776526698606888434074200384264824461688198384989521091253289776235602495678));\n    vk.IC[4] = Pairing.G1Point(uint256(8586364274534577154894611080234048648883781955345622578531233113180532234842), uint256(21276134929883121123323359450658320820075698490666870487450985603988214349407));\n    vk.IC[5] = Pairing.G1Point(uint256(4910628533171597675018724709631788948355422829499855033965018665300386637884), uint256(20532468890024084510431799098097081600480376127870299142189696620752500664302));\n    vk.IC[6] = Pairing.G1Point(uint256(15335858102289947642505450692012116222827233918185150176888641903531542034017), uint256(5311597067667671581646709998171703828965875677637292315055030353779531404812));\n\n  }\n\n  /*\n   * @returns Whether the proof is valid given the hardcoded verifying key\n   *          above and the public inputs\n   */\n  function verifyProof(\n    bytes memory proof,\n    uint256[6] memory input\n  ) public view returns (bool) {\n    uint256[8] memory p = abi.decode(proof, (uint256[8]));\n\n    // Make sure that each element in the proof is less than the prime q\n    for (uint8 i = 0; i < p.length; i++) {\n      require(p[i] < PRIME_Q, \"verifier-proof-element-gte-prime-q\");\n    }\n\n    Proof memory _proof;\n    _proof.A = Pairing.G1Point(p[0], p[1]);\n    _proof.B = Pairing.G2Point([p[2], p[3]], [p[4], p[5]]);\n    _proof.C = Pairing.G1Point(p[6], p[7]);\n\n    VerifyingKey memory vk = verifyingKey();\n\n    // Compute the linear combination vk_x\n    Pairing.G1Point memory vk_x = Pairing.G1Point(0, 0);\n    vk_x = Pairing.plus(vk_x, vk.IC[0]);\n\n    // Make sure that every input is less than the snark scalar field\n    for (uint256 i = 0; i < input.length; i++) {\n      require(input[i] < SNARK_SCALAR_FIELD, \"verifier-gte-snark-scalar-field\");\n      vk_x = Pairing.plus(vk_x, Pairing.scalar_mul(vk.IC[i + 1], input[i]));\n    }\n\n    return Pairing.pairing(\n      Pairing.negate(_proof.A),\n      _proof.B,\n      vk.alfa1,\n      vk.beta2,\n      vk_x,\n      vk.gamma2,\n      _proof.C,\n      vk.delta2\n    );\n  }\n}\n",
  "sourcePath": "/Users/kayak/Blockchain/myProjects/universal_nodes/fund/zuzaluhack/truffle/contracts/Verifier.sol",
  "compiler": {
    "name": "solc",
    "version": "0.8.18+commit.87f61d96.Emscripten.clang"
  },
  "schemaVersion": "3.4.16",
  "updatedAt": "2024-01-04T08:01:23.329Z",
  "networkType": "ethereum",
  "devdoc": {
    "kind": "dev",
    "methods": {},
    "version": 1
  },
  "userdoc": {
    "kind": "user",
    "methods": {},
    "version": 1
  }
}